{
  "_format": "hh-sol-artifact-1",
  "contractName": "chai",
  "sourceName": "contracts/chai.sol",
  "abi": [
    {
      "inputs": [],
      "stateMutability": "nonpayable",
      "type": "constructor"
    },
    {
      "anonymous": false,
      "inputs": [
        {
          "indexed": false,
          "internalType": "address",
          "name": "admin",
          "type": "address"
        },
        {
          "indexed": false,
          "internalType": "address",
          "name": "doctor",
          "type": "address"
        }
      ],
      "name": "DrDetailsAdded",
      "type": "event"
    },
    {
      "anonymous": false,
      "inputs": [
        {
          "indexed": false,
          "internalType": "address",
          "name": "dr",
          "type": "address"
        },
        {
          "indexed": false,
          "internalType": "address",
          "name": "patient",
          "type": "address"
        }
      ],
      "name": "GrantAccessToDr",
      "type": "event"
    },
    {
      "anonymous": false,
      "inputs": [
        {
          "indexed": false,
          "internalType": "address",
          "name": "dr",
          "type": "address"
        },
        {
          "indexed": false,
          "internalType": "address",
          "name": "patient",
          "type": "address"
        }
      ],
      "name": "HealthRecordsAdded",
      "type": "event"
    },
    {
      "inputs": [
        {
          "internalType": "address",
          "name": "_drId",
          "type": "address"
        },
        {
          "internalType": "string",
          "name": "_name",
          "type": "string"
        }
      ],
      "name": "buyChai",
      "outputs": [],
      "stateMutability": "payable",
      "type": "function"
    },
    {
      "inputs": [
        {
          "internalType": "address",
          "name": "_Id",
          "type": "address"
        }
      ],
      "name": "getDoctorDetails",
      "outputs": [
        {
          "internalType": "bool",
          "name": "_state",
          "type": "bool"
        },
        {
          "internalType": "address",
          "name": "_drId",
          "type": "address"
        },
        {
          "internalType": "string",
          "name": "_name",
          "type": "string"
        }
      ],
      "stateMutability": "view",
      "type": "function"
    },
    {
      "inputs": [
        {
          "internalType": "address",
          "name": "_dr",
          "type": "address"
        }
      ],
      "name": "getHealthRecords",
      "outputs": [
        {
          "internalType": "string",
          "name": "_drName",
          "type": "string"
        },
        {
          "internalType": "address",
          "name": "_drId",
          "type": "address"
        },
        {
          "internalType": "string",
          "name": "_paName",
          "type": "string"
        },
        {
          "internalType": "address",
          "name": "_paId",
          "type": "address"
        },
        {
          "internalType": "string",
          "name": "_prescription",
          "type": "string"
        },
        {
          "internalType": "string[]",
          "name": "_rec",
          "type": "string[]"
        }
      ],
      "stateMutability": "view",
      "type": "function"
    },
    {
      "inputs": [
        {
          "internalType": "address",
          "name": "_paId",
          "type": "address"
        }
      ],
      "name": "getHealthRecordsForDoctor",
      "outputs": [
        {
          "internalType": "string",
          "name": "_drName",
          "type": "string"
        },
        {
          "internalType": "address",
          "name": "_drId",
          "type": "address"
        },
        {
          "internalType": "string",
          "name": "_paName",
          "type": "string"
        },
        {
          "internalType": "address",
          "name": "_pId",
          "type": "address"
        },
        {
          "internalType": "string",
          "name": "_prescription",
          "type": "string"
        },
        {
          "internalType": "string[]",
          "name": "_rec",
          "type": "string[]"
        }
      ],
      "stateMutability": "view",
      "type": "function"
    },
    {
      "inputs": [],
      "name": "getMemos",
      "outputs": [
        {
          "components": [
            {
              "internalType": "bool",
              "name": "state",
              "type": "bool"
            },
            {
              "internalType": "address",
              "name": "_Id",
              "type": "address"
            },
            {
              "internalType": "string",
              "name": "message",
              "type": "string"
            }
          ],
          "internalType": "struct chai.Memo[]",
          "name": "",
          "type": "tuple[]"
        }
      ],
      "stateMutability": "view",
      "type": "function"
    },
    {
      "inputs": [
        {
          "internalType": "address",
          "name": "_Id",
          "type": "address"
        }
      ],
      "name": "getPatientDetails",
      "outputs": [
        {
          "internalType": "bool",
          "name": "_state",
          "type": "bool"
        },
        {
          "internalType": "address",
          "name": "_paId",
          "type": "address"
        },
        {
          "internalType": "string",
          "name": "_paName",
          "type": "string"
        },
        {
          "internalType": "string[]",
          "name": "_paRecords",
          "type": "string[]"
        }
      ],
      "stateMutability": "view",
      "type": "function"
    },
    {
      "inputs": [
        {
          "internalType": "address",
          "name": "doctor_id",
          "type": "address"
        },
        {
          "internalType": "uint256",
          "name": "access",
          "type": "uint256"
        }
      ],
      "name": "grantAccessToDoctor",
      "outputs": [],
      "stateMutability": "nonpayable",
      "type": "function"
    },
    {
      "inputs": [
        {
          "internalType": "bool",
          "name": "_state",
          "type": "bool"
        },
        {
          "internalType": "address",
          "name": "_drId",
          "type": "address"
        },
        {
          "internalType": "string",
          "name": "_name",
          "type": "string"
        }
      ],
      "name": "setDoctorDetails",
      "outputs": [],
      "stateMutability": "nonpayable",
      "type": "function"
    },
    {
      "inputs": [
        {
          "internalType": "string",
          "name": "_paName",
          "type": "string"
        },
        {
          "internalType": "address",
          "name": "_paId",
          "type": "address"
        },
        {
          "internalType": "string",
          "name": "_prescription",
          "type": "string"
        }
      ],
      "name": "setHealthRecordsDetails",
      "outputs": [],
      "stateMutability": "nonpayable",
      "type": "function"
    },
    {
      "inputs": [
        {
          "internalType": "bool",
          "name": "_state",
          "type": "bool"
        },
        {
          "internalType": "address",
          "name": "_paId",
          "type": "address"
        },
        {
          "internalType": "string",
          "name": "_paName",
          "type": "string"
        },
        {
          "internalType": "string[]",
          "name": "_paRecords",
          "type": "string[]"
        }
      ],
      "name": "setPatientDetails",
      "outputs": [],
      "stateMutability": "nonpayable",
      "type": "function"
    }
  ],
  "bytecode": "0x608060405234801561001057600080fd5b5033600160006101000a81548173ffffffffffffffffffffffffffffffffffffffff021916908373ffffffffffffffffffffffffffffffffffffffff1602179055506138c4806100616000396000f3fe6080604052600436106100915760003560e01c8063865c517211610059578063865c51721461016f578063bab90dbd1461019a578063c88f22a9146101d9578063efe2ccc114610202578063f83009ba1461024257610091565b8063506f1773146100965780636bb2fc8a146100bf57806371f61bfa146100db5780637827c01a1461010457806380cfed0e14610146575b600080fd5b3480156100a257600080fd5b506100bd60048036038101906100b891906128f7565b610284565b005b6100d960048036038101906100d49190612a7d565b6103d8565b005b3480156100e757600080fd5b5061010260048036038101906100fd9190612bf7565b610566565b005b34801561011057600080fd5b5061012b60048036038101906101269190612c96565b610717565b60405161013d96959493929190612e5d565b60405180910390f35b34801561015257600080fd5b5061016d60048036038101906101689190612eda565b610d83565b005b34801561017b57600080fd5b50610184610f43565b6040516101919190613079565b60405180910390f35b3480156101a657600080fd5b506101c160048036038101906101bc9190612c96565b6110a5565b6040516101d0939291906130aa565b60405180910390f35b3480156101e557600080fd5b5061020060048036038101906101fb91906130e8565b6112c5565b005b34801561020e57600080fd5b5061022960048036038101906102249190612c96565b611c88565b6040516102399493929190613173565b60405180910390f35b34801561024e57600080fd5b5061026960048036038101906102649190612c96565b61204a565b60405161027b96959493929190612e5d565b60405180910390f35b60011515600360003373ffffffffffffffffffffffffffffffffffffffff1673ffffffffffffffffffffffffffffffffffffffff16815260200190815260200160002060000160009054906101000a900460ff1615151461031a576040517f08c379a000000000000000000000000000000000000000000000000000000000815260040161031190613212565b60405180910390fd5b80600560003373ffffffffffffffffffffffffffffffffffffffff1673ffffffffffffffffffffffffffffffffffffffff16815260200190815260200160002060008473ffffffffffffffffffffffffffffffffffffffff1673ffffffffffffffffffffffffffffffffffffffff168152602001908152602001600020819055507f19dd02d0615ff9058c55159271b51d3d8ead87b40cc392e6dbeca6483cff333382336040516103cc929190613232565b60405180910390a15050565b6000341161041b576040517f08c379a0000000000000000000000000000000000000000000000000000000008152600401610412906132a7565b60405180910390fd5b600160009054906101000a900473ffffffffffffffffffffffffffffffffffffffff1673ffffffffffffffffffffffffffffffffffffffff166108fc349081150290604051600060405180830381858888f19350505050158015610483573d6000803e3d6000fd5b50600060405180606001604052806001151581526020018473ffffffffffffffffffffffffffffffffffffffff16815260200183815250908060018154018082558091505060019003906000526020600020906002020160009091909190915060008201518160000160006101000a81548160ff02191690831515021790555060208201518160000160016101000a81548173ffffffffffffffffffffffffffffffffffffffff021916908373ffffffffffffffffffffffffffffffffffffffff160217905550604082015181600101908161055f91906134d3565b5050505050565b60011515600260003373ffffffffffffffffffffffffffffffffffffffff1673ffffffffffffffffffffffffffffffffffffffff16815260200190815260200160002060000160009054906101000a900460ff161515146105fc576040517f08c379a00000000000000000000000000000000000000000000000000000000081526004016105f3906135f1565b60405180910390fd5b604051806080016040528085151581526020018473ffffffffffffffffffffffffffffffffffffffff16815260200183815260200182815250600360008573ffffffffffffffffffffffffffffffffffffffff1673ffffffffffffffffffffffffffffffffffffffff16815260200190815260200160002060008201518160000160006101000a81548160ff02191690831515021790555060208201518160000160016101000a81548173ffffffffffffffffffffffffffffffffffffffff021916908373ffffffffffffffffffffffffffffffffffffffff16021790555060408201518160010190816106f091906134d3565b50606082015181600201908051906020019061070d929190612775565b5090505050505050565b606060006060600060608060011515600360003373ffffffffffffffffffffffffffffffffffffffff1673ffffffffffffffffffffffffffffffffffffffff16815260200190815260200160002060000160009054906101000a900460ff161515146107b8576040517f08c379a00000000000000000000000000000000000000000000000000000000081526004016107af90613212565b60405180910390fd5b600460008873ffffffffffffffffffffffffffffffffffffffff1673ffffffffffffffffffffffffffffffffffffffff16815260200190815260200160002060003373ffffffffffffffffffffffffffffffffffffffff1673ffffffffffffffffffffffffffffffffffffffff1681526020019081526020016000206000016001018054610845906132f6565b80601f0160208091040260200160405190810160405280929190818152602001828054610871906132f6565b80156108be5780601f10610893576101008083540402835291602001916108be565b820191906000526020600020905b8154815290600101906020018083116108a157829003601f168201915b50505050509550600460008873ffffffffffffffffffffffffffffffffffffffff1673ffffffffffffffffffffffffffffffffffffffff16815260200190815260200160002060003373ffffffffffffffffffffffffffffffffffffffff1673ffffffffffffffffffffffffffffffffffffffff16815260200190815260200160002060000160000160019054906101000a900473ffffffffffffffffffffffffffffffffffffffff169450600460008873ffffffffffffffffffffffffffffffffffffffff1673ffffffffffffffffffffffffffffffffffffffff16815260200190815260200160002060003373ffffffffffffffffffffffffffffffffffffffff1673ffffffffffffffffffffffffffffffffffffffff16815260200190815260200160002060020160010180546109f7906132f6565b80601f0160208091040260200160405190810160405280929190818152602001828054610a23906132f6565b8015610a705780601f10610a4557610100808354040283529160200191610a70565b820191906000526020600020905b815481529060010190602001808311610a5357829003601f168201915b50505050509350600460008873ffffffffffffffffffffffffffffffffffffffff1673ffffffffffffffffffffffffffffffffffffffff16815260200190815260200160002060003373ffffffffffffffffffffffffffffffffffffffff1673ffffffffffffffffffffffffffffffffffffffff16815260200190815260200160002060020160000160019054906101000a900473ffffffffffffffffffffffffffffffffffffffff169250600460008873ffffffffffffffffffffffffffffffffffffffff1673ffffffffffffffffffffffffffffffffffffffff16815260200190815260200160002060003373ffffffffffffffffffffffffffffffffffffffff1673ffffffffffffffffffffffffffffffffffffffff1681526020019081526020016000206005016000018054610ba9906132f6565b80601f0160208091040260200160405190810160405280929190818152602001828054610bd5906132f6565b8015610c225780601f10610bf757610100808354040283529160200191610c22565b820191906000526020600020905b815481529060010190602001808311610c0557829003601f168201915b50505050509150600460008873ffffffffffffffffffffffffffffffffffffffff1673ffffffffffffffffffffffffffffffffffffffff16815260200190815260200160002060003373ffffffffffffffffffffffffffffffffffffffff1673ffffffffffffffffffffffffffffffffffffffff168152602001908152602001600020600601805480602002602001604051908101604052809291908181526020016000905b82821015610d74578382906000526020600020018054610ce7906132f6565b80601f0160208091040260200160405190810160405280929190818152602001828054610d13906132f6565b8015610d605780601f10610d3557610100808354040283529160200191610d60565b820191906000526020600020905b815481529060010190602001808311610d4357829003601f168201915b505050505081526020019060010190610cc8565b50505050905091939550919395565b600160009054906101000a900473ffffffffffffffffffffffffffffffffffffffff1673ffffffffffffffffffffffffffffffffffffffff163373ffffffffffffffffffffffffffffffffffffffff1614610e13576040517f08c379a0000000000000000000000000000000000000000000000000000000008152600401610e0a9061365d565b60405180910390fd5b604051806060016040528084151581526020018373ffffffffffffffffffffffffffffffffffffffff16815260200182815250600260008473ffffffffffffffffffffffffffffffffffffffff1673ffffffffffffffffffffffffffffffffffffffff16815260200190815260200160002060008201518160000160006101000a81548160ff02191690831515021790555060208201518160000160016101000a81548173ffffffffffffffffffffffffffffffffffffffff021916908373ffffffffffffffffffffffffffffffffffffffff1602179055506040820151816001019081610f0191906134d3565b509050507f83c041d3aeb1dcb1f28cb15e20bdfee5ed1ca3740e487f9cab72e13eeb8595053383604051610f36929190613232565b60405180910390a1505050565b60606000805480602002602001604051908101604052809291908181526020016000905b8282101561109c57838290600052602060002090600202016040518060600160405290816000820160009054906101000a900460ff161515151581526020016000820160019054906101000a900473ffffffffffffffffffffffffffffffffffffffff1673ffffffffffffffffffffffffffffffffffffffff1673ffffffffffffffffffffffffffffffffffffffff16815260200160018201805461100b906132f6565b80601f0160208091040260200160405190810160405280929190818152602001828054611037906132f6565b80156110845780601f1061105957610100808354040283529160200191611084565b820191906000526020600020905b81548152906001019060200180831161106757829003601f168201915b50505050508152505081526020019060010190610f67565b50505050905090565b6000806060600160009054906101000a900473ffffffffffffffffffffffffffffffffffffffff1673ffffffffffffffffffffffffffffffffffffffff163373ffffffffffffffffffffffffffffffffffffffff161461113a576040517f08c379a00000000000000000000000000000000000000000000000000000000081526004016111319061365d565b60405180910390fd5b600260008573ffffffffffffffffffffffffffffffffffffffff1673ffffffffffffffffffffffffffffffffffffffff16815260200190815260200160002060000160009054906101000a900460ff169250600260008573ffffffffffffffffffffffffffffffffffffffff1673ffffffffffffffffffffffffffffffffffffffff16815260200190815260200160002060000160019054906101000a900473ffffffffffffffffffffffffffffffffffffffff169150600260008573ffffffffffffffffffffffffffffffffffffffff1673ffffffffffffffffffffffffffffffffffffffff168152602001908152602001600020600101805461123e906132f6565b80601f016020809104026020016040519081016040528092919081815260200182805461126a906132f6565b80156112b75780601f1061128c576101008083540402835291602001916112b7565b820191906000526020600020905b81548152906001019060200180831161129a57829003601f168201915b505050505090509193909250565b60011515600260003373ffffffffffffffffffffffffffffffffffffffff1673ffffffffffffffffffffffffffffffffffffffff16815260200190815260200160002060000160009054906101000a900460ff1615151461135b576040517f08c379a0000000000000000000000000000000000000000000000000000000008152600401611352906135f1565b60405180910390fd5b600260003373ffffffffffffffffffffffffffffffffffffffff1673ffffffffffffffffffffffffffffffffffffffff168152602001908152602001600020600101600460003373ffffffffffffffffffffffffffffffffffffffff1673ffffffffffffffffffffffffffffffffffffffff16815260200190815260200160002060008473ffffffffffffffffffffffffffffffffffffffff1673ffffffffffffffffffffffffffffffffffffffff168152602001908152602001600020600001600101908161142b91906136a8565b50600260003373ffffffffffffffffffffffffffffffffffffffff1673ffffffffffffffffffffffffffffffffffffffff16815260200190815260200160002060000160019054906101000a900473ffffffffffffffffffffffffffffffffffffffff16600460003373ffffffffffffffffffffffffffffffffffffffff1673ffffffffffffffffffffffffffffffffffffffff16815260200190815260200160002060008473ffffffffffffffffffffffffffffffffffffffff1673ffffffffffffffffffffffffffffffffffffffff16815260200190815260200160002060000160000160016101000a81548173ffffffffffffffffffffffffffffffffffffffff021916908373ffffffffffffffffffffffffffffffffffffffff1602179055506001600460003373ffffffffffffffffffffffffffffffffffffffff1673ffffffffffffffffffffffffffffffffffffffff16815260200190815260200160002060008473ffffffffffffffffffffffffffffffffffffffff1673ffffffffffffffffffffffffffffffffffffffff16815260200190815260200160002060020160000160006101000a81548160ff02191690831515021790555081600460003373ffffffffffffffffffffffffffffffffffffffff1673ffffffffffffffffffffffffffffffffffffffff16815260200190815260200160002060008473ffffffffffffffffffffffffffffffffffffffff1673ffffffffffffffffffffffffffffffffffffffff16815260200190815260200160002060020160000160016101000a81548173ffffffffffffffffffffffffffffffffffffffff021916908373ffffffffffffffffffffffffffffffffffffffff16021790555082600460003373ffffffffffffffffffffffffffffffffffffffff1673ffffffffffffffffffffffffffffffffffffffff16815260200190815260200160002060008473ffffffffffffffffffffffffffffffffffffffff1673ffffffffffffffffffffffffffffffffffffffff168152602001908152602001600020600201600101908161173a91906134d3565b5080600460003373ffffffffffffffffffffffffffffffffffffffff1673ffffffffffffffffffffffffffffffffffffffff16815260200190815260200160002060008473ffffffffffffffffffffffffffffffffffffffff1673ffffffffffffffffffffffffffffffffffffffff16815260200190815260200160002060050160000190816117ca91906134d3565b50600460003373ffffffffffffffffffffffffffffffffffffffff1673ffffffffffffffffffffffffffffffffffffffff16815260200190815260200160002060008373ffffffffffffffffffffffffffffffffffffffff1673ffffffffffffffffffffffffffffffffffffffff1681526020019081526020016000206006018190806001815401808255809150506001900390600052602060002001600090919091909150908161187c91906134d3565b50600360008373ffffffffffffffffffffffffffffffffffffffff1673ffffffffffffffffffffffffffffffffffffffff168152602001908152602001600020600201819080600181540180825580915050600190039060005260206000200160009091909190915090816118f191906134d3565b50611c4a600460003373ffffffffffffffffffffffffffffffffffffffff1673ffffffffffffffffffffffffffffffffffffffff16815260200190815260200160002060008473ffffffffffffffffffffffffffffffffffffffff1673ffffffffffffffffffffffffffffffffffffffff16815260200190815260200160002060020160000160009054906101000a900460ff16600460003373ffffffffffffffffffffffffffffffffffffffff1673ffffffffffffffffffffffffffffffffffffffff16815260200190815260200160002060008573ffffffffffffffffffffffffffffffffffffffff1673ffffffffffffffffffffffffffffffffffffffff16815260200190815260200160002060020160000160019054906101000a900473ffffffffffffffffffffffffffffffffffffffff16600460003373ffffffffffffffffffffffffffffffffffffffff1673ffffffffffffffffffffffffffffffffffffffff16815260200190815260200160002060008673ffffffffffffffffffffffffffffffffffffffff1673ffffffffffffffffffffffffffffffffffffffff1681526020019081526020016000206002016001018054611ab5906132f6565b80601f0160208091040260200160405190810160405280929190818152602001828054611ae1906132f6565b8015611b2e5780601f10611b0357610100808354040283529160200191611b2e565b820191906000526020600020905b815481529060010190602001808311611b1157829003601f168201915b5050505050600360008773ffffffffffffffffffffffffffffffffffffffff1673ffffffffffffffffffffffffffffffffffffffff168152602001908152602001600020600201805480602002602001604051908101604052809291908181526020016000905b82821015611c41578382906000526020600020018054611bb4906132f6565b80601f0160208091040260200160405190810160405280929190818152602001828054611be0906132f6565b8015611c2d5780601f10611c0257610100808354040283529160200191611c2d565b820191906000526020600020905b815481529060010190602001808311611c1057829003601f168201915b505050505081526020019060010190611b95565b50505050610566565b7ffd09d3da0077a9ed9d4af05531b2f844c840c94c1e6535e3d2a09a6ae1aa9a523383604051611c7b929190613232565b60405180910390a1505050565b60008060608060011515600360003373ffffffffffffffffffffffffffffffffffffffff1673ffffffffffffffffffffffffffffffffffffffff16815260200190815260200160002060000160009054906101000a900460ff1615151480611d6c57506001600560008773ffffffffffffffffffffffffffffffffffffffff1673ffffffffffffffffffffffffffffffffffffffff16815260200190815260200160002060003373ffffffffffffffffffffffffffffffffffffffff1673ffffffffffffffffffffffffffffffffffffffff16815260200190815260200160002054145b611dab576040517f08c379a0000000000000000000000000000000000000000000000000000000008152600401611da290613802565b60405180910390fd5b600360008673ffffffffffffffffffffffffffffffffffffffff1673ffffffffffffffffffffffffffffffffffffffff16815260200190815260200160002060000160009054906101000a900460ff169350600360008673ffffffffffffffffffffffffffffffffffffffff1673ffffffffffffffffffffffffffffffffffffffff16815260200190815260200160002060000160019054906101000a900473ffffffffffffffffffffffffffffffffffffffff169250600360008673ffffffffffffffffffffffffffffffffffffffff1673ffffffffffffffffffffffffffffffffffffffff1681526020019081526020016000206001018054611eaf906132f6565b80601f0160208091040260200160405190810160405280929190818152602001828054611edb906132f6565b8015611f285780601f10611efd57610100808354040283529160200191611f28565b820191906000526020600020905b815481529060010190602001808311611f0b57829003601f168201915b50505050509150600360008673ffffffffffffffffffffffffffffffffffffffff1673ffffffffffffffffffffffffffffffffffffffff168152602001908152602001600020600201805480602002602001604051908101604052809291908181526020016000905b8282101561203d578382906000526020600020018054611fb0906132f6565b80601f0160208091040260200160405190810160405280929190818152602001828054611fdc906132f6565b80156120295780601f10611ffe57610100808354040283529160200191612029565b820191906000526020600020905b81548152906001019060200180831161200c57829003601f168201915b505050505081526020019060010190611f91565b5050505090509193509193565b606060006060600060608060011515600260003373ffffffffffffffffffffffffffffffffffffffff1673ffffffffffffffffffffffffffffffffffffffff16815260200190815260200160002060000160009054906101000a900460ff161515146120eb576040517f08c379a00000000000000000000000000000000000000000000000000000000081526004016120e2906135f1565b60405180910390fd5b6001600560008973ffffffffffffffffffffffffffffffffffffffff1673ffffffffffffffffffffffffffffffffffffffff16815260200190815260200160002060003373ffffffffffffffffffffffffffffffffffffffff1673ffffffffffffffffffffffffffffffffffffffff16815260200190815260200160002054146121aa576040517f08c379a00000000000000000000000000000000000000000000000000000000081526004016121a19061386e565b60405180910390fd5b600460003373ffffffffffffffffffffffffffffffffffffffff1673ffffffffffffffffffffffffffffffffffffffff16815260200190815260200160002060008873ffffffffffffffffffffffffffffffffffffffff1673ffffffffffffffffffffffffffffffffffffffff1681526020019081526020016000206000016001018054612237906132f6565b80601f0160208091040260200160405190810160405280929190818152602001828054612263906132f6565b80156122b05780601f10612285576101008083540402835291602001916122b0565b820191906000526020600020905b81548152906001019060200180831161229357829003601f168201915b50505050509550600460003373ffffffffffffffffffffffffffffffffffffffff1673ffffffffffffffffffffffffffffffffffffffff16815260200190815260200160002060008873ffffffffffffffffffffffffffffffffffffffff1673ffffffffffffffffffffffffffffffffffffffff16815260200190815260200160002060000160000160019054906101000a900473ffffffffffffffffffffffffffffffffffffffff169450600460003373ffffffffffffffffffffffffffffffffffffffff1673ffffffffffffffffffffffffffffffffffffffff16815260200190815260200160002060008873ffffffffffffffffffffffffffffffffffffffff1673ffffffffffffffffffffffffffffffffffffffff16815260200190815260200160002060020160010180546123e9906132f6565b80601f0160208091040260200160405190810160405280929190818152602001828054612415906132f6565b80156124625780601f1061243757610100808354040283529160200191612462565b820191906000526020600020905b81548152906001019060200180831161244557829003601f168201915b50505050509350600460003373ffffffffffffffffffffffffffffffffffffffff1673ffffffffffffffffffffffffffffffffffffffff16815260200190815260200160002060008873ffffffffffffffffffffffffffffffffffffffff1673ffffffffffffffffffffffffffffffffffffffff16815260200190815260200160002060020160000160019054906101000a900473ffffffffffffffffffffffffffffffffffffffff169250600460003373ffffffffffffffffffffffffffffffffffffffff1673ffffffffffffffffffffffffffffffffffffffff16815260200190815260200160002060008873ffffffffffffffffffffffffffffffffffffffff1673ffffffffffffffffffffffffffffffffffffffff168152602001908152602001600020600501600001805461259b906132f6565b80601f01602080910402602001604051908101604052809291908181526020018280546125c7906132f6565b80156126145780601f106125e957610100808354040283529160200191612614565b820191906000526020600020905b8154815290600101906020018083116125f757829003601f168201915b50505050509150600460003373ffffffffffffffffffffffffffffffffffffffff1673ffffffffffffffffffffffffffffffffffffffff16815260200190815260200160002060008873ffffffffffffffffffffffffffffffffffffffff1673ffffffffffffffffffffffffffffffffffffffff168152602001908152602001600020600601805480602002602001604051908101604052809291908181526020016000905b828210156127665783829060005260206000200180546126d9906132f6565b80601f0160208091040260200160405190810160405280929190818152602001828054612705906132f6565b80156127525780601f1061272757610100808354040283529160200191612752565b820191906000526020600020905b81548152906001019060200180831161273557829003601f168201915b5050505050815260200190600101906126ba565b50505050905091939550919395565b8280548282559060005260206000209081019282156127bd579160200282015b828111156127bc5782518290816127ac91906134d3565b5091602001919060010190612795565b5b5090506127ca91906127ce565b5090565b5b808211156127ee57600081816127e591906127f2565b506001016127cf565b5090565b5080546127fe906132f6565b6000825580601f10612810575061282f565b601f01602090049060005260206000209081019061282e9190612832565b5b50565b5b8082111561284b576000816000905550600101612833565b5090565b6000604051905090565b600080fd5b600080fd5b600073ffffffffffffffffffffffffffffffffffffffff82169050919050565b600061288e82612863565b9050919050565b61289e81612883565b81146128a957600080fd5b50565b6000813590506128bb81612895565b92915050565b6000819050919050565b6128d4816128c1565b81146128df57600080fd5b50565b6000813590506128f1816128cb565b92915050565b6000806040838503121561290e5761290d612859565b5b600061291c858286016128ac565b925050602061292d858286016128e2565b9150509250929050565b600080fd5b600080fd5b6000601f19601f8301169050919050565b7f4e487b7100000000000000000000000000000000000000000000000000000000600052604160045260246000fd5b61298a82612941565b810181811067ffffffffffffffff821117156129a9576129a8612952565b5b80604052505050565b60006129bc61284f565b90506129c88282612981565b919050565b600067ffffffffffffffff8211156129e8576129e7612952565b5b6129f182612941565b9050602081019050919050565b82818337600083830152505050565b6000612a20612a1b846129cd565b6129b2565b905082815260208101848484011115612a3c57612a3b61293c565b5b612a478482856129fe565b509392505050565b600082601f830112612a6457612a63612937565b5b8135612a74848260208601612a0d565b91505092915050565b60008060408385031215612a9457612a93612859565b5b6000612aa2858286016128ac565b925050602083013567ffffffffffffffff811115612ac357612ac261285e565b5b612acf85828601612a4f565b9150509250929050565b60008115159050919050565b612aee81612ad9565b8114612af957600080fd5b50565b600081359050612b0b81612ae5565b92915050565b600067ffffffffffffffff821115612b2c57612b2b612952565b5b602082029050602081019050919050565b600080fd5b6000612b55612b5084612b11565b6129b2565b90508083825260208201905060208402830185811115612b7857612b77612b3d565b5b835b81811015612bbf57803567ffffffffffffffff811115612b9d57612b9c612937565b5b808601612baa8982612a4f565b85526020850194505050602081019050612b7a565b5050509392505050565b600082601f830112612bde57612bdd612937565b5b8135612bee848260208601612b42565b91505092915050565b60008060008060808587031215612c1157612c10612859565b5b6000612c1f87828801612afc565b9450506020612c30878288016128ac565b935050604085013567ffffffffffffffff811115612c5157612c5061285e565b5b612c5d87828801612a4f565b925050606085013567ffffffffffffffff811115612c7e57612c7d61285e565b5b612c8a87828801612bc9565b91505092959194509250565b600060208284031215612cac57612cab612859565b5b6000612cba848285016128ac565b91505092915050565b600081519050919050565b600082825260208201905092915050565b60005b83811015612cfd578082015181840152602081019050612ce2565b60008484015250505050565b6000612d1482612cc3565b612d1e8185612cce565b9350612d2e818560208601612cdf565b612d3781612941565b840191505092915050565b612d4b81612883565b82525050565b600081519050919050565b600082825260208201905092915050565b6000819050602082019050919050565b600082825260208201905092915050565b6000612d9982612cc3565b612da38185612d7d565b9350612db3818560208601612cdf565b612dbc81612941565b840191505092915050565b6000612dd38383612d8e565b905092915050565b6000602082019050919050565b6000612df382612d51565b612dfd8185612d5c565b935083602082028501612e0f85612d6d565b8060005b85811015612e4b5784840389528151612e2c8582612dc7565b9450612e3783612ddb565b925060208a01995050600181019050612e13565b50829750879550505050505092915050565b600060c0820190508181036000830152612e778189612d09565b9050612e866020830188612d42565b8181036040830152612e988187612d09565b9050612ea76060830186612d42565b8181036080830152612eb98185612d09565b905081810360a0830152612ecd8184612de8565b9050979650505050505050565b600080600060608486031215612ef357612ef2612859565b5b6000612f0186828701612afc565b9350506020612f12868287016128ac565b925050604084013567ffffffffffffffff811115612f3357612f3261285e565b5b612f3f86828701612a4f565b9150509250925092565b600081519050919050565b600082825260208201905092915050565b6000819050602082019050919050565b612f7e81612ad9565b82525050565b612f8d81612883565b82525050565b6000606083016000830151612fab6000860182612f75565b506020830151612fbe6020860182612f84565b5060408301518482036040860152612fd68282612d8e565b9150508091505092915050565b6000612fef8383612f93565b905092915050565b6000602082019050919050565b600061300f82612f49565b6130198185612f54565b93508360208202850161302b85612f65565b8060005b8581101561306757848403895281516130488582612fe3565b945061305383612ff7565b925060208a0199505060018101905061302f565b50829750879550505050505092915050565b600060208201905081810360008301526130938184613004565b905092915050565b6130a481612ad9565b82525050565b60006060820190506130bf600083018661309b565b6130cc6020830185612d42565b81810360408301526130de8184612d09565b9050949350505050565b60008060006060848603121561310157613100612859565b5b600084013567ffffffffffffffff81111561311f5761311e61285e565b5b61312b86828701612a4f565b935050602061313c868287016128ac565b925050604084013567ffffffffffffffff81111561315d5761315c61285e565b5b61316986828701612a4f565b9150509250925092565b6000608082019050613188600083018761309b565b6131956020830186612d42565b81810360408301526131a78185612d09565b905081810360608301526131bb8184612de8565b905095945050505050565b7f524547495354455245442050415449454e5453204f4e4c590000000000000000600082015250565b60006131fc601883612cce565b9150613207826131c6565b602082019050919050565b6000602082019050818103600083015261322b816131ef565b9050919050565b60006040820190506132476000830185612d42565b6132546020830184612d42565b9392505050565b7f506c65617365207061792067726561746572207468616e203020657468657200600082015250565b6000613291601f83612cce565b915061329c8261325b565b602082019050919050565b600060208201905081810360008301526132c081613284565b9050919050565b7f4e487b7100000000000000000000000000000000000000000000000000000000600052602260045260246000fd5b6000600282049050600182168061330e57607f821691505b602082108103613321576133206132c7565b5b50919050565b60008190508160005260206000209050919050565b60006020601f8301049050919050565b600082821b905092915050565b6000600883026133897fffffffffffffffffffffffffffffffffffffffffffffffffffffffffffffffff8261334c565b613393868361334c565b95508019841693508086168417925050509392505050565b6000819050919050565b60006133d06133cb6133c6846128c1565b6133ab565b6128c1565b9050919050565b6000819050919050565b6133ea836133b5565b6133fe6133f6826133d7565b848454613359565b825550505050565b600090565b613413613406565b61341e8184846133e1565b505050565b5b818110156134425761343760008261340b565b600181019050613424565b5050565b601f8211156134875761345881613327565b6134618461333c565b81016020851015613470578190505b61348461347c8561333c565b830182613423565b50505b505050565b600082821c905092915050565b60006134aa6000198460080261348c565b1980831691505092915050565b60006134c38383613499565b9150826002028217905092915050565b6134dc82612cc3565b67ffffffffffffffff8111156134f5576134f4612952565b5b6134ff82546132f6565b61350a828285613446565b600060209050601f83116001811461353d576000841561352b578287015190505b61353585826134b7565b86555061359d565b601f19841661354b86613327565b60005b828110156135735784890151825560018201915060208501945060208101905061354e565b86831015613590578489015161358c601f891682613499565b8355505b6001600288020188555050505b505050505050565b7f5245474953544552454420444f43544f5253204f4e4c59000000000000000000600082015250565b60006135db601783612cce565b91506135e6826135a5565b602082019050919050565b6000602082019050818103600083015261360a816135ce565b9050919050565b7f4f4e4c592041444d494e20495320414c4c4f5745440000000000000000000000600082015250565b6000613647601583612cce565b915061365282613611565b602082019050919050565b600060208201905081810360008301526136768161363a565b9050919050565b60008154905061368c816132f6565b9050919050565b60008190508160005260206000209050919050565b8181036136b657505061378e565b6136bf8261367d565b67ffffffffffffffff8111156136d8576136d7612952565b5b6136e282546132f6565b6136ed828285613446565b6000601f83116001811461371c576000841561370a578287015490505b61371485826134b7565b865550613787565b601f19841661372a87613693565b965061373586613327565b60005b8281101561375d57848901548255600182019150600185019450602081019050613738565b8683101561377a5784890154613776601f891682613499565b8355505b6001600288020188555050505b5050505050505b565b7f50415449454e5453204f52204143434553535f4752414e5445445f444f43544f60008201527f5253204f4e4c5900000000000000000000000000000000000000000000000000602082015250565b60006137ec602783612cce565b91506137f782613790565b604082019050919050565b6000602082019050818103600083015261381b816137df565b9050919050565b7f445220414343455353204e4f54204752414e5445440000000000000000000000600082015250565b6000613858601583612cce565b915061386382613822565b602082019050919050565b600060208201905081810360008301526138878161384b565b905091905056fea2646970667358221220b1a0b25c05c4b93a2e5417fe0bdf6fbcd53a034b840acba6f074bfd1f2caaefd64736f6c63430008110033",
  "linkReferences": {},
  "deployedLinkReferences": {}
}