{
  "_format": "hh-sol-artifact-1",
  "contractName": "MedicalRecord2",
  "sourceName": "contracts/MedicalRecord2.sol",
  "abi": [
    {
      "inputs": [],
      "stateMutability": "nonpayable",
      "type": "constructor"
    },
    {
      "anonymous": false,
      "inputs": [
        {
          "indexed": false,
          "internalType": "address",
          "name": "admin",
          "type": "address"
        },
        {
          "indexed": false,
          "internalType": "address",
          "name": "doctor",
          "type": "address"
        }
      ],
      "name": "DrDetailsAdded",
      "type": "event"
    },
    {
      "anonymous": false,
      "inputs": [
        {
          "indexed": false,
          "internalType": "address",
          "name": "dr",
          "type": "address"
        },
        {
          "indexed": false,
          "internalType": "address",
          "name": "patient",
          "type": "address"
        }
      ],
      "name": "GrantAccessToDr",
      "type": "event"
    },
    {
      "anonymous": false,
      "inputs": [
        {
          "indexed": false,
          "internalType": "address",
          "name": "dr",
          "type": "address"
        },
        {
          "indexed": false,
          "internalType": "address",
          "name": "patient",
          "type": "address"
        }
      ],
      "name": "HealthRecordsAdded",
      "type": "event"
    },
    {
      "anonymous": false,
      "inputs": [
        {
          "indexed": false,
          "internalType": "address",
          "name": "admin",
          "type": "address"
        },
        {
          "indexed": false,
          "internalType": "address",
          "name": "patient",
          "type": "address"
        }
      ],
      "name": "PatientDetailsAdded",
      "type": "event"
    },
    {
      "inputs": [
        {
          "internalType": "uint256",
          "name": "",
          "type": "uint256"
        }
      ],
      "name": "DocList",
      "outputs": [
        {
          "internalType": "bool",
          "name": "state",
          "type": "bool"
        },
        {
          "internalType": "address",
          "name": "dr_Id",
          "type": "address"
        },
        {
          "internalType": "uint256",
          "name": "dr_Phn",
          "type": "uint256"
        },
        {
          "internalType": "string",
          "name": "d_Name",
          "type": "string"
        },
        {
          "internalType": "string",
          "name": "d_qual",
          "type": "string"
        },
        {
          "internalType": "string",
          "name": "hosp",
          "type": "string"
        }
      ],
      "stateMutability": "view",
      "type": "function"
    },
    {
      "inputs": [
        {
          "internalType": "uint256",
          "name": "",
          "type": "uint256"
        }
      ],
      "name": "PatientList",
      "outputs": [
        {
          "internalType": "bool",
          "name": "state",
          "type": "bool"
        },
        {
          "internalType": "address",
          "name": "pa_Id",
          "type": "address"
        },
        {
          "internalType": "string",
          "name": "pa_Name",
          "type": "string"
        },
        {
          "internalType": "uint256",
          "name": "pa_phn",
          "type": "uint256"
        }
      ],
      "stateMutability": "view",
      "type": "function"
    },
    {
      "inputs": [],
      "name": "getDocbyName",
      "outputs": [
        {
          "internalType": "address[]",
          "name": "_dr_id",
          "type": "address[]"
        },
        {
          "internalType": "uint256[]",
          "name": "_dr_phn",
          "type": "uint256[]"
        },
        {
          "internalType": "string[]",
          "name": "_hosp",
          "type": "string[]"
        }
      ],
      "stateMutability": "view",
      "type": "function"
    },
    {
      "inputs": [
        {
          "internalType": "string",
          "name": "_name",
          "type": "string"
        }
      ],
      "name": "getDocbyName__mod",
      "outputs": [
        {
          "internalType": "address[]",
          "name": "_dr_id",
          "type": "address[]"
        },
        {
          "internalType": "uint256[]",
          "name": "_dr_phn",
          "type": "uint256[]"
        },
        {
          "internalType": "string[]",
          "name": "_hospN",
          "type": "string[]"
        }
      ],
      "stateMutability": "nonpayable",
      "type": "function"
    },
    {
      "inputs": [
        {
          "internalType": "address",
          "name": "_Id",
          "type": "address"
        }
      ],
      "name": "getDoctorDetails",
      "outputs": [
        {
          "internalType": "bool",
          "name": "_state",
          "type": "bool"
        },
        {
          "internalType": "address",
          "name": "_drId",
          "type": "address"
        },
        {
          "internalType": "string",
          "name": "_name",
          "type": "string"
        },
        {
          "internalType": "uint256",
          "name": "_num",
          "type": "uint256"
        },
        {
          "internalType": "string",
          "name": "_qual",
          "type": "string"
        },
        {
          "internalType": "string",
          "name": "_hosp",
          "type": "string"
        }
      ],
      "stateMutability": "view",
      "type": "function"
    },
    {
      "inputs": [
        {
          "internalType": "address",
          "name": "_Id",
          "type": "address"
        }
      ],
      "name": "getDoctorDetailsForDoc",
      "outputs": [
        {
          "internalType": "bool",
          "name": "_state",
          "type": "bool"
        },
        {
          "internalType": "address",
          "name": "_drId",
          "type": "address"
        },
        {
          "internalType": "string",
          "name": "_name",
          "type": "string"
        },
        {
          "internalType": "uint256",
          "name": "_num",
          "type": "uint256"
        },
        {
          "internalType": "string",
          "name": "_qual",
          "type": "string"
        },
        {
          "internalType": "string",
          "name": "_hosp",
          "type": "string"
        }
      ],
      "stateMutability": "view",
      "type": "function"
    },
    {
      "inputs": [
        {
          "internalType": "address",
          "name": "_dr",
          "type": "address"
        }
      ],
      "name": "getHealthRecords",
      "outputs": [
        {
          "internalType": "string",
          "name": "_drName",
          "type": "string"
        },
        {
          "internalType": "address",
          "name": "_drId",
          "type": "address"
        },
        {
          "internalType": "string",
          "name": "_paName",
          "type": "string"
        },
        {
          "internalType": "address",
          "name": "_paId",
          "type": "address"
        },
        {
          "internalType": "string",
          "name": "_prescription",
          "type": "string"
        },
        {
          "internalType": "string[]",
          "name": "_rec",
          "type": "string[]"
        },
        {
          "internalType": "string[]",
          "name": "_file",
          "type": "string[]"
        }
      ],
      "stateMutability": "view",
      "type": "function"
    },
    {
      "inputs": [
        {
          "internalType": "address",
          "name": "_paId",
          "type": "address"
        }
      ],
      "name": "getHealthRecordsForDoctor",
      "outputs": [
        {
          "internalType": "string",
          "name": "_drName",
          "type": "string"
        },
        {
          "internalType": "address",
          "name": "_drId",
          "type": "address"
        },
        {
          "internalType": "string",
          "name": "_paName",
          "type": "string"
        },
        {
          "internalType": "address",
          "name": "_pId",
          "type": "address"
        },
        {
          "internalType": "string",
          "name": "_prescription",
          "type": "string"
        },
        {
          "internalType": "string[]",
          "name": "_rec",
          "type": "string[]"
        },
        {
          "internalType": "string[]",
          "name": "_files",
          "type": "string[]"
        }
      ],
      "stateMutability": "view",
      "type": "function"
    },
    {
      "inputs": [
        {
          "internalType": "address",
          "name": "_Id",
          "type": "address"
        }
      ],
      "name": "getPatientDetails",
      "outputs": [
        {
          "internalType": "bool",
          "name": "_state",
          "type": "bool"
        },
        {
          "internalType": "address",
          "name": "_paId",
          "type": "address"
        },
        {
          "internalType": "uint256",
          "name": "_paphn",
          "type": "uint256"
        },
        {
          "internalType": "string",
          "name": "_paName",
          "type": "string"
        },
        {
          "internalType": "string[]",
          "name": "_paRecords",
          "type": "string[]"
        },
        {
          "internalType": "string[]",
          "name": "_paFiles",
          "type": "string[]"
        }
      ],
      "stateMutability": "view",
      "type": "function"
    },
    {
      "inputs": [],
      "name": "getPatientbyName",
      "outputs": [
        {
          "internalType": "address[]",
          "name": "_pa_id",
          "type": "address[]"
        },
        {
          "internalType": "uint256[]",
          "name": "_pa_phn",
          "type": "uint256[]"
        }
      ],
      "stateMutability": "view",
      "type": "function"
    },
    {
      "inputs": [
        {
          "internalType": "string",
          "name": "_name",
          "type": "string"
        }
      ],
      "name": "getPatientbyName_mod",
      "outputs": [
        {
          "internalType": "address[]",
          "name": "_dr_id",
          "type": "address[]"
        },
        {
          "internalType": "uint256[]",
          "name": "_dr_phn",
          "type": "uint256[]"
        }
      ],
      "stateMutability": "nonpayable",
      "type": "function"
    },
    {
      "inputs": [
        {
          "internalType": "address",
          "name": "doctor_id",
          "type": "address"
        },
        {
          "internalType": "uint256",
          "name": "access",
          "type": "uint256"
        }
      ],
      "name": "grantAccessToDoctor",
      "outputs": [],
      "stateMutability": "nonpayable",
      "type": "function"
    },
    {
      "inputs": [
        {
          "internalType": "bool",
          "name": "_state",
          "type": "bool"
        },
        {
          "internalType": "address",
          "name": "_drId",
          "type": "address"
        },
        {
          "internalType": "uint256",
          "name": "_num",
          "type": "uint256"
        },
        {
          "internalType": "string",
          "name": "_name",
          "type": "string"
        },
        {
          "internalType": "string",
          "name": "_qual",
          "type": "string"
        },
        {
          "internalType": "string",
          "name": "_hosp",
          "type": "string"
        }
      ],
      "name": "setDoctorDetails",
      "outputs": [],
      "stateMutability": "nonpayable",
      "type": "function"
    },
    {
      "inputs": [
        {
          "internalType": "string",
          "name": "_paName",
          "type": "string"
        },
        {
          "internalType": "address",
          "name": "_paId",
          "type": "address"
        },
        {
          "internalType": "uint256",
          "name": "_phnNum",
          "type": "uint256"
        },
        {
          "internalType": "string",
          "name": "_prescription",
          "type": "string"
        },
        {
          "internalType": "string",
          "name": "_url",
          "type": "string"
        }
      ],
      "name": "setHealthRecordsDetails",
      "outputs": [],
      "stateMutability": "nonpayable",
      "type": "function"
    },
    {
      "inputs": [
        {
          "internalType": "bool",
          "name": "_state",
          "type": "bool"
        },
        {
          "internalType": "address",
          "name": "_paId",
          "type": "address"
        },
        {
          "internalType": "string",
          "name": "_paName",
          "type": "string"
        },
        {
          "internalType": "uint256",
          "name": "_phnNum",
          "type": "uint256"
        },
        {
          "internalType": "string[]",
          "name": "_paRecords",
          "type": "string[]"
        },
        {
          "internalType": "string[]",
          "name": "_paFiles",
          "type": "string[]"
        }
      ],
      "name": "setPatientDetails",
      "outputs": [],
      "stateMutability": "nonpayable",
      "type": "function"
    }
  ],
  "bytecode": "0x608060405234801561001057600080fd5b5033600460006101000a81548173ffffffffffffffffffffffffffffffffffffffff021916908373ffffffffffffffffffffffffffffffffffffffff160217905550615aaa80620000626000396000f3fe608060405234801561001057600080fd5b50600436106100f55760003560e01c80637827c01a11610097578063bab90dbd11610066578063bab90dbd146102c3578063dd4f592b146102f8578063efe2ccc114610314578063f83009ba14610349576100f5565b80637827c01a1461021d57806382d78020146102535780638641072414610273578063b83a5a94146102a4576100f5565b80633bda950d116100d35780633bda950d14610194578063506f1773146101b05780635f6fff7b146101cc578063658caa6a14610201576100f5565b8063169b14ab146100fa5780631ce8e4551461012f5780632df85dc514610162575b600080fd5b610114600480360381019061010f9190614680565b61037f565b60405161012696959493929190614780565b60405180910390f35b61014960048036038101906101449190614822565b610784565b604051610159949392919061484f565b60405180910390f35b61017c600480360381019061017791906149d0565b610879565b60405161018b93929190614ca1565b60405180910390f35b6101ae60048036038101906101a99190614ced565b610d4e565b005b6101ca60048036038101906101c59190614dbc565b611b2f565b005b6101e660048036038101906101e19190614822565b611c83565b6040516101f896959493929190614dfc565b60405180910390f35b61021b60048036038101906102169190614f84565b611e94565b005b61023760048036038101906102329190614680565b6121e5565b60405161024a9796959493929190615065565b60405180910390f35b61025b6129a6565b60405161026a93929190614ca1565b60405180910390f35b61028d600480360381019061028891906149d0565b612b69565b60405161029b9291906150f7565b60405180910390f35b6102ac612ea5565b6040516102ba9291906150f7565b60405180910390f35b6102dd60048036038101906102d89190614680565b612f8e565b6040516102ef96959493929190614780565b60405180910390f35b610312600480360381019061030d919061512e565b61338e565b005b61032e60048036038101906103299190614680565b6136bd565b6040516103409695949392919061520f565b60405180910390f35b610363600480360381019061035e9190614680565b613bde565b6040516103769796959493929190615065565b60405180910390f35b60008060606000606080600115156000803373ffffffffffffffffffffffffffffffffffffffff1673ffffffffffffffffffffffffffffffffffffffff16815260200190815260200160002060000160009054906101000a900460ff1615151461041e576040517f08c379a0000000000000000000000000000000000000000000000000000000008152600401610415906152d1565b60405180910390fd5b6000808873ffffffffffffffffffffffffffffffffffffffff1673ffffffffffffffffffffffffffffffffffffffff16815260200190815260200160002060000160009054906101000a900460ff1695506000808873ffffffffffffffffffffffffffffffffffffffff1673ffffffffffffffffffffffffffffffffffffffff16815260200190815260200160002060000160019054906101000a900473ffffffffffffffffffffffffffffffffffffffff1694506000808873ffffffffffffffffffffffffffffffffffffffff1673ffffffffffffffffffffffffffffffffffffffff168152602001908152602001600020600201805461051f90615320565b80601f016020809104026020016040519081016040528092919081815260200182805461054b90615320565b80156105985780601f1061056d57610100808354040283529160200191610598565b820191906000526020600020905b81548152906001019060200180831161057b57829003601f168201915b505050505093506000808873ffffffffffffffffffffffffffffffffffffffff1673ffffffffffffffffffffffffffffffffffffffff1681526020019081526020016000206001015492506000808873ffffffffffffffffffffffffffffffffffffffff1673ffffffffffffffffffffffffffffffffffffffff168152602001908152602001600020600301805461062f90615320565b80601f016020809104026020016040519081016040528092919081815260200182805461065b90615320565b80156106a85780601f1061067d576101008083540402835291602001916106a8565b820191906000526020600020905b81548152906001019060200180831161068b57829003601f168201915b505050505091506000808873ffffffffffffffffffffffffffffffffffffffff1673ffffffffffffffffffffffffffffffffffffffff16815260200190815260200160002060040180546106fb90615320565b80601f016020809104026020016040519081016040528092919081815260200182805461072790615320565b80156107745780601f1061074957610100808354040283529160200191610774565b820191906000526020600020905b81548152906001019060200180831161075757829003601f168201915b5050505050905091939550919395565b6006818154811061079457600080fd5b90600052602060002090600502016000915090508060000160009054906101000a900460ff16908060000160019054906101000a900473ffffffffffffffffffffffffffffffffffffffff16908060010180546107f090615320565b80601f016020809104026020016040519081016040528092919081815260200182805461081c90615320565b80156108695780601f1061083e57610100808354040283529160200191610869565b820191906000526020600020905b81548152906001019060200180831161084c57829003601f168201915b5050505050908060020154905084565b6060806060600067ffffffffffffffff811115610899576108986148a5565b5b6040519080825280602002602001820160405280156108c75781602001602082028036833780820191505090505b50600790805190602001906108dd92919061445d565b50600067ffffffffffffffff8111156108f9576108f86148a5565b5b6040519080825280602002602001820160405280156109275781602001602082028036833780820191505090505b506008908051906020019061093d9291906144e7565b50600067ffffffffffffffff811115610959576109586148a5565b5b60405190808252806020026020018201604052801561098c57816020015b60608152602001906001900390816109775790505b50600990805190602001906109a2929190614534565b5060005b600580549050811015610b8d57600581815481106109c7576109c6615351565b5b90600052602060002090600502016002016040516020016109e89190615423565b6040516020818303038152906040528051906020012085604051602001610a0f919061546b565b6040516020818303038152906040528051906020012003610b7a57600760058281548110610a4057610a3f615351565b5b906000526020600020906005020160000160019054906101000a900473ffffffffffffffffffffffffffffffffffffffff169080600181540180825580915050600190039060005260206000200160009091909190916101000a81548173ffffffffffffffffffffffffffffffffffffffff021916908373ffffffffffffffffffffffffffffffffffffffff160217905550600860058281548110610ae857610ae7615351565b5b9060005260206000209060050201600101549080600181540180825580915050600190039060005260206000200160009091909190915055600960058281548110610b3657610b35615351565b5b9060005260206000209060050201600401908060018154018082558091505060019003906000526020600020016000909190919091509081610b789190615644565b505b8080610b859061575b565b9150506109a6565b5060076008600982805480602002602001604051908101604052809291908181526020018280548015610c1557602002820191906000526020600020905b8160009054906101000a900473ffffffffffffffffffffffffffffffffffffffff1673ffffffffffffffffffffffffffffffffffffffff1681526020019060010190808311610bcb575b5050505050925081805480602002602001604051908101604052809291908181526020018280548015610c6757602002820191906000526020600020905b815481526020019060010190808311610c53575b5050505050915080805480602002602001604051908101604052809291908181526020016000905b82821015610d3b578382906000526020600020018054610cae90615320565b80601f0160208091040260200160405190810160405280929190818152602001828054610cda90615320565b8015610d275780601f10610cfc57610100808354040283529160200191610d27565b820191906000526020600020905b815481529060010190602001808311610d0a57829003601f168201915b505050505081526020019060010190610c8f565b5050505090509250925092509193909250565b600115156000803373ffffffffffffffffffffffffffffffffffffffff1673ffffffffffffffffffffffffffffffffffffffff16815260200190815260200160002060000160009054906101000a900460ff16151514610de3576040517f08c379a0000000000000000000000000000000000000000000000000000000008152600401610dda906152d1565b60405180910390fd5b6001600360008673ffffffffffffffffffffffffffffffffffffffff1673ffffffffffffffffffffffffffffffffffffffff16815260200190815260200160002060003373ffffffffffffffffffffffffffffffffffffffff1673ffffffffffffffffffffffffffffffffffffffff1681526020019081526020016000208190555060018060003373ffffffffffffffffffffffffffffffffffffffff1673ffffffffffffffffffffffffffffffffffffffff16815260200190815260200160002060000160006101000a81548160ff0219169083151502179055506000803373ffffffffffffffffffffffffffffffffffffffff1673ffffffffffffffffffffffffffffffffffffffff168152602001908152602001600020600201600260003373ffffffffffffffffffffffffffffffffffffffff1673ffffffffffffffffffffffffffffffffffffffff16815260200190815260200160002060008673ffffffffffffffffffffffffffffffffffffffff1673ffffffffffffffffffffffffffffffffffffffff1681526020019081526020016000206000016002019081610f8e9190615644565b506000803373ffffffffffffffffffffffffffffffffffffffff1673ffffffffffffffffffffffffffffffffffffffff16815260200190815260200160002060000160019054906101000a900473ffffffffffffffffffffffffffffffffffffffff16600260003373ffffffffffffffffffffffffffffffffffffffff1673ffffffffffffffffffffffffffffffffffffffff16815260200190815260200160002060008673ffffffffffffffffffffffffffffffffffffffff1673ffffffffffffffffffffffffffffffffffffffff16815260200190815260200160002060000160000160016101000a81548173ffffffffffffffffffffffffffffffffffffffff021916908373ffffffffffffffffffffffffffffffffffffffff1602179055506001600260003373ffffffffffffffffffffffffffffffffffffffff1673ffffffffffffffffffffffffffffffffffffffff16815260200190815260200160002060008673ffffffffffffffffffffffffffffffffffffffff1673ffffffffffffffffffffffffffffffffffffffff16815260200190815260200160002060050160000160006101000a81548160ff02191690831515021790555083600260003373ffffffffffffffffffffffffffffffffffffffff1673ffffffffffffffffffffffffffffffffffffffff16815260200190815260200160002060008673ffffffffffffffffffffffffffffffffffffffff1673ffffffffffffffffffffffffffffffffffffffff16815260200190815260200160002060050160000160016101000a81548173ffffffffffffffffffffffffffffffffffffffff021916908373ffffffffffffffffffffffffffffffffffffffff16021790555084600260003373ffffffffffffffffffffffffffffffffffffffff1673ffffffffffffffffffffffffffffffffffffffff16815260200190815260200160002060008673ffffffffffffffffffffffffffffffffffffffff1673ffffffffffffffffffffffffffffffffffffffff168152602001908152602001600020600501600101908161129c91906157a3565b5082600260003373ffffffffffffffffffffffffffffffffffffffff1673ffffffffffffffffffffffffffffffffffffffff16815260200190815260200160002060008673ffffffffffffffffffffffffffffffffffffffff1673ffffffffffffffffffffffffffffffffffffffff1681526020019081526020016000206005016002018190555081600260003373ffffffffffffffffffffffffffffffffffffffff1673ffffffffffffffffffffffffffffffffffffffff16815260200190815260200160002060008673ffffffffffffffffffffffffffffffffffffffff1673ffffffffffffffffffffffffffffffffffffffff168152602001908152602001600020600a0160000190816113b391906157a3565b50600260003373ffffffffffffffffffffffffffffffffffffffff1673ffffffffffffffffffffffffffffffffffffffff16815260200190815260200160002060008573ffffffffffffffffffffffffffffffffffffffff1673ffffffffffffffffffffffffffffffffffffffff168152602001908152602001600020600b018290806001815401808255809150506001900390600052602060002001600090919091909150908161146591906157a3565b50600260003373ffffffffffffffffffffffffffffffffffffffff1673ffffffffffffffffffffffffffffffffffffffff16815260200190815260200160002060008573ffffffffffffffffffffffffffffffffffffffff1673ffffffffffffffffffffffffffffffffffffffff168152602001908152602001600020600c018190806001815401808255809150506001900390600052602060002001600090919091909150908161151791906157a3565b50600160008573ffffffffffffffffffffffffffffffffffffffff1673ffffffffffffffffffffffffffffffffffffffff1681526020019081526020016000206003018290806001815401808255809150506001900390600052602060002001600090919091909150908161158c91906157a3565b50600160008573ffffffffffffffffffffffffffffffffffffffff1673ffffffffffffffffffffffffffffffffffffffff1681526020019081526020016000206004018190806001815401808255809150506001900390600052602060002001600090919091909150908161160191906157a3565b50611aef600260003373ffffffffffffffffffffffffffffffffffffffff1673ffffffffffffffffffffffffffffffffffffffff16815260200190815260200160002060008673ffffffffffffffffffffffffffffffffffffffff1673ffffffffffffffffffffffffffffffffffffffff16815260200190815260200160002060050160000160009054906101000a900460ff16600260003373ffffffffffffffffffffffffffffffffffffffff1673ffffffffffffffffffffffffffffffffffffffff16815260200190815260200160002060008773ffffffffffffffffffffffffffffffffffffffff1673ffffffffffffffffffffffffffffffffffffffff16815260200190815260200160002060050160000160019054906101000a900473ffffffffffffffffffffffffffffffffffffffff16600260003373ffffffffffffffffffffffffffffffffffffffff1673ffffffffffffffffffffffffffffffffffffffff16815260200190815260200160002060008873ffffffffffffffffffffffffffffffffffffffff1673ffffffffffffffffffffffffffffffffffffffff16815260200190815260200160002060050160010180546117c590615320565b80601f01602080910402602001604051908101604052809291908181526020018280546117f190615320565b801561183e5780601f106118135761010080835404028352916020019161183e565b820191906000526020600020905b81548152906001019060200180831161182157829003601f168201915b5050505050600260003373ffffffffffffffffffffffffffffffffffffffff1673ffffffffffffffffffffffffffffffffffffffff16815260200190815260200160002060008973ffffffffffffffffffffffffffffffffffffffff1673ffffffffffffffffffffffffffffffffffffffff16815260200190815260200160002060050160020154600160008a73ffffffffffffffffffffffffffffffffffffffff1673ffffffffffffffffffffffffffffffffffffffff168152602001908152602001600020600301805480602002602001604051908101604052809291908181526020016000905b828210156119d457838290600052602060002001805461194790615320565b80601f016020809104026020016040519081016040528092919081815260200182805461197390615320565b80156119c05780601f10611995576101008083540402835291602001916119c0565b820191906000526020600020905b8154815290600101906020018083116119a357829003601f168201915b505050505081526020019060010190611928565b50505050600160008b73ffffffffffffffffffffffffffffffffffffffff1673ffffffffffffffffffffffffffffffffffffffff168152602001908152602001600020600401805480602002602001604051908101604052809291908181526020016000905b82821015611ae6578382906000526020600020018054611a5990615320565b80601f0160208091040260200160405190810160405280929190818152602001828054611a8590615320565b8015611ad25780601f10611aa757610100808354040283529160200191611ad2565b820191906000526020600020905b815481529060010190602001808311611ab557829003601f168201915b505050505081526020019060010190611a3a565b50505050611e94565b7ffd09d3da0077a9ed9d4af05531b2f844c840c94c1e6535e3d2a09a6ae1aa9a523385604051611b20929190615875565b60405180910390a15050505050565b60011515600160003373ffffffffffffffffffffffffffffffffffffffff1673ffffffffffffffffffffffffffffffffffffffff16815260200190815260200160002060000160009054906101000a900460ff16151514611bc5576040517f08c379a0000000000000000000000000000000000000000000000000000000008152600401611bbc906158ea565b60405180910390fd5b80600360003373ffffffffffffffffffffffffffffffffffffffff1673ffffffffffffffffffffffffffffffffffffffff16815260200190815260200160002060008473ffffffffffffffffffffffffffffffffffffffff1673ffffffffffffffffffffffffffffffffffffffff168152602001908152602001600020819055507f19dd02d0615ff9058c55159271b51d3d8ead87b40cc392e6dbeca6483cff33338233604051611c77929190615875565b60405180910390a15050565b60058181548110611c9357600080fd5b90600052602060002090600502016000915090508060000160009054906101000a900460ff16908060000160019054906101000a900473ffffffffffffffffffffffffffffffffffffffff1690806001015490806002018054611cf590615320565b80601f0160208091040260200160405190810160405280929190818152602001828054611d2190615320565b8015611d6e5780601f10611d4357610100808354040283529160200191611d6e565b820191906000526020600020905b815481529060010190602001808311611d5157829003601f168201915b505050505090806003018054611d8390615320565b80601f0160208091040260200160405190810160405280929190818152602001828054611daf90615320565b8015611dfc5780601f10611dd157610100808354040283529160200191611dfc565b820191906000526020600020905b815481529060010190602001808311611ddf57829003601f168201915b505050505090806004018054611e1190615320565b80601f0160208091040260200160405190810160405280929190818152602001828054611e3d90615320565b8015611e8a5780601f10611e5f57610100808354040283529160200191611e8a565b820191906000526020600020905b815481529060010190602001808311611e6d57829003601f168201915b5050505050905086565b600115156000803373ffffffffffffffffffffffffffffffffffffffff1673ffffffffffffffffffffffffffffffffffffffff16815260200190815260200160002060000160009054906101000a900460ff16151514611f29576040517f08c379a0000000000000000000000000000000000000000000000000000000008152600401611f20906152d1565b60405180910390fd5b6040518060c0016040528087151581526020018673ffffffffffffffffffffffffffffffffffffffff16815260200185815260200184815260200183815260200182815250600160008773ffffffffffffffffffffffffffffffffffffffff1673ffffffffffffffffffffffffffffffffffffffff16815260200190815260200160002060008201518160000160006101000a81548160ff02191690831515021790555060208201518160000160016101000a81548173ffffffffffffffffffffffffffffffffffffffff021916908373ffffffffffffffffffffffffffffffffffffffff160217905550604082015181600101908161202991906157a3565b50606082015181600201556080820151816003019080519060200190612050929190614534565b5060a082015181600401908051906020019061206d929190614534565b5090505060066040518060c0016040528088151581526020018773ffffffffffffffffffffffffffffffffffffffff16815260200186815260200185815260200184815260200183815250908060018154018082558091505060019003906000526020600020906005020160009091909190915060008201518160000160006101000a81548160ff02191690831515021790555060208201518160000160016101000a81548173ffffffffffffffffffffffffffffffffffffffff021916908373ffffffffffffffffffffffffffffffffffffffff160217905550604082015181600101908161215d91906157a3565b50606082015181600201556080820151816003019080519060200190612184929190614534565b5060a08201518160040190805190602001906121a1929190614534565b5050507f83c041d3aeb1dcb1f28cb15e20bdfee5ed1ca3740e487f9cab72e13eeb85950533866040516121d5929190615875565b60405180910390a1505050505050565b6060600060606000606080606060011515600160003373ffffffffffffffffffffffffffffffffffffffff1673ffffffffffffffffffffffffffffffffffffffff16815260200190815260200160002060000160009054906101000a900460ff16151514612288576040517f08c379a000000000000000000000000000000000000000000000000000000000815260040161227f906158ea565b60405180910390fd5b600260008973ffffffffffffffffffffffffffffffffffffffff1673ffffffffffffffffffffffffffffffffffffffff16815260200190815260200160002060003373ffffffffffffffffffffffffffffffffffffffff1673ffffffffffffffffffffffffffffffffffffffff168152602001908152602001600020600001600201805461231590615320565b80601f016020809104026020016040519081016040528092919081815260200182805461234190615320565b801561238e5780601f106123635761010080835404028352916020019161238e565b820191906000526020600020905b81548152906001019060200180831161237157829003601f168201915b50505050509650600260008973ffffffffffffffffffffffffffffffffffffffff1673ffffffffffffffffffffffffffffffffffffffff16815260200190815260200160002060003373ffffffffffffffffffffffffffffffffffffffff1673ffffffffffffffffffffffffffffffffffffffff16815260200190815260200160002060000160000160019054906101000a900473ffffffffffffffffffffffffffffffffffffffff169550600260008973ffffffffffffffffffffffffffffffffffffffff1673ffffffffffffffffffffffffffffffffffffffff16815260200190815260200160002060003373ffffffffffffffffffffffffffffffffffffffff1673ffffffffffffffffffffffffffffffffffffffff16815260200190815260200160002060050160010180546124c790615320565b80601f01602080910402602001604051908101604052809291908181526020018280546124f390615320565b80156125405780601f1061251557610100808354040283529160200191612540565b820191906000526020600020905b81548152906001019060200180831161252357829003601f168201915b50505050509450600260008973ffffffffffffffffffffffffffffffffffffffff1673ffffffffffffffffffffffffffffffffffffffff16815260200190815260200160002060003373ffffffffffffffffffffffffffffffffffffffff1673ffffffffffffffffffffffffffffffffffffffff16815260200190815260200160002060050160000160019054906101000a900473ffffffffffffffffffffffffffffffffffffffff169350600260008973ffffffffffffffffffffffffffffffffffffffff1673ffffffffffffffffffffffffffffffffffffffff16815260200190815260200160002060003373ffffffffffffffffffffffffffffffffffffffff1673ffffffffffffffffffffffffffffffffffffffff168152602001908152602001600020600a01600001805461267990615320565b80601f01602080910402602001604051908101604052809291908181526020018280546126a590615320565b80156126f25780601f106126c7576101008083540402835291602001916126f2565b820191906000526020600020905b8154815290600101906020018083116126d557829003601f168201915b50505050509250600260008973ffffffffffffffffffffffffffffffffffffffff1673ffffffffffffffffffffffffffffffffffffffff16815260200190815260200160002060003373ffffffffffffffffffffffffffffffffffffffff1673ffffffffffffffffffffffffffffffffffffffff168152602001908152602001600020600b01805480602002602001604051908101604052809291908181526020016000905b828210156128445783829060005260206000200180546127b790615320565b80601f01602080910402602001604051908101604052809291908181526020018280546127e390615320565b80156128305780601f1061280557610100808354040283529160200191612830565b820191906000526020600020905b81548152906001019060200180831161281357829003601f168201915b505050505081526020019060010190612798565b505050509150600260008973ffffffffffffffffffffffffffffffffffffffff1673ffffffffffffffffffffffffffffffffffffffff16815260200190815260200160002060003373ffffffffffffffffffffffffffffffffffffffff1673ffffffffffffffffffffffffffffffffffffffff168152602001908152602001600020600c01805480602002602001604051908101604052809291908181526020016000905b8282101561299557838290600052602060002001805461290890615320565b80601f016020809104026020016040519081016040528092919081815260200182805461293490615320565b80156129815780601f1061295657610100808354040283529160200191612981565b820191906000526020600020905b81548152906001019060200180831161296457829003601f168201915b5050505050815260200190600101906128e9565b505050509050919395979092949650565b606080606060076008600982805480602002602001604051908101604052809291908181526020018280548015612a3257602002820191906000526020600020905b8160009054906101000a900473ffffffffffffffffffffffffffffffffffffffff1673ffffffffffffffffffffffffffffffffffffffff16815260200190600101908083116129e8575b5050505050925081805480602002602001604051908101604052809291908181526020018280548015612a8457602002820191906000526020600020905b815481526020019060010190808311612a70575b5050505050915080805480602002602001604051908101604052809291908181526020016000905b82821015612b58578382906000526020600020018054612acb90615320565b80601f0160208091040260200160405190810160405280929190818152602001828054612af790615320565b8015612b445780601f10612b1957610100808354040283529160200191612b44565b820191906000526020600020905b815481529060010190602001808311612b2757829003601f168201915b505050505081526020019060010190612aac565b505050509050925092509250909192565b606080600067ffffffffffffffff811115612b8757612b866148a5565b5b604051908082528060200260200182016040528015612bb55781602001602082028036833780820191505090505b50600a9080519060200190612bcb92919061445d565b50600067ffffffffffffffff811115612be757612be66148a5565b5b604051908082528060200260200182016040528015612c155781602001602082028036833780820191505090505b50600b9080519060200190612c2b9291906144e7565b5060005b600680549050811015612dbd5760068181548110612c5057612c4f615351565b5b9060005260206000209060050201600101604051602001612c719190615423565b6040516020818303038152906040528051906020012084604051602001612c98919061546b565b6040516020818303038152906040528051906020012003612daa57600a60068281548110612cc957612cc8615351565b5b906000526020600020906005020160000160019054906101000a900473ffffffffffffffffffffffffffffffffffffffff169080600181540180825580915050600190039060005260206000200160009091909190916101000a81548173ffffffffffffffffffffffffffffffffffffffff021916908373ffffffffffffffffffffffffffffffffffffffff160217905550600b60068281548110612d7157612d70615351565b5b90600052602060002090600502016002015490806001815401808255809150506001900390600052602060002001600090919091909150555b8080612db59061575b565b915050612c2f565b50600a600b81805480602002602001604051908101604052809291908181526020018280548015612e4357602002820191906000526020600020905b8160009054906101000a900473ffffffffffffffffffffffffffffffffffffffff1673ffffffffffffffffffffffffffffffffffffffff1681526020019060010190808311612df9575b5050505050915080805480602002602001604051908101604052809291908181526020018280548015612e9557602002820191906000526020600020905b815481526020019060010190808311612e81575b5050505050905091509150915091565b606080600a600b81805480602002602001604051908101604052809291908181526020018280548015612f2d57602002820191906000526020600020905b8160009054906101000a900473ffffffffffffffffffffffffffffffffffffffff1673ffffffffffffffffffffffffffffffffffffffff1681526020019060010190808311612ee3575b5050505050915080805480602002602001604051908101604052809291908181526020018280548015612f7f57602002820191906000526020600020905b815481526020019060010190808311612f6b575b50505050509050915091509091565b60008060606000606080600460009054906101000a900473ffffffffffffffffffffffffffffffffffffffff1673ffffffffffffffffffffffffffffffffffffffff163373ffffffffffffffffffffffffffffffffffffffff1614613028576040517f08c379a000000000000000000000000000000000000000000000000000000000815260040161301f90615956565b60405180910390fd5b6000808873ffffffffffffffffffffffffffffffffffffffff1673ffffffffffffffffffffffffffffffffffffffff16815260200190815260200160002060000160009054906101000a900460ff1695506000808873ffffffffffffffffffffffffffffffffffffffff1673ffffffffffffffffffffffffffffffffffffffff16815260200190815260200160002060000160019054906101000a900473ffffffffffffffffffffffffffffffffffffffff1694506000808873ffffffffffffffffffffffffffffffffffffffff1673ffffffffffffffffffffffffffffffffffffffff168152602001908152602001600020600201805461312990615320565b80601f016020809104026020016040519081016040528092919081815260200182805461315590615320565b80156131a25780601f10613177576101008083540402835291602001916131a2565b820191906000526020600020905b81548152906001019060200180831161318557829003601f168201915b505050505093506000808873ffffffffffffffffffffffffffffffffffffffff1673ffffffffffffffffffffffffffffffffffffffff1681526020019081526020016000206001015492506000808873ffffffffffffffffffffffffffffffffffffffff1673ffffffffffffffffffffffffffffffffffffffff168152602001908152602001600020600301805461323990615320565b80601f016020809104026020016040519081016040528092919081815260200182805461326590615320565b80156132b25780601f10613287576101008083540402835291602001916132b2565b820191906000526020600020905b81548152906001019060200180831161329557829003601f168201915b505050505091506000808873ffffffffffffffffffffffffffffffffffffffff1673ffffffffffffffffffffffffffffffffffffffff168152602001908152602001600020600401805461330590615320565b80601f016020809104026020016040519081016040528092919081815260200182805461333190615320565b801561337e5780601f106133535761010080835404028352916020019161337e565b820191906000526020600020905b81548152906001019060200180831161336157829003601f168201915b5050505050905091939550919395565b600460009054906101000a900473ffffffffffffffffffffffffffffffffffffffff1673ffffffffffffffffffffffffffffffffffffffff163373ffffffffffffffffffffffffffffffffffffffff161461341e576040517f08c379a000000000000000000000000000000000000000000000000000000000815260040161341590615956565b60405180910390fd5b60056040518060c0016040528088151581526020018773ffffffffffffffffffffffffffffffffffffffff16815260200186815260200185815260200184815260200183815250908060018154018082558091505060019003906000526020600020906005020160009091909190915060008201518160000160006101000a81548160ff02191690831515021790555060208201518160000160016101000a81548173ffffffffffffffffffffffffffffffffffffffff021916908373ffffffffffffffffffffffffffffffffffffffff16021790555060408201518160010155606082015181600201908161351491906157a3565b50608082015181600301908161352a91906157a3565b5060a082015181600401908161354091906157a3565b5050506040518060c0016040528087151581526020018673ffffffffffffffffffffffffffffffffffffffff168152602001858152602001848152602001838152602001828152506000808773ffffffffffffffffffffffffffffffffffffffff1673ffffffffffffffffffffffffffffffffffffffff16815260200190815260200160002060008201518160000160006101000a81548160ff02191690831515021790555060208201518160000160016101000a81548173ffffffffffffffffffffffffffffffffffffffff021916908373ffffffffffffffffffffffffffffffffffffffff16021790555060408201518160010155606082015181600201908161364c91906157a3565b50608082015181600301908161366291906157a3565b5060a082015181600401908161367891906157a3565b509050507f83c041d3aeb1dcb1f28cb15e20bdfee5ed1ca3740e487f9cab72e13eeb85950533866040516136ad929190615875565b60405180910390a1505050505050565b6000806000606080606060011515600160003373ffffffffffffffffffffffffffffffffffffffff1673ffffffffffffffffffffffffffffffffffffffff16815260200190815260200160002060000160009054906101000a900460ff16151514806137a557506001600360008973ffffffffffffffffffffffffffffffffffffffff1673ffffffffffffffffffffffffffffffffffffffff16815260200190815260200160002060003373ffffffffffffffffffffffffffffffffffffffff1673ffffffffffffffffffffffffffffffffffffffff16815260200190815260200160002054145b6137e4576040517f08c379a00000000000000000000000000000000000000000000000000000000081526004016137db906159e8565b60405180910390fd5b600160008873ffffffffffffffffffffffffffffffffffffffff1673ffffffffffffffffffffffffffffffffffffffff16815260200190815260200160002060000160009054906101000a900460ff169550600160008873ffffffffffffffffffffffffffffffffffffffff1673ffffffffffffffffffffffffffffffffffffffff16815260200190815260200160002060000160019054906101000a900473ffffffffffffffffffffffffffffffffffffffff169450600160008873ffffffffffffffffffffffffffffffffffffffff1673ffffffffffffffffffffffffffffffffffffffff168152602001908152602001600020600201549350600160008873ffffffffffffffffffffffffffffffffffffffff1673ffffffffffffffffffffffffffffffffffffffff168152602001908152602001600020600101805461392d90615320565b80601f016020809104026020016040519081016040528092919081815260200182805461395990615320565b80156139a65780601f1061397b576101008083540402835291602001916139a6565b820191906000526020600020905b81548152906001019060200180831161398957829003601f168201915b50505050509250600160008873ffffffffffffffffffffffffffffffffffffffff1673ffffffffffffffffffffffffffffffffffffffff168152602001908152602001600020600301805480602002602001604051908101604052809291908181526020016000905b82821015613abb578382906000526020600020018054613a2e90615320565b80601f0160208091040260200160405190810160405280929190818152602001828054613a5a90615320565b8015613aa75780601f10613a7c57610100808354040283529160200191613aa7565b820191906000526020600020905b815481529060010190602001808311613a8a57829003601f168201915b505050505081526020019060010190613a0f565b505050509150600160008673ffffffffffffffffffffffffffffffffffffffff1673ffffffffffffffffffffffffffffffffffffffff168152602001908152602001600020600401805480602002602001604051908101604052809291908181526020016000905b82821015613bcf578382906000526020600020018054613b4290615320565b80601f0160208091040260200160405190810160405280929190818152602001828054613b6e90615320565b8015613bbb5780601f10613b9057610100808354040283529160200191613bbb565b820191906000526020600020905b815481529060010190602001808311613b9e57829003601f168201915b505050505081526020019060010190613b23565b50505050905091939550919395565b60606000606060006060806060600115156000803373ffffffffffffffffffffffffffffffffffffffff1673ffffffffffffffffffffffffffffffffffffffff16815260200190815260200160002060000160009054906101000a900460ff16151514613c80576040517f08c379a0000000000000000000000000000000000000000000000000000000008152600401613c77906152d1565b60405180910390fd5b6001600360008a73ffffffffffffffffffffffffffffffffffffffff1673ffffffffffffffffffffffffffffffffffffffff16815260200190815260200160002060003373ffffffffffffffffffffffffffffffffffffffff1673ffffffffffffffffffffffffffffffffffffffff1681526020019081526020016000205414613d3f576040517f08c379a0000000000000000000000000000000000000000000000000000000008152600401613d3690615a54565b60405180910390fd5b600260003373ffffffffffffffffffffffffffffffffffffffff1673ffffffffffffffffffffffffffffffffffffffff16815260200190815260200160002060008973ffffffffffffffffffffffffffffffffffffffff1673ffffffffffffffffffffffffffffffffffffffff1681526020019081526020016000206000016002018054613dcc90615320565b80601f0160208091040260200160405190810160405280929190818152602001828054613df890615320565b8015613e455780601f10613e1a57610100808354040283529160200191613e45565b820191906000526020600020905b815481529060010190602001808311613e2857829003601f168201915b50505050509650600260003373ffffffffffffffffffffffffffffffffffffffff1673ffffffffffffffffffffffffffffffffffffffff16815260200190815260200160002060008973ffffffffffffffffffffffffffffffffffffffff1673ffffffffffffffffffffffffffffffffffffffff16815260200190815260200160002060000160000160019054906101000a900473ffffffffffffffffffffffffffffffffffffffff169550600260003373ffffffffffffffffffffffffffffffffffffffff1673ffffffffffffffffffffffffffffffffffffffff16815260200190815260200160002060008973ffffffffffffffffffffffffffffffffffffffff1673ffffffffffffffffffffffffffffffffffffffff1681526020019081526020016000206005016001018054613f7e90615320565b80601f0160208091040260200160405190810160405280929190818152602001828054613faa90615320565b8015613ff75780601f10613fcc57610100808354040283529160200191613ff7565b820191906000526020600020905b815481529060010190602001808311613fda57829003601f168201915b50505050509450600260003373ffffffffffffffffffffffffffffffffffffffff1673ffffffffffffffffffffffffffffffffffffffff16815260200190815260200160002060008973ffffffffffffffffffffffffffffffffffffffff1673ffffffffffffffffffffffffffffffffffffffff16815260200190815260200160002060050160000160019054906101000a900473ffffffffffffffffffffffffffffffffffffffff169350600260003373ffffffffffffffffffffffffffffffffffffffff1673ffffffffffffffffffffffffffffffffffffffff16815260200190815260200160002060008973ffffffffffffffffffffffffffffffffffffffff1673ffffffffffffffffffffffffffffffffffffffff168152602001908152602001600020600a01600001805461413090615320565b80601f016020809104026020016040519081016040528092919081815260200182805461415c90615320565b80156141a95780601f1061417e576101008083540402835291602001916141a9565b820191906000526020600020905b81548152906001019060200180831161418c57829003601f168201915b50505050509250600260003373ffffffffffffffffffffffffffffffffffffffff1673ffffffffffffffffffffffffffffffffffffffff16815260200190815260200160002060008973ffffffffffffffffffffffffffffffffffffffff1673ffffffffffffffffffffffffffffffffffffffff168152602001908152602001600020600b01805480602002602001604051908101604052809291908181526020016000905b828210156142fb57838290600052602060002001805461426e90615320565b80601f016020809104026020016040519081016040528092919081815260200182805461429a90615320565b80156142e75780601f106142bc576101008083540402835291602001916142e7565b820191906000526020600020905b8154815290600101906020018083116142ca57829003601f168201915b50505050508152602001906001019061424f565b505050509150600260003373ffffffffffffffffffffffffffffffffffffffff1673ffffffffffffffffffffffffffffffffffffffff16815260200190815260200160002060008973ffffffffffffffffffffffffffffffffffffffff1673ffffffffffffffffffffffffffffffffffffffff168152602001908152602001600020600c01805480602002602001604051908101604052809291908181526020016000905b8282101561444c5783829060005260206000200180546143bf90615320565b80601f01602080910402602001604051908101604052809291908181526020018280546143eb90615320565b80156144385780601f1061440d57610100808354040283529160200191614438565b820191906000526020600020905b81548152906001019060200180831161441b57829003601f168201915b5050505050815260200190600101906143a0565b505050509050919395979092949650565b8280548282559060005260206000209081019282156144d6579160200282015b828111156144d55782518260006101000a81548173ffffffffffffffffffffffffffffffffffffffff021916908373ffffffffffffffffffffffffffffffffffffffff1602179055509160200191906001019061447d565b5b5090506144e3919061458d565b5090565b828054828255906000526020600020908101928215614523579160200282015b82811115614522578251825591602001919060010190614507565b5b509050614530919061458d565b5090565b82805482825590600052602060002090810192821561457c579160200282015b8281111561457b57825182908161456b91906157a3565b5091602001919060010190614554565b5b50905061458991906145aa565b5090565b5b808211156145a657600081600090555060010161458e565b5090565b5b808211156145ca57600081816145c191906145ce565b506001016145ab565b5090565b5080546145da90615320565b6000825580601f106145ec575061460b565b601f01602090049060005260206000209081019061460a919061458d565b5b50565b6000604051905090565b600080fd5b600080fd5b600073ffffffffffffffffffffffffffffffffffffffff82169050919050565b600061464d82614622565b9050919050565b61465d81614642565b811461466857600080fd5b50565b60008135905061467a81614654565b92915050565b60006020828403121561469657614695614618565b5b60006146a48482850161466b565b91505092915050565b60008115159050919050565b6146c2816146ad565b82525050565b6146d181614642565b82525050565b600081519050919050565b600082825260208201905092915050565b60005b838110156147115780820151818401526020810190506146f6565b60008484015250505050565b6000601f19601f8301169050919050565b6000614739826146d7565b61474381856146e2565b93506147538185602086016146f3565b61475c8161471d565b840191505092915050565b6000819050919050565b61477a81614767565b82525050565b600060c08201905061479560008301896146b9565b6147a260208301886146c8565b81810360408301526147b4818761472e565b90506147c36060830186614771565b81810360808301526147d5818561472e565b905081810360a08301526147e9818461472e565b9050979650505050505050565b6147ff81614767565b811461480a57600080fd5b50565b60008135905061481c816147f6565b92915050565b60006020828403121561483857614837614618565b5b60006148468482850161480d565b91505092915050565b600060808201905061486460008301876146b9565b61487160208301866146c8565b8181036040830152614883818561472e565b90506148926060830184614771565b95945050505050565b600080fd5b600080fd5b7f4e487b7100000000000000000000000000000000000000000000000000000000600052604160045260246000fd5b6148dd8261471d565b810181811067ffffffffffffffff821117156148fc576148fb6148a5565b5b80604052505050565b600061490f61460e565b905061491b82826148d4565b919050565b600067ffffffffffffffff82111561493b5761493a6148a5565b5b6149448261471d565b9050602081019050919050565b82818337600083830152505050565b600061497361496e84614920565b614905565b90508281526020810184848401111561498f5761498e6148a0565b5b61499a848285614951565b509392505050565b600082601f8301126149b7576149b661489b565b5b81356149c7848260208601614960565b91505092915050565b6000602082840312156149e6576149e5614618565b5b600082013567ffffffffffffffff811115614a0457614a0361461d565b5b614a10848285016149a2565b91505092915050565b600081519050919050565b600082825260208201905092915050565b6000819050602082019050919050565b614a4e81614642565b82525050565b6000614a608383614a45565b60208301905092915050565b6000602082019050919050565b6000614a8482614a19565b614a8e8185614a24565b9350614a9983614a35565b8060005b83811015614aca578151614ab18882614a54565b9750614abc83614a6c565b925050600181019050614a9d565b5085935050505092915050565b600081519050919050565b600082825260208201905092915050565b6000819050602082019050919050565b614b0c81614767565b82525050565b6000614b1e8383614b03565b60208301905092915050565b6000602082019050919050565b6000614b4282614ad7565b614b4c8185614ae2565b9350614b5783614af3565b8060005b83811015614b88578151614b6f8882614b12565b9750614b7a83614b2a565b925050600181019050614b5b565b5085935050505092915050565b600081519050919050565b600082825260208201905092915050565b6000819050602082019050919050565b600082825260208201905092915050565b6000614bdd826146d7565b614be78185614bc1565b9350614bf78185602086016146f3565b614c008161471d565b840191505092915050565b6000614c178383614bd2565b905092915050565b6000602082019050919050565b6000614c3782614b95565b614c418185614ba0565b935083602082028501614c5385614bb1565b8060005b85811015614c8f5784840389528151614c708582614c0b565b9450614c7b83614c1f565b925060208a01995050600181019050614c57565b50829750879550505050505092915050565b60006060820190508181036000830152614cbb8186614a79565b90508181036020830152614ccf8185614b37565b90508181036040830152614ce38184614c2c565b9050949350505050565b600080600080600060a08688031215614d0957614d08614618565b5b600086013567ffffffffffffffff811115614d2757614d2661461d565b5b614d33888289016149a2565b9550506020614d448882890161466b565b9450506040614d558882890161480d565b935050606086013567ffffffffffffffff811115614d7657614d7561461d565b5b614d82888289016149a2565b925050608086013567ffffffffffffffff811115614da357614da261461d565b5b614daf888289016149a2565b9150509295509295909350565b60008060408385031215614dd357614dd2614618565b5b6000614de18582860161466b565b9250506020614df28582860161480d565b9150509250929050565b600060c082019050614e1160008301896146b9565b614e1e60208301886146c8565b614e2b6040830187614771565b8181036060830152614e3d818661472e565b90508181036080830152614e51818561472e565b905081810360a0830152614e65818461472e565b9050979650505050505050565b614e7b816146ad565b8114614e8657600080fd5b50565b600081359050614e9881614e72565b92915050565b600067ffffffffffffffff821115614eb957614eb86148a5565b5b602082029050602081019050919050565b600080fd5b6000614ee2614edd84614e9e565b614905565b90508083825260208201905060208402830185811115614f0557614f04614eca565b5b835b81811015614f4c57803567ffffffffffffffff811115614f2a57614f2961489b565b5b808601614f3789826149a2565b85526020850194505050602081019050614f07565b5050509392505050565b600082601f830112614f6b57614f6a61489b565b5b8135614f7b848260208601614ecf565b91505092915050565b60008060008060008060c08789031215614fa157614fa0614618565b5b6000614faf89828a01614e89565b9650506020614fc089828a0161466b565b955050604087013567ffffffffffffffff811115614fe157614fe061461d565b5b614fed89828a016149a2565b9450506060614ffe89828a0161480d565b935050608087013567ffffffffffffffff81111561501f5761501e61461d565b5b61502b89828a01614f56565b92505060a087013567ffffffffffffffff81111561504c5761504b61461d565b5b61505889828a01614f56565b9150509295509295509295565b600060e082019050818103600083015261507f818a61472e565b905061508e60208301896146c8565b81810360408301526150a0818861472e565b90506150af60608301876146c8565b81810360808301526150c1818661472e565b905081810360a08301526150d58185614c2c565b905081810360c08301526150e98184614c2c565b905098975050505050505050565b600060408201905081810360008301526151118185614a79565b905081810360208301526151258184614b37565b90509392505050565b60008060008060008060c0878903121561514b5761514a614618565b5b600061515989828a01614e89565b965050602061516a89828a0161466b565b955050604061517b89828a0161480d565b945050606087013567ffffffffffffffff81111561519c5761519b61461d565b5b6151a889828a016149a2565b935050608087013567ffffffffffffffff8111156151c9576151c861461d565b5b6151d589828a016149a2565b92505060a087013567ffffffffffffffff8111156151f6576151f561461d565b5b61520289828a016149a2565b9150509295509295509295565b600060c08201905061522460008301896146b9565b61523160208301886146c8565b61523e6040830187614771565b8181036060830152615250818661472e565b905081810360808301526152648185614c2c565b905081810360a08301526152788184614c2c565b9050979650505050505050565b7f5245474953544552454420444f43544f5253204f4e4c59000000000000000000600082015250565b60006152bb6017836146e2565b91506152c682615285565b602082019050919050565b600060208201905081810360008301526152ea816152ae565b9050919050565b7f4e487b7100000000000000000000000000000000000000000000000000000000600052602260045260246000fd5b6000600282049050600182168061533857607f821691505b60208210810361534b5761534a6152f1565b5b50919050565b7f4e487b7100000000000000000000000000000000000000000000000000000000600052603260045260246000fd5b600081905092915050565b60008190508160005260206000209050919050565b600081546153ad81615320565b6153b78186615380565b945060018216600081146153d257600181146153e75761541a565b60ff198316865281151582028601935061541a565b6153f08561538b565b60005b83811015615412578154818901526001820191506020810190506153f3565b838801955050505b50505092915050565b600061542f82846153a0565b915081905092915050565b6000615445826146d7565b61544f8185615380565b935061545f8185602086016146f3565b80840191505092915050565b6000615477828461543a565b915081905092915050565b60008154905061549181615320565b9050919050565b60008190508160005260206000209050919050565b60006020601f8301049050919050565b600082821b905092915050565b6000600883026154fa7fffffffffffffffffffffffffffffffffffffffffffffffffffffffffffffffff826154bd565b61550486836154bd565b95508019841693508086168417925050509392505050565b6000819050919050565b600061554161553c61553784614767565b61551c565b614767565b9050919050565b6000819050919050565b61555b83615526565b61556f61556782615548565b8484546154ca565b825550505050565b600090565b615584615577565b61558f818484615552565b505050565b5b818110156155b3576155a860008261557c565b600181019050615595565b5050565b601f8211156155f8576155c98161538b565b6155d2846154ad565b810160208510156155e1578190505b6155f56155ed856154ad565b830182615594565b50505b505050565b600082821c905092915050565b600061561b600019846008026155fd565b1980831691505092915050565b6000615634838361560a565b9150826002028217905092915050565b81810361565257505061572a565b61565b82615482565b67ffffffffffffffff811115615674576156736148a5565b5b61567e8254615320565b6156898282856155b7565b6000601f8311600181146156b857600084156156a6578287015490505b6156b08582615628565b865550615723565b601f1984166156c687615498565b96506156d18661538b565b60005b828110156156f9578489015482556001820191506001850194506020810190506156d4565b868310156157165784890154615712601f89168261560a565b8355505b6001600288020188555050505b5050505050505b565b7f4e487b7100000000000000000000000000000000000000000000000000000000600052601160045260246000fd5b600061576682614767565b91507fffffffffffffffffffffffffffffffffffffffffffffffffffffffffffffffff82036157985761579761572c565b5b600182019050919050565b6157ac826146d7565b67ffffffffffffffff8111156157c5576157c46148a5565b5b6157cf8254615320565b6157da8282856155b7565b600060209050601f83116001811461580d57600084156157fb578287015190505b6158058582615628565b86555061586d565b601f19841661581b8661538b565b60005b828110156158435784890151825560018201915060208501945060208101905061581e565b86831015615860578489015161585c601f89168261560a565b8355505b6001600288020188555050505b505050505050565b600060408201905061588a60008301856146c8565b61589760208301846146c8565b9392505050565b7f524547495354455245442050415449454e5453204f4e4c590000000000000000600082015250565b60006158d46018836146e2565b91506158df8261589e565b602082019050919050565b60006020820190508181036000830152615903816158c7565b9050919050565b7f4f4e4c592041444d494e20495320414c4c4f5745440000000000000000000000600082015250565b60006159406015836146e2565b915061594b8261590a565b602082019050919050565b6000602082019050818103600083015261596f81615933565b9050919050565b7f50415449454e5453204f52204143434553535f4752414e5445445f444f43544f60008201527f5253204f4e4c5900000000000000000000000000000000000000000000000000602082015250565b60006159d26027836146e2565b91506159dd82615976565b604082019050919050565b60006020820190508181036000830152615a01816159c5565b9050919050565b7f445220414343455353204e4f54204752414e5445440000000000000000000000600082015250565b6000615a3e6015836146e2565b9150615a4982615a08565b602082019050919050565b60006020820190508181036000830152615a6d81615a31565b905091905056fea264697066735822122067a612e6bad92e6ac703867aaaf4feb67a622d36c68bc2082e35811988b4fe6564736f6c63430008110033",
  "linkReferences": {},
  "deployedLinkReferences": {}
}