{
	"_format": "hh-sol-artifact-1",
	"contractName": "MedicalRecord1",
	"sourceName": "contracts/MedicalRecord1.sol",
	"abi": [
		{
			"inputs": [],
			"stateMutability": "nonpayable",
			"type": "constructor"
		},
		{
			"anonymous": false,
			"inputs": [
				{
					"indexed": false,
					"internalType": "address",
					"name": "admin",
					"type": "address"
				},
				{
					"indexed": false,
					"internalType": "address",
					"name": "doctor",
					"type": "address"
				}
			],
			"name": "DrDetailsAdded",
			"type": "event"
		},
		{
			"anonymous": false,
			"inputs": [
				{
					"indexed": false,
					"internalType": "address",
					"name": "dr",
					"type": "address"
				},
				{
					"indexed": false,
					"internalType": "address",
					"name": "patient",
					"type": "address"
				}
			],
			"name": "GrantAccessToDr",
			"type": "event"
		},
		{
			"anonymous": false,
			"inputs": [
				{
					"indexed": false,
					"internalType": "address",
					"name": "dr",
					"type": "address"
				},
				{
					"indexed": false,
					"internalType": "address",
					"name": "patient",
					"type": "address"
				}
			],
			"name": "HealthRecordsAdded",
			"type": "event"
		},
		{
			"anonymous": false,
			"inputs": [
				{
					"indexed": false,
					"internalType": "address",
					"name": "admin",
					"type": "address"
				},
				{
					"indexed": false,
					"internalType": "address",
					"name": "patient",
					"type": "address"
				}
			],
			"name": "PatientDetailsAdded",
			"type": "event"
		},
		{
			"inputs": [
				{
					"internalType": "uint256",
					"name": "",
					"type": "uint256"
				}
			],
			"name": "DocList",
			"outputs": [
				{
					"internalType": "bool",
					"name": "state",
					"type": "bool"
				},
				{
					"internalType": "address",
					"name": "dr_Id",
					"type": "address"
				},
				{
					"internalType": "uint256",
					"name": "dr_Phn",
					"type": "uint256"
				},
				{
					"internalType": "string",
					"name": "d_Name",
					"type": "string"
				}
			],
			"stateMutability": "view",
			"type": "function"
		},
		{
			"inputs": [
				{
					"internalType": "uint256",
					"name": "",
					"type": "uint256"
				}
			],
			"name": "PatientList",
			"outputs": [
				{
					"internalType": "bool",
					"name": "state",
					"type": "bool"
				},
				{
					"internalType": "address",
					"name": "pa_Id",
					"type": "address"
				},
				{
					"internalType": "string",
					"name": "pa_Name",
					"type": "string"
				},
				{
					"internalType": "uint256",
					"name": "pa_phn",
					"type": "uint256"
				}
			],
			"stateMutability": "view",
			"type": "function"
		},
		{
			"inputs": [
				{
					"internalType": "string",
					"name": "_name",
					"type": "string"
				}
			],
			"name": "getDocbyName",
			"outputs": [
				{
					"internalType": "address[]",
					"name": "_dr_id",
					"type": "address[]"
				},
				{
					"internalType": "uint256[]",
					"name": "_dr_phn",
					"type": "uint256[]"
				}
			],
			"stateMutability": "nonpayable",
			"type": "function"
		},
		{
			"inputs": [
				{
					"internalType": "address",
					"name": "_Id",
					"type": "address"
				}
			],
			"name": "getDoctorDetails",
			"outputs": [
				{
					"internalType": "bool",
					"name": "_state",
					"type": "bool"
				},
				{
					"internalType": "address",
					"name": "_drId",
					"type": "address"
				},
				{
					"internalType": "string",
					"name": "_name",
					"type": "string"
				},
				{
					"internalType": "uint256",
					"name": "_dr_Phn",
					"type": "uint256"
				}
			],
			"stateMutability": "view",
			"type": "function"
		},
		{
			"inputs": [
				{
					"internalType": "address",
					"name": "_dr",
					"type": "address"
				}
			],
			"name": "getHealthRecords",
			"outputs": [
				{
					"internalType": "string",
					"name": "_drName",
					"type": "string"
				},
				{
					"internalType": "address",
					"name": "_drId",
					"type": "address"
				},
				{
					"internalType": "string",
					"name": "_paName",
					"type": "string"
				},
				{
					"internalType": "address",
					"name": "_paId",
					"type": "address"
				},
				{
					"internalType": "string",
					"name": "_prescription",
					"type": "string"
				},
				{
					"internalType": "string[]",
					"name": "_rec",
					"type": "string[]"
				},
				{
					"internalType": "string[]",
					"name": "_file",
					"type": "string[]"
				}
			],
			"stateMutability": "view",
			"type": "function"
		},
		{
			"inputs": [
				{
					"internalType": "address",
					"name": "_paId",
					"type": "address"
				}
			],
			"name": "getHealthRecordsForDoctor",
			"outputs": [
				{
					"internalType": "string",
					"name": "_drName",
					"type": "string"
				},
				{
					"internalType": "address",
					"name": "_drId",
					"type": "address"
				},
				{
					"internalType": "string",
					"name": "_paName",
					"type": "string"
				},
				{
					"internalType": "address",
					"name": "_pId",
					"type": "address"
				},
				{
					"internalType": "string",
					"name": "_prescription",
					"type": "string"
				},
				{
					"internalType": "string[]",
					"name": "_rec",
					"type": "string[]"
				},
				{
					"internalType": "string[]",
					"name": "_files",
					"type": "string[]"
				}
			],
			"stateMutability": "view",
			"type": "function"
		},
		{
			"inputs": [
				{
					"internalType": "address",
					"name": "_Id",
					"type": "address"
				}
			],
			"name": "getPatientDetails",
			"outputs": [
				{
					"internalType": "bool",
					"name": "_state",
					"type": "bool"
				},
				{
					"internalType": "address",
					"name": "_paId",
					"type": "address"
				},
				{
					"internalType": "string",
					"name": "_paName",
					"type": "string"
				},
				{
					"internalType": "string[]",
					"name": "_paRecords",
					"type": "string[]"
				},
				{
					"internalType": "string[]",
					"name": "_paFiles",
					"type": "string[]"
				}
			],
			"stateMutability": "view",
			"type": "function"
		},
		{
			"inputs": [
				{
					"internalType": "string",
					"name": "_name",
					"type": "string"
				}
			],
			"name": "getPatientbyName",
			"outputs": [
				{
					"internalType": "address[]",
					"name": "_pa_id",
					"type": "address[]"
				},
				{
					"internalType": "uint256[]",
					"name": "_pa_phn",
					"type": "uint256[]"
				}
			],
			"stateMutability": "nonpayable",
			"type": "function"
		},
		{
			"inputs": [
				{
					"internalType": "address",
					"name": "doctor_id",
					"type": "address"
				},
				{
					"internalType": "uint256",
					"name": "access",
					"type": "uint256"
				}
			],
			"name": "grantAccessToDoctor",
			"outputs": [],
			"stateMutability": "nonpayable",
			"type": "function"
		},
		{
			"inputs": [
				{
					"internalType": "bool",
					"name": "_state",
					"type": "bool"
				},
				{
					"internalType": "address",
					"name": "_drId",
					"type": "address"
				},
				{
					"internalType": "uint256",
					"name": "_num",
					"type": "uint256"
				},
				{
					"internalType": "string",
					"name": "_name",
					"type": "string"
				}
			],
			"name": "setDoctorDetails",
			"outputs": [],
			"stateMutability": "nonpayable",
			"type": "function"
		},
		{
			"inputs": [
				{
					"internalType": "string",
					"name": "_paName",
					"type": "string"
				},
				{
					"internalType": "address",
					"name": "_paId",
					"type": "address"
				},
				{
					"internalType": "uint256",
					"name": "_phnNum",
					"type": "uint256"
				},
				{
					"internalType": "string",
					"name": "_prescription",
					"type": "string"
				},
				{
					"internalType": "string",
					"name": "_url",
					"type": "string"
				}
			],
			"name": "setHealthRecordsDetails",
			"outputs": [],
			"stateMutability": "nonpayable",
			"type": "function"
		},
		{
			"inputs": [
				{
					"internalType": "bool",
					"name": "_state",
					"type": "bool"
				},
				{
					"internalType": "address",
					"name": "_paId",
					"type": "address"
				},
				{
					"internalType": "string",
					"name": "_paName",
					"type": "string"
				},
				{
					"internalType": "uint256",
					"name": "_phnNum",
					"type": "uint256"
				},
				{
					"internalType": "string[]",
					"name": "_paRecords",
					"type": "string[]"
				},
				{
					"internalType": "string[]",
					"name": "_paFiles",
					"type": "string[]"
				}
			],
			"name": "setPatientDetails",
			"outputs": [],
			"stateMutability": "nonpayable",
			"type": "function"
		}
	],
	"bytecode": "0x608060405234801561001057600080fd5b5033600460006101000a81548173ffffffffffffffffffffffffffffffffffffffff021916908373ffffffffffffffffffffffffffffffffffffffff160217905550614967806100616000396000f3fe608060405234801561001057600080fd5b50600436106100b45760003560e01c80637827c01a116100715780637827c01a146101a45780637baa4951146101da578063a849d83a1461020b578063bab90dbd14610227578063efe2ccc11461025a578063f83009ba1461028e576100b4565b80631962879a146100b95780631ce8e455146100ea5780633bda950d1461011d578063506f1773146101395780635f6fff7b14610155578063658caa6a14610188575b600080fd5b6100d360048036038101906100ce9190613af2565b6102c4565b6040516100e1929190613cf3565b60405180910390f35b61010460048036038101906100ff9190613d56565b610601565b6040516101149493929190613e44565b60405180910390f35b61013760048036038101906101329190613ebc565b6106f6565b005b610153600480360381019061014e9190613f8b565b611430565b005b61016f600480360381019061016a9190613d56565b611584565b60405161017f9493929190613fcb565b60405180910390f35b6101a2600480360381019061019d9190614129565b611679565b005b6101be60048036038101906101b9919061420a565b6119d8565b6040516101d19796959493929190614343565b60405180910390f35b6101f460048036038101906101ef9190613af2565b612199565b604051610202929190613cf3565b60405180910390f35b610225600480360381019061022091906143d5565b6124d6565b005b610241600480360381019061023c919061420a565b6127a1565b6040516102519493929190613e44565b60405180910390f35b610274600480360381019061026f919061420a565b612974565b604051610285959493929190614458565b60405180910390f35b6102a860048036038101906102a3919061420a565b612e4e565b6040516102bb9796959493929190614343565b60405180910390f35b606080600067ffffffffffffffff8111156102e2576102e16139c7565b5b6040519080825280602002602001820160405280156103105781602001602082028036833780820191505090505b50600990805190602001906103269291906136cd565b50600067ffffffffffffffff811115610342576103416139c7565b5b6040519080825280602002602001820160405280156103705781602001602082028036833780820191505090505b50600a9080519060200190610386929190613757565b5060005b60068054905081101561051957600681815481106103ab576103aa6144c0565b5b90600052602060002090600502016001016040516020016103cc91906145ef565b60405160208183030381529060405280519060200120846040516020016103f39190614637565b60405160208183030381529060405280519060200120141561050657600960068281548110610425576104246144c0565b5b906000526020600020906005020160000160019054906101000a900473ffffffffffffffffffffffffffffffffffffffff169080600181540180825580915050600190039060005260206000200160009091909190916101000a81548173ffffffffffffffffffffffffffffffffffffffff021916908373ffffffffffffffffffffffffffffffffffffffff160217905550600a600682815481106104cd576104cc6144c0565b5b90600052602060002090600502016002015490806001815401808255809150506001900390600052602060002001600090919091909150555b80806105119061467d565b91505061038a565b506009600a8180548060200260200160405190810160405280929190818152602001828054801561059f57602002820191906000526020600020905b8160009054906101000a900473ffffffffffffffffffffffffffffffffffffffff1673ffffffffffffffffffffffffffffffffffffffff1681526020019060010190808311610555575b50505050509150808054806020026020016040519081016040528092919081815260200182805480156105f157602002820191906000526020600020905b8154815260200190600101908083116105dd575b5050505050905091509150915091565b6006818154811061061157600080fd5b90600052602060002090600502016000915090508060000160009054906101000a900460ff16908060000160019054906101000a900473ffffffffffffffffffffffffffffffffffffffff169080600101805461066d9061451e565b80601f01602080910402602001604051908101604052809291908181526020018280546106999061451e565b80156106e65780601f106106bb576101008083540402835291602001916106e6565b820191906000526020600020905b8154815290600101906020018083116106c957829003601f168201915b5050505050908060020154905084565b600115156000803373ffffffffffffffffffffffffffffffffffffffff1673ffffffffffffffffffffffffffffffffffffffff16815260200190815260200160002060000160009054906101000a900460ff1615151461078b576040517f08c379a000000000000000000000000000000000000000000000000000000000815260040161078290614712565b60405180910390fd5b6000803373ffffffffffffffffffffffffffffffffffffffff1673ffffffffffffffffffffffffffffffffffffffff168152602001908152602001600020600201600260003373ffffffffffffffffffffffffffffffffffffffff1673ffffffffffffffffffffffffffffffffffffffff16815260200190815260200160002060008673ffffffffffffffffffffffffffffffffffffffff1673ffffffffffffffffffffffffffffffffffffffff16815260200190815260200160002060000160020190805461085a9061451e565b6108659291906137a4565b506000803373ffffffffffffffffffffffffffffffffffffffff1673ffffffffffffffffffffffffffffffffffffffff16815260200190815260200160002060000160019054906101000a900473ffffffffffffffffffffffffffffffffffffffff16600260003373ffffffffffffffffffffffffffffffffffffffff1673ffffffffffffffffffffffffffffffffffffffff16815260200190815260200160002060008673ffffffffffffffffffffffffffffffffffffffff1673ffffffffffffffffffffffffffffffffffffffff16815260200190815260200160002060000160000160016101000a81548173ffffffffffffffffffffffffffffffffffffffff021916908373ffffffffffffffffffffffffffffffffffffffff1602179055506001600260003373ffffffffffffffffffffffffffffffffffffffff1673ffffffffffffffffffffffffffffffffffffffff16815260200190815260200160002060008673ffffffffffffffffffffffffffffffffffffffff1673ffffffffffffffffffffffffffffffffffffffff16815260200190815260200160002060030160000160006101000a81548160ff02191690831515021790555083600260003373ffffffffffffffffffffffffffffffffffffffff1673ffffffffffffffffffffffffffffffffffffffff16815260200190815260200160002060008673ffffffffffffffffffffffffffffffffffffffff1673ffffffffffffffffffffffffffffffffffffffff16815260200190815260200160002060030160000160016101000a81548173ffffffffffffffffffffffffffffffffffffffff021916908373ffffffffffffffffffffffffffffffffffffffff16021790555084600260003373ffffffffffffffffffffffffffffffffffffffff1673ffffffffffffffffffffffffffffffffffffffff16815260200190815260200160002060008673ffffffffffffffffffffffffffffffffffffffff1673ffffffffffffffffffffffffffffffffffffffff1681526020019081526020016000206003016001019080519060200190610b7a929190613831565b5082600260003373ffffffffffffffffffffffffffffffffffffffff1673ffffffffffffffffffffffffffffffffffffffff16815260200190815260200160002060008673ffffffffffffffffffffffffffffffffffffffff1673ffffffffffffffffffffffffffffffffffffffff1681526020019081526020016000206003016002018190555081600260003373ffffffffffffffffffffffffffffffffffffffff1673ffffffffffffffffffffffffffffffffffffffff16815260200190815260200160002060008673ffffffffffffffffffffffffffffffffffffffff1673ffffffffffffffffffffffffffffffffffffffff1681526020019081526020016000206008016000019080519060200190610c98929190613831565b50600260003373ffffffffffffffffffffffffffffffffffffffff1673ffffffffffffffffffffffffffffffffffffffff16815260200190815260200160002060008573ffffffffffffffffffffffffffffffffffffffff1673ffffffffffffffffffffffffffffffffffffffff16815260200190815260200160002060090182908060018154018082558091505060019003906000526020600020016000909190919091509080519060200190610d51929190613831565b50600260003373ffffffffffffffffffffffffffffffffffffffff1673ffffffffffffffffffffffffffffffffffffffff16815260200190815260200160002060008573ffffffffffffffffffffffffffffffffffffffff1673ffffffffffffffffffffffffffffffffffffffff168152602001908152602001600020600a0181908060018154018082558091505060019003906000526020600020016000909190919091509080519060200190610e0a929190613831565b50600160008573ffffffffffffffffffffffffffffffffffffffff1673ffffffffffffffffffffffffffffffffffffffff16815260200190815260200160002060030182908060018154018082558091505060019003906000526020600020016000909190919091509080519060200190610e86929190613831565b50600160008573ffffffffffffffffffffffffffffffffffffffff1673ffffffffffffffffffffffffffffffffffffffff16815260200190815260200160002060040181908060018154018082558091505060019003906000526020600020016000909190919091509080519060200190610f02929190613831565b506113f0600260003373ffffffffffffffffffffffffffffffffffffffff1673ffffffffffffffffffffffffffffffffffffffff16815260200190815260200160002060008673ffffffffffffffffffffffffffffffffffffffff1673ffffffffffffffffffffffffffffffffffffffff16815260200190815260200160002060030160000160009054906101000a900460ff16600260003373ffffffffffffffffffffffffffffffffffffffff1673ffffffffffffffffffffffffffffffffffffffff16815260200190815260200160002060008773ffffffffffffffffffffffffffffffffffffffff1673ffffffffffffffffffffffffffffffffffffffff16815260200190815260200160002060030160000160019054906101000a900473ffffffffffffffffffffffffffffffffffffffff16600260003373ffffffffffffffffffffffffffffffffffffffff1673ffffffffffffffffffffffffffffffffffffffff16815260200190815260200160002060008873ffffffffffffffffffffffffffffffffffffffff1673ffffffffffffffffffffffffffffffffffffffff16815260200190815260200160002060030160010180546110c69061451e565b80601f01602080910402602001604051908101604052809291908181526020018280546110f29061451e565b801561113f5780601f106111145761010080835404028352916020019161113f565b820191906000526020600020905b81548152906001019060200180831161112257829003601f168201915b5050505050600260003373ffffffffffffffffffffffffffffffffffffffff1673ffffffffffffffffffffffffffffffffffffffff16815260200190815260200160002060008973ffffffffffffffffffffffffffffffffffffffff1673ffffffffffffffffffffffffffffffffffffffff16815260200190815260200160002060030160020154600160008a73ffffffffffffffffffffffffffffffffffffffff1673ffffffffffffffffffffffffffffffffffffffff168152602001908152602001600020600301805480602002602001604051908101604052809291908181526020016000905b828210156112d55783829060005260206000200180546112489061451e565b80601f01602080910402602001604051908101604052809291908181526020018280546112749061451e565b80156112c15780601f10611296576101008083540402835291602001916112c1565b820191906000526020600020905b8154815290600101906020018083116112a457829003601f168201915b505050505081526020019060010190611229565b50505050600160008b73ffffffffffffffffffffffffffffffffffffffff1673ffffffffffffffffffffffffffffffffffffffff168152602001908152602001600020600401805480602002602001604051908101604052809291908181526020016000905b828210156113e757838290600052602060002001805461135a9061451e565b80601f01602080910402602001604051908101604052809291908181526020018280546113869061451e565b80156113d35780601f106113a8576101008083540402835291602001916113d3565b820191906000526020600020905b8154815290600101906020018083116113b657829003601f168201915b50505050508152602001906001019061133b565b50505050611679565b7ffd09d3da0077a9ed9d4af05531b2f844c840c94c1e6535e3d2a09a6ae1aa9a523385604051611421929190614732565b60405180910390a15050505050565b60011515600160003373ffffffffffffffffffffffffffffffffffffffff1673ffffffffffffffffffffffffffffffffffffffff16815260200190815260200160002060000160009054906101000a900460ff161515146114c6576040517f08c379a00000000000000000000000000000000000000000000000000000000081526004016114bd906147a7565b60405180910390fd5b80600360003373ffffffffffffffffffffffffffffffffffffffff1673ffffffffffffffffffffffffffffffffffffffff16815260200190815260200160002060008473ffffffffffffffffffffffffffffffffffffffff1673ffffffffffffffffffffffffffffffffffffffff168152602001908152602001600020819055507f19dd02d0615ff9058c55159271b51d3d8ead87b40cc392e6dbeca6483cff33338233604051611578929190614732565b60405180910390a15050565b6005818154811061159457600080fd5b90600052602060002090600302016000915090508060000160009054906101000a900460ff16908060000160019054906101000a900473ffffffffffffffffffffffffffffffffffffffff16908060010154908060020180546115f69061451e565b80601f01602080910402602001604051908101604052809291908181526020018280546116229061451e565b801561166f5780601f106116445761010080835404028352916020019161166f565b820191906000526020600020905b81548152906001019060200180831161165257829003601f168201915b5050505050905084565b600115156000803373ffffffffffffffffffffffffffffffffffffffff1673ffffffffffffffffffffffffffffffffffffffff16815260200190815260200160002060000160009054906101000a900460ff1615151461170e576040517f08c379a000000000000000000000000000000000000000000000000000000000815260040161170590614712565b60405180910390fd5b6040518060c0016040528087151581526020018673ffffffffffffffffffffffffffffffffffffffff16815260200185815260200184815260200183815260200182815250600160008773ffffffffffffffffffffffffffffffffffffffff1673ffffffffffffffffffffffffffffffffffffffff16815260200190815260200160002060008201518160000160006101000a81548160ff02191690831515021790555060208201518160000160016101000a81548173ffffffffffffffffffffffffffffffffffffffff021916908373ffffffffffffffffffffffffffffffffffffffff1602179055506040820151816001019080519060200190611815929190613831565b5060608201518160020155608082015181600301908051906020019061183c9291906138b7565b5060a08201518160040190805190602001906118599291906138b7565b5090505060066040518060c0016040528088151581526020018773ffffffffffffffffffffffffffffffffffffffff16815260200186815260200185815260200184815260200183815250908060018154018082558091505060019003906000526020600020906005020160009091909190915060008201518160000160006101000a81548160ff02191690831515021790555060208201518160000160016101000a81548173ffffffffffffffffffffffffffffffffffffffff021916908373ffffffffffffffffffffffffffffffffffffffff1602179055506040820151816001019080519060200190611950929190613831565b506060820151816002015560808201518160030190805190602001906119779291906138b7565b5060a08201518160040190805190602001906119949291906138b7565b5050507f83c041d3aeb1dcb1f28cb15e20bdfee5ed1ca3740e487f9cab72e13eeb85950533866040516119c8929190614732565b60405180910390a1505050505050565b6060600060606000606080606060011515600160003373ffffffffffffffffffffffffffffffffffffffff1673ffffffffffffffffffffffffffffffffffffffff16815260200190815260200160002060000160009054906101000a900460ff16151514611a7b576040517f08c379a0000000000000000000000000000000000000000000000000000000008152600401611a72906147a7565b60405180910390fd5b600260008973ffffffffffffffffffffffffffffffffffffffff1673ffffffffffffffffffffffffffffffffffffffff16815260200190815260200160002060003373ffffffffffffffffffffffffffffffffffffffff1673ffffffffffffffffffffffffffffffffffffffff1681526020019081526020016000206000016002018054611b089061451e565b80601f0160208091040260200160405190810160405280929190818152602001828054611b349061451e565b8015611b815780601f10611b5657610100808354040283529160200191611b81565b820191906000526020600020905b815481529060010190602001808311611b6457829003601f168201915b50505050509650600260008973ffffffffffffffffffffffffffffffffffffffff1673ffffffffffffffffffffffffffffffffffffffff16815260200190815260200160002060003373ffffffffffffffffffffffffffffffffffffffff1673ffffffffffffffffffffffffffffffffffffffff16815260200190815260200160002060000160000160019054906101000a900473ffffffffffffffffffffffffffffffffffffffff169550600260008973ffffffffffffffffffffffffffffffffffffffff1673ffffffffffffffffffffffffffffffffffffffff16815260200190815260200160002060003373ffffffffffffffffffffffffffffffffffffffff1673ffffffffffffffffffffffffffffffffffffffff1681526020019081526020016000206003016001018054611cba9061451e565b80601f0160208091040260200160405190810160405280929190818152602001828054611ce69061451e565b8015611d335780601f10611d0857610100808354040283529160200191611d33565b820191906000526020600020905b815481529060010190602001808311611d1657829003601f168201915b50505050509450600260008973ffffffffffffffffffffffffffffffffffffffff1673ffffffffffffffffffffffffffffffffffffffff16815260200190815260200160002060003373ffffffffffffffffffffffffffffffffffffffff1673ffffffffffffffffffffffffffffffffffffffff16815260200190815260200160002060030160000160019054906101000a900473ffffffffffffffffffffffffffffffffffffffff169350600260008973ffffffffffffffffffffffffffffffffffffffff1673ffffffffffffffffffffffffffffffffffffffff16815260200190815260200160002060003373ffffffffffffffffffffffffffffffffffffffff1673ffffffffffffffffffffffffffffffffffffffff1681526020019081526020016000206008016000018054611e6c9061451e565b80601f0160208091040260200160405190810160405280929190818152602001828054611e989061451e565b8015611ee55780601f10611eba57610100808354040283529160200191611ee5565b820191906000526020600020905b815481529060010190602001808311611ec857829003601f168201915b50505050509250600260008973ffffffffffffffffffffffffffffffffffffffff1673ffffffffffffffffffffffffffffffffffffffff16815260200190815260200160002060003373ffffffffffffffffffffffffffffffffffffffff1673ffffffffffffffffffffffffffffffffffffffff168152602001908152602001600020600901805480602002602001604051908101604052809291908181526020016000905b82821015612037578382906000526020600020018054611faa9061451e565b80601f0160208091040260200160405190810160405280929190818152602001828054611fd69061451e565b80156120235780601f10611ff857610100808354040283529160200191612023565b820191906000526020600020905b81548152906001019060200180831161200657829003601f168201915b505050505081526020019060010190611f8b565b505050509150600260008973ffffffffffffffffffffffffffffffffffffffff1673ffffffffffffffffffffffffffffffffffffffff16815260200190815260200160002060003373ffffffffffffffffffffffffffffffffffffffff1673ffffffffffffffffffffffffffffffffffffffff168152602001908152602001600020600a01805480602002602001604051908101604052809291908181526020016000905b828210156121885783829060005260206000200180546120fb9061451e565b80601f01602080910402602001604051908101604052809291908181526020018280546121279061451e565b80156121745780601f1061214957610100808354040283529160200191612174565b820191906000526020600020905b81548152906001019060200180831161215757829003601f168201915b5050505050815260200190600101906120dc565b505050509050919395979092949650565b606080600067ffffffffffffffff8111156121b7576121b66139c7565b5b6040519080825280602002602001820160405280156121e55781602001602082028036833780820191505090505b50600790805190602001906121fb9291906136cd565b50600067ffffffffffffffff811115612217576122166139c7565b5b6040519080825280602002602001820160405280156122455781602001602082028036833780820191505090505b506008908051906020019061225b929190613757565b5060005b6005805490508110156123ee57600581815481106122805761227f6144c0565b5b90600052602060002090600302016002016040516020016122a191906145ef565b60405160208183030381529060405280519060200120846040516020016122c89190614637565b6040516020818303038152906040528051906020012014156123db576007600582815481106122fa576122f96144c0565b5b906000526020600020906003020160000160019054906101000a900473ffffffffffffffffffffffffffffffffffffffff169080600181540180825580915050600190039060005260206000200160009091909190916101000a81548173ffffffffffffffffffffffffffffffffffffffff021916908373ffffffffffffffffffffffffffffffffffffffff1602179055506008600582815481106123a2576123a16144c0565b5b90600052602060002090600302016001015490806001815401808255809150506001900390600052602060002001600090919091909150555b80806123e69061467d565b91505061225f565b50600760088180548060200260200160405190810160405280929190818152602001828054801561247457602002820191906000526020600020905b8160009054906101000a900473ffffffffffffffffffffffffffffffffffffffff1673ffffffffffffffffffffffffffffffffffffffff168152602001906001019080831161242a575b50505050509150808054806020026020016040519081016040528092919081815260200182805480156124c657602002820191906000526020600020905b8154815260200190600101908083116124b2575b5050505050905091509150915091565b600460009054906101000a900473ffffffffffffffffffffffffffffffffffffffff1673ffffffffffffffffffffffffffffffffffffffff163373ffffffffffffffffffffffffffffffffffffffff1614612566576040517f08c379a000000000000000000000000000000000000000000000000000000000815260040161255d90614813565b60405180910390fd5b6005604051806080016040528086151581526020018573ffffffffffffffffffffffffffffffffffffffff16815260200184815260200183815250908060018154018082558091505060019003906000526020600020906003020160009091909190915060008201518160000160006101000a81548160ff02191690831515021790555060208201518160000160016101000a81548173ffffffffffffffffffffffffffffffffffffffff021916908373ffffffffffffffffffffffffffffffffffffffff160217905550604082015181600101556060820151816002019080519060200190612657929190613831565b505050604051806080016040528085151581526020018473ffffffffffffffffffffffffffffffffffffffff168152602001838152602001828152506000808573ffffffffffffffffffffffffffffffffffffffff1673ffffffffffffffffffffffffffffffffffffffff16815260200190815260200160002060008201518160000160006101000a81548160ff02191690831515021790555060208201518160000160016101000a81548173ffffffffffffffffffffffffffffffffffffffff021916908373ffffffffffffffffffffffffffffffffffffffff16021790555060408201518160010155606082015181600201908051906020019061275e929190613831565b509050507f83c041d3aeb1dcb1f28cb15e20bdfee5ed1ca3740e487f9cab72e13eeb8595053384604051612793929190614732565b60405180910390a150505050565b600080606060008060008673ffffffffffffffffffffffffffffffffffffffff1673ffffffffffffffffffffffffffffffffffffffff16815260200190815260200160002060000160009054906101000a900460ff1693506000808673ffffffffffffffffffffffffffffffffffffffff1673ffffffffffffffffffffffffffffffffffffffff16815260200190815260200160002060000160019054906101000a900473ffffffffffffffffffffffffffffffffffffffff1692506000808673ffffffffffffffffffffffffffffffffffffffff1673ffffffffffffffffffffffffffffffffffffffff16815260200190815260200160002060020180546128a99061451e565b80601f01602080910402602001604051908101604052809291908181526020018280546128d59061451e565b80156129225780601f106128f757610100808354040283529160200191612922565b820191906000526020600020905b81548152906001019060200180831161290557829003601f168201915b505050505091506000808673ffffffffffffffffffffffffffffffffffffffff1673ffffffffffffffffffffffffffffffffffffffff1681526020019081526020016000206001015490509193509193565b600080606080606060011515600160003373ffffffffffffffffffffffffffffffffffffffff1673ffffffffffffffffffffffffffffffffffffffff16815260200190815260200160002060000160009054906101000a900460ff1615151480612a5a57506001600360008873ffffffffffffffffffffffffffffffffffffffff1673ffffffffffffffffffffffffffffffffffffffff16815260200190815260200160002060003373ffffffffffffffffffffffffffffffffffffffff1673ffffffffffffffffffffffffffffffffffffffff16815260200190815260200160002054145b612a99576040517f08c379a0000000000000000000000000000000000000000000000000000000008152600401612a90906148a5565b60405180910390fd5b600160008773ffffffffffffffffffffffffffffffffffffffff1673ffffffffffffffffffffffffffffffffffffffff16815260200190815260200160002060000160009054906101000a900460ff169450600160008773ffffffffffffffffffffffffffffffffffffffff1673ffffffffffffffffffffffffffffffffffffffff16815260200190815260200160002060000160019054906101000a900473ffffffffffffffffffffffffffffffffffffffff169350600160008773ffffffffffffffffffffffffffffffffffffffff1673ffffffffffffffffffffffffffffffffffffffff1681526020019081526020016000206001018054612b9d9061451e565b80601f0160208091040260200160405190810160405280929190818152602001828054612bc99061451e565b8015612c165780601f10612beb57610100808354040283529160200191612c16565b820191906000526020600020905b815481529060010190602001808311612bf957829003601f168201915b50505050509250600160008773ffffffffffffffffffffffffffffffffffffffff1673ffffffffffffffffffffffffffffffffffffffff168152602001908152602001600020600301805480602002602001604051908101604052809291908181526020016000905b82821015612d2b578382906000526020600020018054612c9e9061451e565b80601f0160208091040260200160405190810160405280929190818152602001828054612cca9061451e565b8015612d175780601f10612cec57610100808354040283529160200191612d17565b820191906000526020600020905b815481529060010190602001808311612cfa57829003601f168201915b505050505081526020019060010190612c7f565b505050509150600160008573ffffffffffffffffffffffffffffffffffffffff1673ffffffffffffffffffffffffffffffffffffffff168152602001908152602001600020600401805480602002602001604051908101604052809291908181526020016000905b82821015612e3f578382906000526020600020018054612db29061451e565b80601f0160208091040260200160405190810160405280929190818152602001828054612dde9061451e565b8015612e2b5780601f10612e0057610100808354040283529160200191612e2b565b820191906000526020600020905b815481529060010190602001808311612e0e57829003601f168201915b505050505081526020019060010190612d93565b50505050905091939590929450565b60606000606060006060806060600115156000803373ffffffffffffffffffffffffffffffffffffffff1673ffffffffffffffffffffffffffffffffffffffff16815260200190815260200160002060000160009054906101000a900460ff16151514612ef0576040517f08c379a0000000000000000000000000000000000000000000000000000000008152600401612ee790614712565b60405180910390fd5b6001600360008a73ffffffffffffffffffffffffffffffffffffffff1673ffffffffffffffffffffffffffffffffffffffff16815260200190815260200160002060003373ffffffffffffffffffffffffffffffffffffffff1673ffffffffffffffffffffffffffffffffffffffff1681526020019081526020016000205414612faf576040517f08c379a0000000000000000000000000000000000000000000000000000000008152600401612fa690614911565b60405180910390fd5b600260003373ffffffffffffffffffffffffffffffffffffffff1673ffffffffffffffffffffffffffffffffffffffff16815260200190815260200160002060008973ffffffffffffffffffffffffffffffffffffffff1673ffffffffffffffffffffffffffffffffffffffff168152602001908152602001600020600001600201805461303c9061451e565b80601f01602080910402602001604051908101604052809291908181526020018280546130689061451e565b80156130b55780601f1061308a576101008083540402835291602001916130b5565b820191906000526020600020905b81548152906001019060200180831161309857829003601f168201915b50505050509650600260003373ffffffffffffffffffffffffffffffffffffffff1673ffffffffffffffffffffffffffffffffffffffff16815260200190815260200160002060008973ffffffffffffffffffffffffffffffffffffffff1673ffffffffffffffffffffffffffffffffffffffff16815260200190815260200160002060000160000160019054906101000a900473ffffffffffffffffffffffffffffffffffffffff169550600260003373ffffffffffffffffffffffffffffffffffffffff1673ffffffffffffffffffffffffffffffffffffffff16815260200190815260200160002060008973ffffffffffffffffffffffffffffffffffffffff1673ffffffffffffffffffffffffffffffffffffffff16815260200190815260200160002060030160010180546131ee9061451e565b80601f016020809104026020016040519081016040528092919081815260200182805461321a9061451e565b80156132675780601f1061323c57610100808354040283529160200191613267565b820191906000526020600020905b81548152906001019060200180831161324a57829003601f168201915b50505050509450600260003373ffffffffffffffffffffffffffffffffffffffff1673ffffffffffffffffffffffffffffffffffffffff16815260200190815260200160002060008973ffffffffffffffffffffffffffffffffffffffff1673ffffffffffffffffffffffffffffffffffffffff16815260200190815260200160002060030160000160019054906101000a900473ffffffffffffffffffffffffffffffffffffffff169350600260003373ffffffffffffffffffffffffffffffffffffffff1673ffffffffffffffffffffffffffffffffffffffff16815260200190815260200160002060008973ffffffffffffffffffffffffffffffffffffffff1673ffffffffffffffffffffffffffffffffffffffff16815260200190815260200160002060080160000180546133a09061451e565b80601f01602080910402602001604051908101604052809291908181526020018280546133cc9061451e565b80156134195780601f106133ee57610100808354040283529160200191613419565b820191906000526020600020905b8154815290600101906020018083116133fc57829003601f168201915b50505050509250600260003373ffffffffffffffffffffffffffffffffffffffff1673ffffffffffffffffffffffffffffffffffffffff16815260200190815260200160002060008973ffffffffffffffffffffffffffffffffffffffff1673ffffffffffffffffffffffffffffffffffffffff168152602001908152602001600020600901805480602002602001604051908101604052809291908181526020016000905b8282101561356b5783829060005260206000200180546134de9061451e565b80601f016020809104026020016040519081016040528092919081815260200182805461350a9061451e565b80156135575780601f1061352c57610100808354040283529160200191613557565b820191906000526020600020905b81548152906001019060200180831161353a57829003601f168201915b5050505050815260200190600101906134bf565b505050509150600260003373ffffffffffffffffffffffffffffffffffffffff1673ffffffffffffffffffffffffffffffffffffffff16815260200190815260200160002060008973ffffffffffffffffffffffffffffffffffffffff1673ffffffffffffffffffffffffffffffffffffffff168152602001908152602001600020600a01805480602002602001604051908101604052809291908181526020016000905b828210156136bc57838290600052602060002001805461362f9061451e565b80601f016020809104026020016040519081016040528092919081815260200182805461365b9061451e565b80156136a85780601f1061367d576101008083540402835291602001916136a8565b820191906000526020600020905b81548152906001019060200180831161368b57829003601f168201915b505050505081526020019060010190613610565b505050509050919395979092949650565b828054828255906000526020600020908101928215613746579160200282015b828111156137455782518260006101000a81548173ffffffffffffffffffffffffffffffffffffffff021916908373ffffffffffffffffffffffffffffffffffffffff160217905550916020019190600101906136ed565b5b5090506137539190613917565b5090565b828054828255906000526020600020908101928215613793579160200282015b82811115613792578251825591602001919060010190613777565b5b5090506137a09190613917565b5090565b8280546137b09061451e565b90600052602060002090601f0160209004810192826137d25760008555613820565b82601f106137e35780548555613820565b8280016001018555821561382057600052602060002091601f016020900482015b8281111561381f578254825591600101919060010190613804565b5b50905061382d9190613917565b5090565b82805461383d9061451e565b90600052602060002090601f01602090048101928261385f57600085556138a6565b82601f1061387857805160ff19168380011785556138a6565b828001600101855582156138a6579182015b828111156138a557825182559160200191906001019061388a565b5b5090506138b39190613917565b5090565b828054828255906000526020600020908101928215613906579160200282015b828111156139055782518290805190602001906138f5929190613831565b50916020019190600101906138d7565b5b5090506139139190613934565b5090565b5b80821115613930576000816000905550600101613918565b5090565b5b80821115613954576000818161394b9190613958565b50600101613935565b5090565b5080546139649061451e565b6000825580601f106139765750613995565b601f0160209004906000526020600020908101906139949190613917565b5b50565b6000604051905090565b600080fd5b600080fd5b600080fd5b600080fd5b6000601f19601f8301169050919050565b7f4e487b7100000000000000000000000000000000000000000000000000000000600052604160045260246000fd5b6139ff826139b6565b810181811067ffffffffffffffff82111715613a1e57613a1d6139c7565b5b80604052505050565b6000613a31613998565b9050613a3d82826139f6565b919050565b600067ffffffffffffffff821115613a5d57613a5c6139c7565b5b613a66826139b6565b9050602081019050919050565b82818337600083830152505050565b6000613a95613a9084613a42565b613a27565b905082815260208101848484011115613ab157613ab06139b1565b5b613abc848285613a73565b509392505050565b600082601f830112613ad957613ad86139ac565b5b8135613ae9848260208601613a82565b91505092915050565b600060208284031215613b0857613b076139a2565b5b600082013567ffffffffffffffff811115613b2657613b256139a7565b5b613b3284828501613ac4565b91505092915050565b600081519050919050565b600082825260208201905092915050565b6000819050602082019050919050565b600073ffffffffffffffffffffffffffffffffffffffff82169050919050565b6000613b9282613b67565b9050919050565b613ba281613b87565b82525050565b6000613bb48383613b99565b60208301905092915050565b6000602082019050919050565b6000613bd882613b3b565b613be28185613b46565b9350613bed83613b57565b8060005b83811015613c1e578151613c058882613ba8565b9750613c1083613bc0565b925050600181019050613bf1565b5085935050505092915050565b600081519050919050565b600082825260208201905092915050565b6000819050602082019050919050565b6000819050919050565b613c6a81613c57565b82525050565b6000613c7c8383613c61565b60208301905092915050565b6000602082019050919050565b6000613ca082613c2b565b613caa8185613c36565b9350613cb583613c47565b8060005b83811015613ce6578151613ccd8882613c70565b9750613cd883613c88565b925050600181019050613cb9565b5085935050505092915050565b60006040820190508181036000830152613d0d8185613bcd565b90508181036020830152613d218184613c95565b90509392505050565b613d3381613c57565b8114613d3e57600080fd5b50565b600081359050613d5081613d2a565b92915050565b600060208284031215613d6c57613d6b6139a2565b5b6000613d7a84828501613d41565b91505092915050565b60008115159050919050565b613d9881613d83565b82525050565b613da781613b87565b82525050565b600081519050919050565b600082825260208201905092915050565b60005b83811015613de7578082015181840152602081019050613dcc565b83811115613df6576000848401525b50505050565b6000613e0782613dad565b613e118185613db8565b9350613e21818560208601613dc9565b613e2a816139b6565b840191505092915050565b613e3e81613c57565b82525050565b6000608082019050613e596000830187613d8f565b613e666020830186613d9e565b8181036040830152613e788185613dfc565b9050613e876060830184613e35565b95945050505050565b613e9981613b87565b8114613ea457600080fd5b50565b600081359050613eb681613e90565b92915050565b600080600080600060a08688031215613ed857613ed76139a2565b5b600086013567ffffffffffffffff811115613ef657613ef56139a7565b5b613f0288828901613ac4565b9550506020613f1388828901613ea7565b9450506040613f2488828901613d41565b935050606086013567ffffffffffffffff811115613f4557613f446139a7565b5b613f5188828901613ac4565b925050608086013567ffffffffffffffff811115613f7257613f716139a7565b5b613f7e88828901613ac4565b9150509295509295909350565b60008060408385031215613fa257613fa16139a2565b5b6000613fb085828601613ea7565b9250506020613fc185828601613d41565b9150509250929050565b6000608082019050613fe06000830187613d8f565b613fed6020830186613d9e565b613ffa6040830185613e35565b818103606083015261400c8184613dfc565b905095945050505050565b61402081613d83565b811461402b57600080fd5b50565b60008135905061403d81614017565b92915050565b600067ffffffffffffffff82111561405e5761405d6139c7565b5b602082029050602081019050919050565b600080fd5b600061408761408284614043565b613a27565b905080838252602082019050602084028301858111156140aa576140a961406f565b5b835b818110156140f157803567ffffffffffffffff8111156140cf576140ce6139ac565b5b8086016140dc8982613ac4565b855260208501945050506020810190506140ac565b5050509392505050565b600082601f8301126141105761410f6139ac565b5b8135614120848260208601614074565b91505092915050565b60008060008060008060c08789031215614146576141456139a2565b5b600061415489828a0161402e565b965050602061416589828a01613ea7565b955050604087013567ffffffffffffffff811115614186576141856139a7565b5b61419289828a01613ac4565b94505060606141a389828a01613d41565b935050608087013567ffffffffffffffff8111156141c4576141c36139a7565b5b6141d089828a016140fb565b92505060a087013567ffffffffffffffff8111156141f1576141f06139a7565b5b6141fd89828a016140fb565b9150509295509295509295565b6000602082840312156142205761421f6139a2565b5b600061422e84828501613ea7565b91505092915050565b600081519050919050565b600082825260208201905092915050565b6000819050602082019050919050565b600082825260208201905092915050565b600061427f82613dad565b6142898185614263565b9350614299818560208601613dc9565b6142a2816139b6565b840191505092915050565b60006142b98383614274565b905092915050565b6000602082019050919050565b60006142d982614237565b6142e38185614242565b9350836020820285016142f585614253565b8060005b85811015614331578484038952815161431285826142ad565b945061431d836142c1565b925060208a019950506001810190506142f9565b50829750879550505050505092915050565b600060e082019050818103600083015261435d818a613dfc565b905061436c6020830189613d9e565b818103604083015261437e8188613dfc565b905061438d6060830187613d9e565b818103608083015261439f8186613dfc565b905081810360a08301526143b381856142ce565b905081810360c08301526143c781846142ce565b905098975050505050505050565b600080600080608085870312156143ef576143ee6139a2565b5b60006143fd8782880161402e565b945050602061440e87828801613ea7565b935050604061441f87828801613d41565b925050606085013567ffffffffffffffff8111156144405761443f6139a7565b5b61444c87828801613ac4565b91505092959194509250565b600060a08201905061446d6000830188613d8f565b61447a6020830187613d9e565b818103604083015261448c8186613dfc565b905081810360608301526144a081856142ce565b905081810360808301526144b481846142ce565b90509695505050505050565b7f4e487b7100000000000000000000000000000000000000000000000000000000600052603260045260246000fd5b7f4e487b7100000000000000000000000000000000000000000000000000000000600052602260045260246000fd5b6000600282049050600182168061453657607f821691505b6020821081141561454a576145496144ef565b5b50919050565b600081905092915050565b60008190508160005260206000209050919050565b6000815461457d8161451e565b6145878186614550565b945060018216600081146145a257600181146145b3576145e6565b60ff198316865281860193506145e6565b6145bc8561455b565b60005b838110156145de578154818901526001820191506020810190506145bf565b838801955050505b50505092915050565b60006145fb8284614570565b915081905092915050565b600061461182613dad565b61461b8185614550565b935061462b818560208601613dc9565b80840191505092915050565b60006146438284614606565b915081905092915050565b7f4e487b7100000000000000000000000000000000000000000000000000000000600052601160045260246000fd5b600061468882613c57565b91507fffffffffffffffffffffffffffffffffffffffffffffffffffffffffffffffff8214156146bb576146ba61464e565b5b600182019050919050565b7f5245474953544552454420444f43544f5253204f4e4c59000000000000000000600082015250565b60006146fc601783613db8565b9150614707826146c6565b602082019050919050565b6000602082019050818103600083015261472b816146ef565b9050919050565b60006040820190506147476000830185613d9e565b6147546020830184613d9e565b9392505050565b7f524547495354455245442050415449454e5453204f4e4c590000000000000000600082015250565b6000614791601883613db8565b915061479c8261475b565b602082019050919050565b600060208201905081810360008301526147c081614784565b9050919050565b7f4f4e4c592041444d494e20495320414c4c4f5745440000000000000000000000600082015250565b60006147fd601583613db8565b9150614808826147c7565b602082019050919050565b6000602082019050818103600083015261482c816147f0565b9050919050565b7f50415449454e5453204f52204143434553535f4752414e5445445f444f43544f60008201527f5253204f4e4c5900000000000000000000000000000000000000000000000000602082015250565b600061488f602783613db8565b915061489a82614833565b604082019050919050565b600060208201905081810360008301526148be81614882565b9050919050565b7f445220414343455353204e4f54204752414e5445440000000000000000000000600082015250565b60006148fb601583613db8565b9150614906826148c5565b602082019050919050565b6000602082019050818103600083015261492a816148ee565b905091905056fea2646970667358221220291c5d31a8a536cc78ba478378320142db1ec97e09bbe92a4e86e5c2240075b864736f6c63430008090033",
	"linkReferences": {},
	"deployedLinkReferences": {}
}