{
  "_format": "hh-sol-artifact-1",
  "contractName": "BCMedical1",
  "sourceName": "contracts/BCMedical1.sol",
  "abi": [
    {
      "inputs": [],
      "stateMutability": "nonpayable",
      "type": "constructor"
    },
    {
      "anonymous": false,
      "inputs": [
        {
          "indexed": false,
          "internalType": "address",
          "name": "admin",
          "type": "address"
        },
        {
          "indexed": false,
          "internalType": "address",
          "name": "doctor",
          "type": "address"
        }
      ],
      "name": "DrDetailsAdded",
      "type": "event"
    },
    {
      "anonymous": false,
      "inputs": [
        {
          "indexed": false,
          "internalType": "address",
          "name": "dr",
          "type": "address"
        },
        {
          "indexed": false,
          "internalType": "address",
          "name": "patient",
          "type": "address"
        }
      ],
      "name": "GrantAccessToDr",
      "type": "event"
    },
    {
      "anonymous": false,
      "inputs": [
        {
          "indexed": false,
          "internalType": "address",
          "name": "dr",
          "type": "address"
        },
        {
          "indexed": false,
          "internalType": "address",
          "name": "patient",
          "type": "address"
        }
      ],
      "name": "HealthRecordsAdded",
      "type": "event"
    },
    {
      "anonymous": false,
      "inputs": [
        {
          "indexed": false,
          "internalType": "address",
          "name": "admin",
          "type": "address"
        },
        {
          "indexed": false,
          "internalType": "address",
          "name": "patient",
          "type": "address"
        }
      ],
      "name": "PatientDetailsAdded",
      "type": "event"
    },
    {
      "inputs": [
        {
          "internalType": "address",
          "name": "_Id",
          "type": "address"
        }
      ],
      "name": "getDoctorDetails",
      "outputs": [
        {
          "internalType": "bool",
          "name": "_state",
          "type": "bool"
        },
        {
          "internalType": "address",
          "name": "_drId",
          "type": "address"
        },
        {
          "internalType": "string",
          "name": "_name",
          "type": "string"
        }
      ],
      "stateMutability": "view",
      "type": "function"
    },
    {
      "inputs": [
        {
          "internalType": "address",
          "name": "_dr",
          "type": "address"
        }
      ],
      "name": "getHealthRecords",
      "outputs": [
        {
          "internalType": "string",
          "name": "_drName",
          "type": "string"
        },
        {
          "internalType": "address",
          "name": "_drId",
          "type": "address"
        },
        {
          "internalType": "string",
          "name": "_paName",
          "type": "string"
        },
        {
          "internalType": "address",
          "name": "_paId",
          "type": "address"
        },
        {
          "internalType": "string",
          "name": "_prescription",
          "type": "string"
        },
        {
          "internalType": "string[]",
          "name": "_rec",
          "type": "string[]"
        }
      ],
      "stateMutability": "view",
      "type": "function"
    },
    {
      "inputs": [
        {
          "internalType": "address",
          "name": "_paId",
          "type": "address"
        }
      ],
      "name": "getHealthRecordsForDoctor",
      "outputs": [
        {
          "internalType": "string",
          "name": "_drName",
          "type": "string"
        },
        {
          "internalType": "address",
          "name": "_drId",
          "type": "address"
        },
        {
          "internalType": "string",
          "name": "_paName",
          "type": "string"
        },
        {
          "internalType": "address",
          "name": "_pId",
          "type": "address"
        },
        {
          "internalType": "string",
          "name": "_prescription",
          "type": "string"
        },
        {
          "internalType": "string[]",
          "name": "_rec",
          "type": "string[]"
        }
      ],
      "stateMutability": "view",
      "type": "function"
    },
    {
      "inputs": [
        {
          "internalType": "address",
          "name": "_Id",
          "type": "address"
        }
      ],
      "name": "getPatientDetails",
      "outputs": [
        {
          "internalType": "bool",
          "name": "_state",
          "type": "bool"
        },
        {
          "internalType": "address",
          "name": "_paId",
          "type": "address"
        },
        {
          "internalType": "string",
          "name": "_paName",
          "type": "string"
        },
        {
          "internalType": "string[]",
          "name": "_paRecords",
          "type": "string[]"
        }
      ],
      "stateMutability": "view",
      "type": "function"
    },
    {
      "inputs": [
        {
          "internalType": "address",
          "name": "doctor_id",
          "type": "address"
        },
        {
          "internalType": "uint256",
          "name": "access",
          "type": "uint256"
        }
      ],
      "name": "grantAccessToDoctor",
      "outputs": [],
      "stateMutability": "nonpayable",
      "type": "function"
    },
    {
      "inputs": [
        {
          "internalType": "bool",
          "name": "_state",
          "type": "bool"
        },
        {
          "internalType": "address",
          "name": "_drId",
          "type": "address"
        },
        {
          "internalType": "string",
          "name": "_name",
          "type": "string"
        }
      ],
      "name": "setDoctorDetails",
      "outputs": [],
      "stateMutability": "nonpayable",
      "type": "function"
    },
    {
      "inputs": [
        {
          "internalType": "string",
          "name": "_paName",
          "type": "string"
        },
        {
          "internalType": "address",
          "name": "_paId",
          "type": "address"
        },
        {
          "internalType": "string",
          "name": "_prescription",
          "type": "string"
        }
      ],
      "name": "setHealthRecordsDetails",
      "outputs": [],
      "stateMutability": "nonpayable",
      "type": "function"
    },
    {
      "inputs": [
        {
          "internalType": "bool",
          "name": "_state",
          "type": "bool"
        },
        {
          "internalType": "address",
          "name": "_paId",
          "type": "address"
        },
        {
          "internalType": "string",
          "name": "_paName",
          "type": "string"
        },
        {
          "internalType": "string[]",
          "name": "_paRecords",
          "type": "string[]"
        }
      ],
      "name": "setPatientDetails",
      "outputs": [],
      "stateMutability": "nonpayable",
      "type": "function"
    }
  ],
  "bytecode": "0x608060405234801561001057600080fd5b5033600460006101000a81548173ffffffffffffffffffffffffffffffffffffffff021916908373ffffffffffffffffffffffffffffffffffffffff160217905550613332806100616000396000f3fe608060405234801561001057600080fd5b50600436106100885760003560e01c8063bab90dbd1161005b578063bab90dbd14610116578063c88f22a914610148578063efe2ccc114610164578063f83009ba1461019757610088565b8063506f17731461008d57806371f61bfa146100a95780637827c01a146100c557806380cfed0e146100fa575b600080fd5b6100a760048036038101906100a2919061257f565b6101cc565b005b6100c360048036038101906100be9190612823565b610320565b005b6100df60048036038101906100da91906128c2565b610509565b6040516100f196959493929190612a89565b60405180910390f35b610114600480360381019061010f9190612b06565b610b75565b005b610130600480360381019061012b91906128c2565b610d34565b60405161013f93929190612b84565b60405180910390f35b610162600480360381019061015d9190612bc2565b610f51565b005b61017e600480360381019061017991906128c2565b611911565b60405161018e9493929190612c4d565b60405180910390f35b6101b160048036038101906101ac91906128c2565b611cd3565b6040516101c396959493929190612a89565b60405180910390f35b60011515600160003373ffffffffffffffffffffffffffffffffffffffff1673ffffffffffffffffffffffffffffffffffffffff16815260200190815260200160002060000160009054906101000a900460ff16151514610262576040517f08c379a000000000000000000000000000000000000000000000000000000000815260040161025990612cec565b60405180910390fd5b80600360003373ffffffffffffffffffffffffffffffffffffffff1673ffffffffffffffffffffffffffffffffffffffff16815260200190815260200160002060008473ffffffffffffffffffffffffffffffffffffffff1673ffffffffffffffffffffffffffffffffffffffff168152602001908152602001600020819055507f19dd02d0615ff9058c55159271b51d3d8ead87b40cc392e6dbeca6483cff33338233604051610314929190612d0c565b60405180910390a15050565b600115156000803373ffffffffffffffffffffffffffffffffffffffff1673ffffffffffffffffffffffffffffffffffffffff16815260200190815260200160002060000160009054906101000a900460ff161515146103b5576040517f08c379a00000000000000000000000000000000000000000000000000000000081526004016103ac90612d81565b60405180910390fd5b604051806080016040528085151581526020018473ffffffffffffffffffffffffffffffffffffffff16815260200183815260200182815250600160008573ffffffffffffffffffffffffffffffffffffffff1673ffffffffffffffffffffffffffffffffffffffff16815260200190815260200160002060008201518160000160006101000a81548160ff02191690831515021790555060208201518160000160016101000a81548173ffffffffffffffffffffffffffffffffffffffff021916908373ffffffffffffffffffffffffffffffffffffffff16021790555060408201518160010190816104a99190612fad565b5060608201518160020190805190602001906104c69291906123fd565b509050507f83c041d3aeb1dcb1f28cb15e20bdfee5ed1ca3740e487f9cab72e13eeb85950533846040516104fb929190612d0c565b60405180910390a150505050565b606060006060600060608060011515600160003373ffffffffffffffffffffffffffffffffffffffff1673ffffffffffffffffffffffffffffffffffffffff16815260200190815260200160002060000160009054906101000a900460ff161515146105aa576040517f08c379a00000000000000000000000000000000000000000000000000000000081526004016105a190612cec565b60405180910390fd5b600260008873ffffffffffffffffffffffffffffffffffffffff1673ffffffffffffffffffffffffffffffffffffffff16815260200190815260200160002060003373ffffffffffffffffffffffffffffffffffffffff1673ffffffffffffffffffffffffffffffffffffffff168152602001908152602001600020600001600101805461063790612dd0565b80601f016020809104026020016040519081016040528092919081815260200182805461066390612dd0565b80156106b05780601f10610685576101008083540402835291602001916106b0565b820191906000526020600020905b81548152906001019060200180831161069357829003601f168201915b50505050509550600260008873ffffffffffffffffffffffffffffffffffffffff1673ffffffffffffffffffffffffffffffffffffffff16815260200190815260200160002060003373ffffffffffffffffffffffffffffffffffffffff1673ffffffffffffffffffffffffffffffffffffffff16815260200190815260200160002060000160000160019054906101000a900473ffffffffffffffffffffffffffffffffffffffff169450600260008873ffffffffffffffffffffffffffffffffffffffff1673ffffffffffffffffffffffffffffffffffffffff16815260200190815260200160002060003373ffffffffffffffffffffffffffffffffffffffff1673ffffffffffffffffffffffffffffffffffffffff16815260200190815260200160002060020160010180546107e990612dd0565b80601f016020809104026020016040519081016040528092919081815260200182805461081590612dd0565b80156108625780601f1061083757610100808354040283529160200191610862565b820191906000526020600020905b81548152906001019060200180831161084557829003601f168201915b50505050509350600260008873ffffffffffffffffffffffffffffffffffffffff1673ffffffffffffffffffffffffffffffffffffffff16815260200190815260200160002060003373ffffffffffffffffffffffffffffffffffffffff1673ffffffffffffffffffffffffffffffffffffffff16815260200190815260200160002060020160000160019054906101000a900473ffffffffffffffffffffffffffffffffffffffff169250600260008873ffffffffffffffffffffffffffffffffffffffff1673ffffffffffffffffffffffffffffffffffffffff16815260200190815260200160002060003373ffffffffffffffffffffffffffffffffffffffff1673ffffffffffffffffffffffffffffffffffffffff168152602001908152602001600020600501600001805461099b90612dd0565b80601f01602080910402602001604051908101604052809291908181526020018280546109c790612dd0565b8015610a145780601f106109e957610100808354040283529160200191610a14565b820191906000526020600020905b8154815290600101906020018083116109f757829003601f168201915b50505050509150600260008873ffffffffffffffffffffffffffffffffffffffff1673ffffffffffffffffffffffffffffffffffffffff16815260200190815260200160002060003373ffffffffffffffffffffffffffffffffffffffff1673ffffffffffffffffffffffffffffffffffffffff168152602001908152602001600020600601805480602002602001604051908101604052809291908181526020016000905b82821015610b66578382906000526020600020018054610ad990612dd0565b80601f0160208091040260200160405190810160405280929190818152602001828054610b0590612dd0565b8015610b525780601f10610b2757610100808354040283529160200191610b52565b820191906000526020600020905b815481529060010190602001808311610b3557829003601f168201915b505050505081526020019060010190610aba565b50505050905091939550919395565b600460009054906101000a900473ffffffffffffffffffffffffffffffffffffffff1673ffffffffffffffffffffffffffffffffffffffff163373ffffffffffffffffffffffffffffffffffffffff1614610c05576040517f08c379a0000000000000000000000000000000000000000000000000000000008152600401610bfc906130cb565b60405180910390fd5b604051806060016040528084151581526020018373ffffffffffffffffffffffffffffffffffffffff168152602001828152506000808473ffffffffffffffffffffffffffffffffffffffff1673ffffffffffffffffffffffffffffffffffffffff16815260200190815260200160002060008201518160000160006101000a81548160ff02191690831515021790555060208201518160000160016101000a81548173ffffffffffffffffffffffffffffffffffffffff021916908373ffffffffffffffffffffffffffffffffffffffff1602179055506040820151816001019081610cf29190612fad565b509050507f83c041d3aeb1dcb1f28cb15e20bdfee5ed1ca3740e487f9cab72e13eeb8595053383604051610d27929190612d0c565b60405180910390a1505050565b6000806060600460009054906101000a900473ffffffffffffffffffffffffffffffffffffffff1673ffffffffffffffffffffffffffffffffffffffff163373ffffffffffffffffffffffffffffffffffffffff1614610dc9576040517f08c379a0000000000000000000000000000000000000000000000000000000008152600401610dc0906130cb565b60405180910390fd5b6000808573ffffffffffffffffffffffffffffffffffffffff1673ffffffffffffffffffffffffffffffffffffffff16815260200190815260200160002060000160009054906101000a900460ff1692506000808573ffffffffffffffffffffffffffffffffffffffff1673ffffffffffffffffffffffffffffffffffffffff16815260200190815260200160002060000160019054906101000a900473ffffffffffffffffffffffffffffffffffffffff1691506000808573ffffffffffffffffffffffffffffffffffffffff1673ffffffffffffffffffffffffffffffffffffffff1681526020019081526020016000206001018054610eca90612dd0565b80601f0160208091040260200160405190810160405280929190818152602001828054610ef690612dd0565b8015610f435780601f10610f1857610100808354040283529160200191610f43565b820191906000526020600020905b815481529060010190602001808311610f2657829003601f168201915b505050505090509193909250565b600115156000803373ffffffffffffffffffffffffffffffffffffffff1673ffffffffffffffffffffffffffffffffffffffff16815260200190815260200160002060000160009054906101000a900460ff16151514610fe6576040517f08c379a0000000000000000000000000000000000000000000000000000000008152600401610fdd90612d81565b60405180910390fd5b6000803373ffffffffffffffffffffffffffffffffffffffff1673ffffffffffffffffffffffffffffffffffffffff168152602001908152602001600020600101600260003373ffffffffffffffffffffffffffffffffffffffff1673ffffffffffffffffffffffffffffffffffffffff16815260200190815260200160002060008473ffffffffffffffffffffffffffffffffffffffff1673ffffffffffffffffffffffffffffffffffffffff16815260200190815260200160002060000160010190816110b59190613116565b506000803373ffffffffffffffffffffffffffffffffffffffff1673ffffffffffffffffffffffffffffffffffffffff16815260200190815260200160002060000160019054906101000a900473ffffffffffffffffffffffffffffffffffffffff16600260003373ffffffffffffffffffffffffffffffffffffffff1673ffffffffffffffffffffffffffffffffffffffff16815260200190815260200160002060008473ffffffffffffffffffffffffffffffffffffffff1673ffffffffffffffffffffffffffffffffffffffff16815260200190815260200160002060000160000160016101000a81548173ffffffffffffffffffffffffffffffffffffffff021916908373ffffffffffffffffffffffffffffffffffffffff1602179055506001600260003373ffffffffffffffffffffffffffffffffffffffff1673ffffffffffffffffffffffffffffffffffffffff16815260200190815260200160002060008473ffffffffffffffffffffffffffffffffffffffff1673ffffffffffffffffffffffffffffffffffffffff16815260200190815260200160002060020160000160006101000a81548160ff02191690831515021790555081600260003373ffffffffffffffffffffffffffffffffffffffff1673ffffffffffffffffffffffffffffffffffffffff16815260200190815260200160002060008473ffffffffffffffffffffffffffffffffffffffff1673ffffffffffffffffffffffffffffffffffffffff16815260200190815260200160002060020160000160016101000a81548173ffffffffffffffffffffffffffffffffffffffff021916908373ffffffffffffffffffffffffffffffffffffffff16021790555082600260003373ffffffffffffffffffffffffffffffffffffffff1673ffffffffffffffffffffffffffffffffffffffff16815260200190815260200160002060008473ffffffffffffffffffffffffffffffffffffffff1673ffffffffffffffffffffffffffffffffffffffff16815260200190815260200160002060020160010190816113c39190612fad565b5080600260003373ffffffffffffffffffffffffffffffffffffffff1673ffffffffffffffffffffffffffffffffffffffff16815260200190815260200160002060008473ffffffffffffffffffffffffffffffffffffffff1673ffffffffffffffffffffffffffffffffffffffff16815260200190815260200160002060050160000190816114539190612fad565b50600260003373ffffffffffffffffffffffffffffffffffffffff1673ffffffffffffffffffffffffffffffffffffffff16815260200190815260200160002060008373ffffffffffffffffffffffffffffffffffffffff1673ffffffffffffffffffffffffffffffffffffffff168152602001908152602001600020600601819080600181540180825580915050600190039060005260206000200160009091909190915090816115059190612fad565b50600160008373ffffffffffffffffffffffffffffffffffffffff1673ffffffffffffffffffffffffffffffffffffffff1681526020019081526020016000206002018190806001815401808255809150506001900390600052602060002001600090919091909150908161157a9190612fad565b506118d3600260003373ffffffffffffffffffffffffffffffffffffffff1673ffffffffffffffffffffffffffffffffffffffff16815260200190815260200160002060008473ffffffffffffffffffffffffffffffffffffffff1673ffffffffffffffffffffffffffffffffffffffff16815260200190815260200160002060020160000160009054906101000a900460ff16600260003373ffffffffffffffffffffffffffffffffffffffff1673ffffffffffffffffffffffffffffffffffffffff16815260200190815260200160002060008573ffffffffffffffffffffffffffffffffffffffff1673ffffffffffffffffffffffffffffffffffffffff16815260200190815260200160002060020160000160019054906101000a900473ffffffffffffffffffffffffffffffffffffffff16600260003373ffffffffffffffffffffffffffffffffffffffff1673ffffffffffffffffffffffffffffffffffffffff16815260200190815260200160002060008673ffffffffffffffffffffffffffffffffffffffff1673ffffffffffffffffffffffffffffffffffffffff168152602001908152602001600020600201600101805461173e90612dd0565b80601f016020809104026020016040519081016040528092919081815260200182805461176a90612dd0565b80156117b75780601f1061178c576101008083540402835291602001916117b7565b820191906000526020600020905b81548152906001019060200180831161179a57829003601f168201915b5050505050600160008773ffffffffffffffffffffffffffffffffffffffff1673ffffffffffffffffffffffffffffffffffffffff168152602001908152602001600020600201805480602002602001604051908101604052809291908181526020016000905b828210156118ca57838290600052602060002001805461183d90612dd0565b80601f016020809104026020016040519081016040528092919081815260200182805461186990612dd0565b80156118b65780601f1061188b576101008083540402835291602001916118b6565b820191906000526020600020905b81548152906001019060200180831161189957829003601f168201915b50505050508152602001906001019061181e565b50505050610320565b7ffd09d3da0077a9ed9d4af05531b2f844c840c94c1e6535e3d2a09a6ae1aa9a523383604051611904929190612d0c565b60405180910390a1505050565b60008060608060011515600160003373ffffffffffffffffffffffffffffffffffffffff1673ffffffffffffffffffffffffffffffffffffffff16815260200190815260200160002060000160009054906101000a900460ff16151514806119f557506001600360008773ffffffffffffffffffffffffffffffffffffffff1673ffffffffffffffffffffffffffffffffffffffff16815260200190815260200160002060003373ffffffffffffffffffffffffffffffffffffffff1673ffffffffffffffffffffffffffffffffffffffff16815260200190815260200160002054145b611a34576040517f08c379a0000000000000000000000000000000000000000000000000000000008152600401611a2b90613270565b60405180910390fd5b600160008673ffffffffffffffffffffffffffffffffffffffff1673ffffffffffffffffffffffffffffffffffffffff16815260200190815260200160002060000160009054906101000a900460ff169350600160008673ffffffffffffffffffffffffffffffffffffffff1673ffffffffffffffffffffffffffffffffffffffff16815260200190815260200160002060000160019054906101000a900473ffffffffffffffffffffffffffffffffffffffff169250600160008673ffffffffffffffffffffffffffffffffffffffff1673ffffffffffffffffffffffffffffffffffffffff1681526020019081526020016000206001018054611b3890612dd0565b80601f0160208091040260200160405190810160405280929190818152602001828054611b6490612dd0565b8015611bb15780601f10611b8657610100808354040283529160200191611bb1565b820191906000526020600020905b815481529060010190602001808311611b9457829003601f168201915b50505050509150600160008673ffffffffffffffffffffffffffffffffffffffff1673ffffffffffffffffffffffffffffffffffffffff168152602001908152602001600020600201805480602002602001604051908101604052809291908181526020016000905b82821015611cc6578382906000526020600020018054611c3990612dd0565b80601f0160208091040260200160405190810160405280929190818152602001828054611c6590612dd0565b8015611cb25780601f10611c8757610100808354040283529160200191611cb2565b820191906000526020600020905b815481529060010190602001808311611c9557829003601f168201915b505050505081526020019060010190611c1a565b5050505090509193509193565b6060600060606000606080600115156000803373ffffffffffffffffffffffffffffffffffffffff1673ffffffffffffffffffffffffffffffffffffffff16815260200190815260200160002060000160009054906101000a900460ff16151514611d73576040517f08c379a0000000000000000000000000000000000000000000000000000000008152600401611d6a90612d81565b60405180910390fd5b6001600360008973ffffffffffffffffffffffffffffffffffffffff1673ffffffffffffffffffffffffffffffffffffffff16815260200190815260200160002060003373ffffffffffffffffffffffffffffffffffffffff1673ffffffffffffffffffffffffffffffffffffffff1681526020019081526020016000205414611e32576040517f08c379a0000000000000000000000000000000000000000000000000000000008152600401611e29906132dc565b60405180910390fd5b600260003373ffffffffffffffffffffffffffffffffffffffff1673ffffffffffffffffffffffffffffffffffffffff16815260200190815260200160002060008873ffffffffffffffffffffffffffffffffffffffff1673ffffffffffffffffffffffffffffffffffffffff1681526020019081526020016000206000016001018054611ebf90612dd0565b80601f0160208091040260200160405190810160405280929190818152602001828054611eeb90612dd0565b8015611f385780601f10611f0d57610100808354040283529160200191611f38565b820191906000526020600020905b815481529060010190602001808311611f1b57829003601f168201915b50505050509550600260003373ffffffffffffffffffffffffffffffffffffffff1673ffffffffffffffffffffffffffffffffffffffff16815260200190815260200160002060008873ffffffffffffffffffffffffffffffffffffffff1673ffffffffffffffffffffffffffffffffffffffff16815260200190815260200160002060000160000160019054906101000a900473ffffffffffffffffffffffffffffffffffffffff169450600260003373ffffffffffffffffffffffffffffffffffffffff1673ffffffffffffffffffffffffffffffffffffffff16815260200190815260200160002060008873ffffffffffffffffffffffffffffffffffffffff1673ffffffffffffffffffffffffffffffffffffffff168152602001908152602001600020600201600101805461207190612dd0565b80601f016020809104026020016040519081016040528092919081815260200182805461209d90612dd0565b80156120ea5780601f106120bf576101008083540402835291602001916120ea565b820191906000526020600020905b8154815290600101906020018083116120cd57829003601f168201915b50505050509350600260003373ffffffffffffffffffffffffffffffffffffffff1673ffffffffffffffffffffffffffffffffffffffff16815260200190815260200160002060008873ffffffffffffffffffffffffffffffffffffffff1673ffffffffffffffffffffffffffffffffffffffff16815260200190815260200160002060020160000160019054906101000a900473ffffffffffffffffffffffffffffffffffffffff169250600260003373ffffffffffffffffffffffffffffffffffffffff1673ffffffffffffffffffffffffffffffffffffffff16815260200190815260200160002060008873ffffffffffffffffffffffffffffffffffffffff1673ffffffffffffffffffffffffffffffffffffffff168152602001908152602001600020600501600001805461222390612dd0565b80601f016020809104026020016040519081016040528092919081815260200182805461224f90612dd0565b801561229c5780601f106122715761010080835404028352916020019161229c565b820191906000526020600020905b81548152906001019060200180831161227f57829003601f168201915b50505050509150600260003373ffffffffffffffffffffffffffffffffffffffff1673ffffffffffffffffffffffffffffffffffffffff16815260200190815260200160002060008873ffffffffffffffffffffffffffffffffffffffff1673ffffffffffffffffffffffffffffffffffffffff168152602001908152602001600020600601805480602002602001604051908101604052809291908181526020016000905b828210156123ee57838290600052602060002001805461236190612dd0565b80601f016020809104026020016040519081016040528092919081815260200182805461238d90612dd0565b80156123da5780601f106123af576101008083540402835291602001916123da565b820191906000526020600020905b8154815290600101906020018083116123bd57829003601f168201915b505050505081526020019060010190612342565b50505050905091939550919395565b828054828255906000526020600020908101928215612445579160200282015b828111156124445782518290816124349190612fad565b509160200191906001019061241d565b5b5090506124529190612456565b5090565b5b80821115612476576000818161246d919061247a565b50600101612457565b5090565b50805461248690612dd0565b6000825580601f1061249857506124b7565b601f0160209004906000526020600020908101906124b691906124ba565b5b50565b5b808211156124d35760008160009055506001016124bb565b5090565b6000604051905090565b600080fd5b600080fd5b600073ffffffffffffffffffffffffffffffffffffffff82169050919050565b6000612516826124eb565b9050919050565b6125268161250b565b811461253157600080fd5b50565b6000813590506125438161251d565b92915050565b6000819050919050565b61255c81612549565b811461256757600080fd5b50565b60008135905061257981612553565b92915050565b60008060408385031215612596576125956124e1565b5b60006125a485828601612534565b92505060206125b58582860161256a565b9150509250929050565b60008115159050919050565b6125d4816125bf565b81146125df57600080fd5b50565b6000813590506125f1816125cb565b92915050565b600080fd5b600080fd5b6000601f19601f8301169050919050565b7f4e487b7100000000000000000000000000000000000000000000000000000000600052604160045260246000fd5b61264a82612601565b810181811067ffffffffffffffff8211171561266957612668612612565b5b80604052505050565b600061267c6124d7565b90506126888282612641565b919050565b600067ffffffffffffffff8211156126a8576126a7612612565b5b6126b182612601565b9050602081019050919050565b82818337600083830152505050565b60006126e06126db8461268d565b612672565b9050828152602081018484840111156126fc576126fb6125fc565b5b6127078482856126be565b509392505050565b600082601f830112612724576127236125f7565b5b81356127348482602086016126cd565b91505092915050565b600067ffffffffffffffff82111561275857612757612612565b5b602082029050602081019050919050565b600080fd5b600061278161277c8461273d565b612672565b905080838252602082019050602084028301858111156127a4576127a3612769565b5b835b818110156127eb57803567ffffffffffffffff8111156127c9576127c86125f7565b5b8086016127d6898261270f565b855260208501945050506020810190506127a6565b5050509392505050565b600082601f83011261280a576128096125f7565b5b813561281a84826020860161276e565b91505092915050565b6000806000806080858703121561283d5761283c6124e1565b5b600061284b878288016125e2565b945050602061285c87828801612534565b935050604085013567ffffffffffffffff81111561287d5761287c6124e6565b5b6128898782880161270f565b925050606085013567ffffffffffffffff8111156128aa576128a96124e6565b5b6128b6878288016127f5565b91505092959194509250565b6000602082840312156128d8576128d76124e1565b5b60006128e684828501612534565b91505092915050565b600081519050919050565b600082825260208201905092915050565b60005b8381101561292957808201518184015260208101905061290e565b60008484015250505050565b6000612940826128ef565b61294a81856128fa565b935061295a81856020860161290b565b61296381612601565b840191505092915050565b6129778161250b565b82525050565b600081519050919050565b600082825260208201905092915050565b6000819050602082019050919050565b600082825260208201905092915050565b60006129c5826128ef565b6129cf81856129a9565b93506129df81856020860161290b565b6129e881612601565b840191505092915050565b60006129ff83836129ba565b905092915050565b6000602082019050919050565b6000612a1f8261297d565b612a298185612988565b935083602082028501612a3b85612999565b8060005b85811015612a775784840389528151612a5885826129f3565b9450612a6383612a07565b925060208a01995050600181019050612a3f565b50829750879550505050505092915050565b600060c0820190508181036000830152612aa38189612935565b9050612ab2602083018861296e565b8181036040830152612ac48187612935565b9050612ad3606083018661296e565b8181036080830152612ae58185612935565b905081810360a0830152612af98184612a14565b9050979650505050505050565b600080600060608486031215612b1f57612b1e6124e1565b5b6000612b2d868287016125e2565b9350506020612b3e86828701612534565b925050604084013567ffffffffffffffff811115612b5f57612b5e6124e6565b5b612b6b8682870161270f565b9150509250925092565b612b7e816125bf565b82525050565b6000606082019050612b996000830186612b75565b612ba6602083018561296e565b8181036040830152612bb88184612935565b9050949350505050565b600080600060608486031215612bdb57612bda6124e1565b5b600084013567ffffffffffffffff811115612bf957612bf86124e6565b5b612c058682870161270f565b9350506020612c1686828701612534565b925050604084013567ffffffffffffffff811115612c3757612c366124e6565b5b612c438682870161270f565b9150509250925092565b6000608082019050612c626000830187612b75565b612c6f602083018661296e565b8181036040830152612c818185612935565b90508181036060830152612c958184612a14565b905095945050505050565b7f524547495354455245442050415449454e5453204f4e4c590000000000000000600082015250565b6000612cd66018836128fa565b9150612ce182612ca0565b602082019050919050565b60006020820190508181036000830152612d0581612cc9565b9050919050565b6000604082019050612d21600083018561296e565b612d2e602083018461296e565b9392505050565b7f5245474953544552454420444f43544f5253204f4e4c59000000000000000000600082015250565b6000612d6b6017836128fa565b9150612d7682612d35565b602082019050919050565b60006020820190508181036000830152612d9a81612d5e565b9050919050565b7f4e487b7100000000000000000000000000000000000000000000000000000000600052602260045260246000fd5b60006002820490506001821680612de857607f821691505b602082108103612dfb57612dfa612da1565b5b50919050565b60008190508160005260206000209050919050565b60006020601f8301049050919050565b600082821b905092915050565b600060088302612e637fffffffffffffffffffffffffffffffffffffffffffffffffffffffffffffffff82612e26565b612e6d8683612e26565b95508019841693508086168417925050509392505050565b6000819050919050565b6000612eaa612ea5612ea084612549565b612e85565b612549565b9050919050565b6000819050919050565b612ec483612e8f565b612ed8612ed082612eb1565b848454612e33565b825550505050565b600090565b612eed612ee0565b612ef8818484612ebb565b505050565b5b81811015612f1c57612f11600082612ee5565b600181019050612efe565b5050565b601f821115612f6157612f3281612e01565b612f3b84612e16565b81016020851015612f4a578190505b612f5e612f5685612e16565b830182612efd565b50505b505050565b600082821c905092915050565b6000612f8460001984600802612f66565b1980831691505092915050565b6000612f9d8383612f73565b9150826002028217905092915050565b612fb6826128ef565b67ffffffffffffffff811115612fcf57612fce612612565b5b612fd98254612dd0565b612fe4828285612f20565b600060209050601f8311600181146130175760008415613005578287015190505b61300f8582612f91565b865550613077565b601f19841661302586612e01565b60005b8281101561304d57848901518255600182019150602085019450602081019050613028565b8683101561306a5784890151613066601f891682612f73565b8355505b6001600288020188555050505b505050505050565b7f4f4e4c592041444d494e20495320414c4c4f5745440000000000000000000000600082015250565b60006130b56015836128fa565b91506130c08261307f565b602082019050919050565b600060208201905081810360008301526130e4816130a8565b9050919050565b6000815490506130fa81612dd0565b9050919050565b60008190508160005260206000209050919050565b8181036131245750506131fc565b61312d826130eb565b67ffffffffffffffff81111561314657613145612612565b5b6131508254612dd0565b61315b828285612f20565b6000601f83116001811461318a5760008415613178578287015490505b6131828582612f91565b8655506131f5565b601f19841661319887613101565b96506131a386612e01565b60005b828110156131cb578489015482556001820191506001850194506020810190506131a6565b868310156131e857848901546131e4601f891682612f73565b8355505b6001600288020188555050505b5050505050505b565b7f50415449454e5453204f52204143434553535f4752414e5445445f444f43544f60008201527f5253204f4e4c5900000000000000000000000000000000000000000000000000602082015250565b600061325a6027836128fa565b9150613265826131fe565b604082019050919050565b600060208201905081810360008301526132898161324d565b9050919050565b7f445220414343455353204e4f54204752414e5445440000000000000000000000600082015250565b60006132c66015836128fa565b91506132d182613290565b602082019050919050565b600060208201905081810360008301526132f5816132b9565b905091905056fea26469706673582212201c06c78ceb4bff829eaa4bddc023257c59d8fbc876fdcb7bda2c772bea68c1f664736f6c63430008110033",
  "linkReferences": {},
  "deployedLinkReferences": {}
}