{
  "_format": "hh-sol-artifact-1",
  "contractName": "FinalContract",
  "sourceName": "contracts/FinalContract.sol",
  "abi": [
    {
      "inputs": [],
      "stateMutability": "nonpayable",
      "type": "constructor"
    },
    {
      "anonymous": false,
      "inputs": [
        {
          "indexed": false,
          "internalType": "address",
          "name": "admin",
          "type": "address"
        },
        {
          "indexed": false,
          "internalType": "address",
          "name": "doctor",
          "type": "address"
        }
      ],
      "name": "DrDetailsAdded",
      "type": "event"
    },
    {
      "anonymous": false,
      "inputs": [
        {
          "indexed": false,
          "internalType": "address",
          "name": "dr",
          "type": "address"
        },
        {
          "indexed": false,
          "internalType": "address",
          "name": "patient",
          "type": "address"
        }
      ],
      "name": "GrantAccessToDr",
      "type": "event"
    },
    {
      "anonymous": false,
      "inputs": [
        {
          "indexed": false,
          "internalType": "address",
          "name": "dr",
          "type": "address"
        },
        {
          "indexed": false,
          "internalType": "address",
          "name": "patient",
          "type": "address"
        }
      ],
      "name": "HealthRecordsAdded",
      "type": "event"
    },
    {
      "anonymous": false,
      "inputs": [
        {
          "indexed": false,
          "internalType": "address",
          "name": "admin",
          "type": "address"
        },
        {
          "indexed": false,
          "internalType": "address",
          "name": "patient",
          "type": "address"
        }
      ],
      "name": "PatientDetailsAdded",
      "type": "event"
    },
    {
      "inputs": [
        {
          "internalType": "uint256",
          "name": "",
          "type": "uint256"
        }
      ],
      "name": "DocList",
      "outputs": [
        {
          "internalType": "bool",
          "name": "state",
          "type": "bool"
        },
        {
          "internalType": "address",
          "name": "dr_Id",
          "type": "address"
        },
        {
          "internalType": "string",
          "name": "dr_Phn",
          "type": "string"
        },
        {
          "internalType": "string",
          "name": "d_Name",
          "type": "string"
        },
        {
          "internalType": "string",
          "name": "d_qual",
          "type": "string"
        },
        {
          "internalType": "string",
          "name": "hosp",
          "type": "string"
        }
      ],
      "stateMutability": "view",
      "type": "function"
    },
    {
      "inputs": [
        {
          "internalType": "uint256",
          "name": "",
          "type": "uint256"
        }
      ],
      "name": "PatientList",
      "outputs": [
        {
          "internalType": "bool",
          "name": "state",
          "type": "bool"
        },
        {
          "internalType": "address",
          "name": "pa_Id",
          "type": "address"
        },
        {
          "internalType": "string",
          "name": "pa_Name",
          "type": "string"
        },
        {
          "internalType": "string",
          "name": "pa_phn",
          "type": "string"
        }
      ],
      "stateMutability": "view",
      "type": "function"
    },
    {
      "inputs": [],
      "name": "getDocbyName",
      "outputs": [
        {
          "internalType": "address[]",
          "name": "_dr_id",
          "type": "address[]"
        },
        {
          "internalType": "string[]",
          "name": "_dr_phn",
          "type": "string[]"
        },
        {
          "internalType": "string[]",
          "name": "_hosp",
          "type": "string[]"
        }
      ],
      "stateMutability": "view",
      "type": "function"
    },
    {
      "inputs": [
        {
          "internalType": "string",
          "name": "_name",
          "type": "string"
        }
      ],
      "name": "getDocbyName__mod",
      "outputs": [
        {
          "internalType": "address[]",
          "name": "_dr_id",
          "type": "address[]"
        },
        {
          "internalType": "string[]",
          "name": "_dr_phn",
          "type": "string[]"
        },
        {
          "internalType": "string[]",
          "name": "_hospN",
          "type": "string[]"
        }
      ],
      "stateMutability": "nonpayable",
      "type": "function"
    },
    {
      "inputs": [
        {
          "internalType": "address",
          "name": "_Id",
          "type": "address"
        }
      ],
      "name": "getDoctorDetails",
      "outputs": [
        {
          "internalType": "bool",
          "name": "_state",
          "type": "bool"
        },
        {
          "internalType": "address",
          "name": "_drId",
          "type": "address"
        },
        {
          "internalType": "string",
          "name": "_name",
          "type": "string"
        },
        {
          "internalType": "string",
          "name": "_num",
          "type": "string"
        },
        {
          "internalType": "string",
          "name": "_qual",
          "type": "string"
        },
        {
          "internalType": "string",
          "name": "_hosp",
          "type": "string"
        }
      ],
      "stateMutability": "view",
      "type": "function"
    },
    {
      "inputs": [
        {
          "internalType": "address",
          "name": "_Id",
          "type": "address"
        }
      ],
      "name": "getDoctorDetailsForDoc",
      "outputs": [
        {
          "internalType": "bool",
          "name": "_state",
          "type": "bool"
        },
        {
          "internalType": "address",
          "name": "_drId",
          "type": "address"
        },
        {
          "internalType": "string",
          "name": "_name",
          "type": "string"
        },
        {
          "internalType": "string",
          "name": "_num",
          "type": "string"
        },
        {
          "internalType": "string",
          "name": "_qual",
          "type": "string"
        },
        {
          "internalType": "string",
          "name": "_hosp",
          "type": "string"
        }
      ],
      "stateMutability": "view",
      "type": "function"
    },
    {
      "inputs": [
        {
          "internalType": "address",
          "name": "_Id",
          "type": "address"
        }
      ],
      "name": "getPatientDetails",
      "outputs": [
        {
          "internalType": "bool",
          "name": "_state",
          "type": "bool"
        },
        {
          "internalType": "address",
          "name": "_paId",
          "type": "address"
        },
        {
          "internalType": "string",
          "name": "_paphn",
          "type": "string"
        },
        {
          "internalType": "string",
          "name": "_paName",
          "type": "string"
        },
        {
          "internalType": "string[]",
          "name": "_paRecords",
          "type": "string[]"
        },
        {
          "internalType": "string[]",
          "name": "_paFiles",
          "type": "string[]"
        }
      ],
      "stateMutability": "view",
      "type": "function"
    },
    {
      "inputs": [],
      "name": "getPatientbyName",
      "outputs": [
        {
          "internalType": "address[]",
          "name": "_pa_id",
          "type": "address[]"
        },
        {
          "internalType": "string[]",
          "name": "_pa_phn",
          "type": "string[]"
        }
      ],
      "stateMutability": "view",
      "type": "function"
    },
    {
      "inputs": [
        {
          "internalType": "string",
          "name": "_name",
          "type": "string"
        }
      ],
      "name": "getPatientbyName_mod",
      "outputs": [
        {
          "internalType": "address[]",
          "name": "_dr_id",
          "type": "address[]"
        },
        {
          "internalType": "string[]",
          "name": "_dr_phn",
          "type": "string[]"
        }
      ],
      "stateMutability": "nonpayable",
      "type": "function"
    },
    {
      "inputs": [
        {
          "internalType": "address",
          "name": "doctor_id",
          "type": "address"
        },
        {
          "internalType": "uint256",
          "name": "access",
          "type": "uint256"
        }
      ],
      "name": "grantAccessToDoctor",
      "outputs": [],
      "stateMutability": "nonpayable",
      "type": "function"
    },
    {
      "inputs": [
        {
          "internalType": "bool",
          "name": "_state",
          "type": "bool"
        },
        {
          "internalType": "address",
          "name": "_drId",
          "type": "address"
        },
        {
          "internalType": "string",
          "name": "_num",
          "type": "string"
        },
        {
          "internalType": "string",
          "name": "_name",
          "type": "string"
        },
        {
          "internalType": "string",
          "name": "_qual",
          "type": "string"
        },
        {
          "internalType": "string",
          "name": "_hosp",
          "type": "string"
        }
      ],
      "name": "setDoctorDetails",
      "outputs": [],
      "stateMutability": "nonpayable",
      "type": "function"
    },
    {
      "inputs": [
        {
          "internalType": "string",
          "name": "_paName",
          "type": "string"
        },
        {
          "internalType": "address",
          "name": "_paId",
          "type": "address"
        },
        {
          "internalType": "string",
          "name": "_phnNum",
          "type": "string"
        },
        {
          "internalType": "string",
          "name": "_prescription",
          "type": "string"
        },
        {
          "internalType": "string",
          "name": "_url",
          "type": "string"
        }
      ],
      "name": "setHealthRecordsDetails",
      "outputs": [],
      "stateMutability": "nonpayable",
      "type": "function"
    },
    {
      "inputs": [
        {
          "internalType": "bool",
          "name": "_state",
          "type": "bool"
        },
        {
          "internalType": "address",
          "name": "_paId",
          "type": "address"
        },
        {
          "internalType": "string",
          "name": "_paName",
          "type": "string"
        },
        {
          "internalType": "string",
          "name": "_phnNum",
          "type": "string"
        },
        {
          "internalType": "string[]",
          "name": "_paRecords",
          "type": "string[]"
        },
        {
          "internalType": "string[]",
          "name": "_paFiles",
          "type": "string[]"
        }
      ],
      "name": "setPatientDetails",
      "outputs": [],
      "stateMutability": "nonpayable",
      "type": "function"
    }
  ],
  "bytecode": "0x608060405234801561001057600080fd5b5033600460006101000a81548173ffffffffffffffffffffffffffffffffffffffff021916908373ffffffffffffffffffffffffffffffffffffffff160217905550614d3d806100616000396000f3fe608060405234801561001057600080fd5b50600436106100cf5760003560e01c806382d780201161008c578063bab90dbd11610066578063bab90dbd1461024b578063dcd397b914610280578063ec218c651461029c578063efe2ccc1146102b8576100cf565b806382d78020146101db57806386410724146101fb578063b83a5a941461022c576100cf565b8063169b14ab146100d45780631ce8e455146101095780632df85dc51461013c57806342d2aad11461016e578063506f17731461018a5780635f6fff7b146101a6575b600080fd5b6100ee60048036038101906100e99190613aeb565b6102ed565b60405161010096959493929190613bd2565b60405180910390f35b610123600480360381019061011e9190613c85565b610779565b6040516101339493929190613cb2565b60405180910390f35b61015660048036038101906101519190613e3a565b6108f6565b6040516101659392919061404d565b60405180910390f35b610188600480360381019061018391906141ab565b610e5c565b005b6101a4600480360381019061019f91906142a8565b6111c5565b005b6101c060048036038101906101bb9190613c85565b611319565b6040516101d296959493929190613bd2565b60405180910390f35b6101e36115b2565b6040516101f29392919061404d565b60405180910390f35b61021560048036038101906102109190613e3a565b6117f6565b6040516102239291906142e8565b60405180910390f35b610234611bc3565b6040516102429291906142e8565b60405180910390f35b61026560048036038101906102609190613aeb565b611d2d565b60405161027796959493929190613bd2565b60405180910390f35b61029a6004803603810190610295919061431f565b6121b4565b005b6102b660048036038101906102b1919061441c565b6124fb565b005b6102d260048036038101906102cd9190613aeb565b61336d565b6040516102e496959493929190614507565b60405180910390f35b600080606080606080600115156000803373ffffffffffffffffffffffffffffffffffffffff1673ffffffffffffffffffffffffffffffffffffffff16815260200190815260200160002060000160009054906101000a900460ff1615151461038b576040517f08c379a0000000000000000000000000000000000000000000000000000000008152600401610382906145d0565b60405180910390fd5b6000808873ffffffffffffffffffffffffffffffffffffffff1673ffffffffffffffffffffffffffffffffffffffff16815260200190815260200160002060000160009054906101000a900460ff1695506000808873ffffffffffffffffffffffffffffffffffffffff1673ffffffffffffffffffffffffffffffffffffffff16815260200190815260200160002060000160019054906101000a900473ffffffffffffffffffffffffffffffffffffffff1694506000808873ffffffffffffffffffffffffffffffffffffffff1673ffffffffffffffffffffffffffffffffffffffff168152602001908152602001600020600201805461048c9061461f565b80601f01602080910402602001604051908101604052809291908181526020018280546104b89061461f565b80156105055780601f106104da57610100808354040283529160200191610505565b820191906000526020600020905b8154815290600101906020018083116104e857829003601f168201915b505050505093506000808873ffffffffffffffffffffffffffffffffffffffff1673ffffffffffffffffffffffffffffffffffffffff16815260200190815260200160002060010180546105589061461f565b80601f01602080910402602001604051908101604052809291908181526020018280546105849061461f565b80156105d15780601f106105a6576101008083540402835291602001916105d1565b820191906000526020600020905b8154815290600101906020018083116105b457829003601f168201915b505050505092506000808873ffffffffffffffffffffffffffffffffffffffff1673ffffffffffffffffffffffffffffffffffffffff16815260200190815260200160002060030180546106249061461f565b80601f01602080910402602001604051908101604052809291908181526020018280546106509061461f565b801561069d5780601f106106725761010080835404028352916020019161069d565b820191906000526020600020905b81548152906001019060200180831161068057829003601f168201915b505050505091506000808873ffffffffffffffffffffffffffffffffffffffff1673ffffffffffffffffffffffffffffffffffffffff16815260200190815260200160002060040180546106f09061461f565b80601f016020809104026020016040519081016040528092919081815260200182805461071c9061461f565b80156107695780601f1061073e57610100808354040283529160200191610769565b820191906000526020600020905b81548152906001019060200180831161074c57829003601f168201915b5050505050905091939550919395565b6006818154811061078957600080fd5b90600052602060002090600502016000915090508060000160009054906101000a900460ff16908060000160019054906101000a900473ffffffffffffffffffffffffffffffffffffffff16908060010180546107e59061461f565b80601f01602080910402602001604051908101604052809291908181526020018280546108119061461f565b801561085e5780601f106108335761010080835404028352916020019161085e565b820191906000526020600020905b81548152906001019060200180831161084157829003601f168201915b5050505050908060020180546108739061461f565b80601f016020809104026020016040519081016040528092919081815260200182805461089f9061461f565b80156108ec5780601f106108c1576101008083540402835291602001916108ec565b820191906000526020600020905b8154815290600101906020018083116108cf57829003601f168201915b5050505050905084565b6060806060600067ffffffffffffffff81111561091657610915613d0f565b5b6040519080825280602002602001820160405280156109445781602001602082028036833780820191505090505b506007908051906020019061095a929190613915565b50600067ffffffffffffffff81111561097657610975613d0f565b5b6040519080825280602002602001820160405280156109a957816020015b60608152602001906001900390816109945790505b50600890805190602001906109bf92919061399f565b50600067ffffffffffffffff8111156109db576109da613d0f565b5b604051908082528060200260200182016040528015610a0e57816020015b60608152602001906001900390816109f95790505b5060099080519060200190610a2492919061399f565b5060005b600580549050811015610c1a5760058181548110610a4957610a48614650565b5b9060005260206000209060050201600201604051602001610a6a9190614722565b6040516020818303038152906040528051906020012085604051602001610a91919061476a565b6040516020818303038152906040528051906020012003610c0757600760058281548110610ac257610ac1614650565b5b906000526020600020906005020160000160019054906101000a900473ffffffffffffffffffffffffffffffffffffffff169080600181540180825580915050600190039060005260206000200160009091909190916101000a81548173ffffffffffffffffffffffffffffffffffffffff021916908373ffffffffffffffffffffffffffffffffffffffff160217905550600860058281548110610b6a57610b69614650565b5b9060005260206000209060050201600101908060018154018082558091505060019003906000526020600020016000909190919091509081610bac9190614943565b50600960058281548110610bc357610bc2614650565b5b9060005260206000209060050201600401908060018154018082558091505060019003906000526020600020016000909190919091509081610c059190614943565b505b8080610c1290614a5a565b915050610a28565b5060076008600982805480602002602001604051908101604052809291908181526020018280548015610ca257602002820191906000526020600020905b8160009054906101000a900473ffffffffffffffffffffffffffffffffffffffff1673ffffffffffffffffffffffffffffffffffffffff1681526020019060010190808311610c58575b5050505050925081805480602002602001604051908101604052809291908181526020016000905b82821015610d76578382906000526020600020018054610ce99061461f565b80601f0160208091040260200160405190810160405280929190818152602001828054610d159061461f565b8015610d625780601f10610d3757610100808354040283529160200191610d62565b820191906000526020600020905b815481529060010190602001808311610d4557829003601f168201915b505050505081526020019060010190610cca565b50505050915080805480602002602001604051908101604052809291908181526020016000905b82821015610e49578382906000526020600020018054610dbc9061461f565b80601f0160208091040260200160405190810160405280929190818152602001828054610de89061461f565b8015610e355780601f10610e0a57610100808354040283529160200191610e35565b820191906000526020600020905b815481529060010190602001808311610e1857829003601f168201915b505050505081526020019060010190610d9d565b5050505090509250925092509193909250565b600115156000803373ffffffffffffffffffffffffffffffffffffffff1673ffffffffffffffffffffffffffffffffffffffff16815260200190815260200160002060000160009054906101000a900460ff16151514610ef1576040517f08c379a0000000000000000000000000000000000000000000000000000000008152600401610ee8906145d0565b60405180910390fd5b6040518060c0016040528087151581526020018673ffffffffffffffffffffffffffffffffffffffff16815260200185815260200184815260200183815260200182815250600160008773ffffffffffffffffffffffffffffffffffffffff1673ffffffffffffffffffffffffffffffffffffffff16815260200190815260200160002060008201518160000160006101000a81548160ff02191690831515021790555060208201518160000160016101000a81548173ffffffffffffffffffffffffffffffffffffffff021916908373ffffffffffffffffffffffffffffffffffffffff1602179055506040820151816001019081610ff19190614aa2565b5060608201518160020190816110079190614aa2565b50608082015181600301908051906020019061102492919061399f565b5060a082015181600401908051906020019061104192919061399f565b5090505060066040518060c0016040528088151581526020018773ffffffffffffffffffffffffffffffffffffffff16815260200186815260200185815260200184815260200183815250908060018154018082558091505060019003906000526020600020906005020160009091909190915060008201518160000160006101000a81548160ff02191690831515021790555060208201518160000160016101000a81548173ffffffffffffffffffffffffffffffffffffffff021916908373ffffffffffffffffffffffffffffffffffffffff16021790555060408201518160010190816111319190614aa2565b5060608201518160020190816111479190614aa2565b50608082015181600301908051906020019061116492919061399f565b5060a082015181600401908051906020019061118192919061399f565b5050507f83c041d3aeb1dcb1f28cb15e20bdfee5ed1ca3740e487f9cab72e13eeb85950533866040516111b5929190614b74565b60405180910390a1505050505050565b60011515600160003373ffffffffffffffffffffffffffffffffffffffff1673ffffffffffffffffffffffffffffffffffffffff16815260200190815260200160002060000160009054906101000a900460ff1615151461125b576040517f08c379a000000000000000000000000000000000000000000000000000000000815260040161125290614be9565b60405180910390fd5b80600360003373ffffffffffffffffffffffffffffffffffffffff1673ffffffffffffffffffffffffffffffffffffffff16815260200190815260200160002060008473ffffffffffffffffffffffffffffffffffffffff1673ffffffffffffffffffffffffffffffffffffffff168152602001908152602001600020819055507f19dd02d0615ff9058c55159271b51d3d8ead87b40cc392e6dbeca6483cff3333823360405161130d929190614b74565b60405180910390a15050565b6005818154811061132957600080fd5b90600052602060002090600502016000915090508060000160009054906101000a900460ff16908060000160019054906101000a900473ffffffffffffffffffffffffffffffffffffffff16908060010180546113859061461f565b80601f01602080910402602001604051908101604052809291908181526020018280546113b19061461f565b80156113fe5780601f106113d3576101008083540402835291602001916113fe565b820191906000526020600020905b8154815290600101906020018083116113e157829003601f168201915b5050505050908060020180546114139061461f565b80601f016020809104026020016040519081016040528092919081815260200182805461143f9061461f565b801561148c5780601f106114615761010080835404028352916020019161148c565b820191906000526020600020905b81548152906001019060200180831161146f57829003601f168201915b5050505050908060030180546114a19061461f565b80601f01602080910402602001604051908101604052809291908181526020018280546114cd9061461f565b801561151a5780601f106114ef5761010080835404028352916020019161151a565b820191906000526020600020905b8154815290600101906020018083116114fd57829003601f168201915b50505050509080600401805461152f9061461f565b80601f016020809104026020016040519081016040528092919081815260200182805461155b9061461f565b80156115a85780601f1061157d576101008083540402835291602001916115a8565b820191906000526020600020905b81548152906001019060200180831161158b57829003601f168201915b5050505050905086565b60608060606007600860098280548060200260200160405190810160405280929190818152602001828054801561163e57602002820191906000526020600020905b8160009054906101000a900473ffffffffffffffffffffffffffffffffffffffff1673ffffffffffffffffffffffffffffffffffffffff16815260200190600101908083116115f4575b5050505050925081805480602002602001604051908101604052809291908181526020016000905b828210156117125783829060005260206000200180546116859061461f565b80601f01602080910402602001604051908101604052809291908181526020018280546116b19061461f565b80156116fe5780601f106116d3576101008083540402835291602001916116fe565b820191906000526020600020905b8154815290600101906020018083116116e157829003601f168201915b505050505081526020019060010190611666565b50505050915080805480602002602001604051908101604052809291908181526020016000905b828210156117e55783829060005260206000200180546117589061461f565b80601f01602080910402602001604051908101604052809291908181526020018280546117849061461f565b80156117d15780601f106117a6576101008083540402835291602001916117d1565b820191906000526020600020905b8154815290600101906020018083116117b457829003601f168201915b505050505081526020019060010190611739565b505050509050925092509250909192565b606080600067ffffffffffffffff81111561181457611813613d0f565b5b6040519080825280602002602001820160405280156118425781602001602082028036833780820191505090505b50600a9080519060200190611858929190613915565b50600067ffffffffffffffff81111561187457611873613d0f565b5b6040519080825280602002602001820160405280156118a757816020015b60608152602001906001900390816118925790505b50600b90805190602001906118bd92919061399f565b5060005b600680549050811015611a5a57600681815481106118e2576118e1614650565b5b90600052602060002090600502016001016040516020016119039190614722565b604051602081830303815290604052805190602001208460405160200161192a919061476a565b6040516020818303038152906040528051906020012003611a4757600a6006828154811061195b5761195a614650565b5b906000526020600020906005020160000160019054906101000a900473ffffffffffffffffffffffffffffffffffffffff169080600181540180825580915050600190039060005260206000200160009091909190916101000a81548173ffffffffffffffffffffffffffffffffffffffff021916908373ffffffffffffffffffffffffffffffffffffffff160217905550600b60068281548110611a0357611a02614650565b5b9060005260206000209060050201600201908060018154018082558091505060019003906000526020600020016000909190919091509081611a459190614943565b505b8080611a5290614a5a565b9150506118c1565b50600a600b81805480602002602001604051908101604052809291908181526020018280548015611ae057602002820191906000526020600020905b8160009054906101000a900473ffffffffffffffffffffffffffffffffffffffff1673ffffffffffffffffffffffffffffffffffffffff1681526020019060010190808311611a96575b5050505050915080805480602002602001604051908101604052809291908181526020016000905b82821015611bb4578382906000526020600020018054611b279061461f565b80601f0160208091040260200160405190810160405280929190818152602001828054611b539061461f565b8015611ba05780601f10611b7557610100808354040283529160200191611ba0565b820191906000526020600020905b815481529060010190602001808311611b8357829003601f168201915b505050505081526020019060010190611b08565b50505050905091509150915091565b606080600a600b81805480602002602001604051908101604052809291908181526020018280548015611c4b57602002820191906000526020600020905b8160009054906101000a900473ffffffffffffffffffffffffffffffffffffffff1673ffffffffffffffffffffffffffffffffffffffff1681526020019060010190808311611c01575b5050505050915080805480602002602001604051908101604052809291908181526020016000905b82821015611d1f578382906000526020600020018054611c929061461f565b80601f0160208091040260200160405190810160405280929190818152602001828054611cbe9061461f565b8015611d0b5780601f10611ce057610100808354040283529160200191611d0b565b820191906000526020600020905b815481529060010190602001808311611cee57829003601f168201915b505050505081526020019060010190611c73565b505050509050915091509091565b600080606080606080600460009054906101000a900473ffffffffffffffffffffffffffffffffffffffff1673ffffffffffffffffffffffffffffffffffffffff163373ffffffffffffffffffffffffffffffffffffffff1614611dc6576040517f08c379a0000000000000000000000000000000000000000000000000000000008152600401611dbd90614c55565b60405180910390fd5b6000808873ffffffffffffffffffffffffffffffffffffffff1673ffffffffffffffffffffffffffffffffffffffff16815260200190815260200160002060000160009054906101000a900460ff1695506000808873ffffffffffffffffffffffffffffffffffffffff1673ffffffffffffffffffffffffffffffffffffffff16815260200190815260200160002060000160019054906101000a900473ffffffffffffffffffffffffffffffffffffffff1694506000808873ffffffffffffffffffffffffffffffffffffffff1673ffffffffffffffffffffffffffffffffffffffff1681526020019081526020016000206002018054611ec79061461f565b80601f0160208091040260200160405190810160405280929190818152602001828054611ef39061461f565b8015611f405780601f10611f1557610100808354040283529160200191611f40565b820191906000526020600020905b815481529060010190602001808311611f2357829003601f168201915b505050505093506000808873ffffffffffffffffffffffffffffffffffffffff1673ffffffffffffffffffffffffffffffffffffffff1681526020019081526020016000206001018054611f939061461f565b80601f0160208091040260200160405190810160405280929190818152602001828054611fbf9061461f565b801561200c5780601f10611fe15761010080835404028352916020019161200c565b820191906000526020600020905b815481529060010190602001808311611fef57829003601f168201915b505050505092506000808873ffffffffffffffffffffffffffffffffffffffff1673ffffffffffffffffffffffffffffffffffffffff168152602001908152602001600020600301805461205f9061461f565b80601f016020809104026020016040519081016040528092919081815260200182805461208b9061461f565b80156120d85780601f106120ad576101008083540402835291602001916120d8565b820191906000526020600020905b8154815290600101906020018083116120bb57829003601f168201915b505050505091506000808873ffffffffffffffffffffffffffffffffffffffff1673ffffffffffffffffffffffffffffffffffffffff168152602001908152602001600020600401805461212b9061461f565b80601f01602080910402602001604051908101604052809291908181526020018280546121579061461f565b80156121a45780601f10612179576101008083540402835291602001916121a4565b820191906000526020600020905b81548152906001019060200180831161218757829003601f168201915b5050505050905091939550919395565b600460009054906101000a900473ffffffffffffffffffffffffffffffffffffffff1673ffffffffffffffffffffffffffffffffffffffff163373ffffffffffffffffffffffffffffffffffffffff1614612244576040517f08c379a000000000000000000000000000000000000000000000000000000000815260040161223b90614c55565b60405180910390fd5b60056040518060c0016040528088151581526020018773ffffffffffffffffffffffffffffffffffffffff16815260200186815260200185815260200184815260200183815250908060018154018082558091505060019003906000526020600020906005020160009091909190915060008201518160000160006101000a81548160ff02191690831515021790555060208201518160000160016101000a81548173ffffffffffffffffffffffffffffffffffffffff021916908373ffffffffffffffffffffffffffffffffffffffff16021790555060408201518160010190816123309190614aa2565b5060608201518160020190816123469190614aa2565b50608082015181600301908161235c9190614aa2565b5060a08201518160040190816123729190614aa2565b5050506040518060c0016040528087151581526020018673ffffffffffffffffffffffffffffffffffffffff168152602001858152602001848152602001838152602001828152506000808773ffffffffffffffffffffffffffffffffffffffff1673ffffffffffffffffffffffffffffffffffffffff16815260200190815260200160002060008201518160000160006101000a81548160ff02191690831515021790555060208201518160000160016101000a81548173ffffffffffffffffffffffffffffffffffffffff021916908373ffffffffffffffffffffffffffffffffffffffff16021790555060408201518160010190816124749190614aa2565b50606082015181600201908161248a9190614aa2565b5060808201518160030190816124a09190614aa2565b5060a08201518160040190816124b69190614aa2565b509050507f83c041d3aeb1dcb1f28cb15e20bdfee5ed1ca3740e487f9cab72e13eeb85950533866040516124eb929190614b74565b60405180910390a1505050505050565b600115156000803373ffffffffffffffffffffffffffffffffffffffff1673ffffffffffffffffffffffffffffffffffffffff16815260200190815260200160002060000160009054906101000a900460ff16151514612590576040517f08c379a0000000000000000000000000000000000000000000000000000000008152600401612587906145d0565b60405180910390fd5b6001600360008673ffffffffffffffffffffffffffffffffffffffff1673ffffffffffffffffffffffffffffffffffffffff16815260200190815260200160002060003373ffffffffffffffffffffffffffffffffffffffff1673ffffffffffffffffffffffffffffffffffffffff1681526020019081526020016000208190555060018060003373ffffffffffffffffffffffffffffffffffffffff1673ffffffffffffffffffffffffffffffffffffffff16815260200190815260200160002060000160006101000a81548160ff0219169083151502179055506000803373ffffffffffffffffffffffffffffffffffffffff1673ffffffffffffffffffffffffffffffffffffffff168152602001908152602001600020600201600260003373ffffffffffffffffffffffffffffffffffffffff1673ffffffffffffffffffffffffffffffffffffffff16815260200190815260200160002060008673ffffffffffffffffffffffffffffffffffffffff1673ffffffffffffffffffffffffffffffffffffffff168152602001908152602001600020600001600201908161273b9190614943565b506000803373ffffffffffffffffffffffffffffffffffffffff1673ffffffffffffffffffffffffffffffffffffffff16815260200190815260200160002060000160019054906101000a900473ffffffffffffffffffffffffffffffffffffffff16600260003373ffffffffffffffffffffffffffffffffffffffff1673ffffffffffffffffffffffffffffffffffffffff16815260200190815260200160002060008673ffffffffffffffffffffffffffffffffffffffff1673ffffffffffffffffffffffffffffffffffffffff16815260200190815260200160002060000160000160016101000a81548173ffffffffffffffffffffffffffffffffffffffff021916908373ffffffffffffffffffffffffffffffffffffffff1602179055506001600260003373ffffffffffffffffffffffffffffffffffffffff1673ffffffffffffffffffffffffffffffffffffffff16815260200190815260200160002060008673ffffffffffffffffffffffffffffffffffffffff1673ffffffffffffffffffffffffffffffffffffffff16815260200190815260200160002060050160000160006101000a81548160ff02191690831515021790555083600260003373ffffffffffffffffffffffffffffffffffffffff1673ffffffffffffffffffffffffffffffffffffffff16815260200190815260200160002060008673ffffffffffffffffffffffffffffffffffffffff1673ffffffffffffffffffffffffffffffffffffffff16815260200190815260200160002060050160000160016101000a81548173ffffffffffffffffffffffffffffffffffffffff021916908373ffffffffffffffffffffffffffffffffffffffff16021790555084600260003373ffffffffffffffffffffffffffffffffffffffff1673ffffffffffffffffffffffffffffffffffffffff16815260200190815260200160002060008673ffffffffffffffffffffffffffffffffffffffff1673ffffffffffffffffffffffffffffffffffffffff1681526020019081526020016000206005016001019081612a499190614aa2565b5082600260003373ffffffffffffffffffffffffffffffffffffffff1673ffffffffffffffffffffffffffffffffffffffff16815260200190815260200160002060008673ffffffffffffffffffffffffffffffffffffffff1673ffffffffffffffffffffffffffffffffffffffff1681526020019081526020016000206005016002019081612ad99190614aa2565b5081600260003373ffffffffffffffffffffffffffffffffffffffff1673ffffffffffffffffffffffffffffffffffffffff16815260200190815260200160002060008673ffffffffffffffffffffffffffffffffffffffff1673ffffffffffffffffffffffffffffffffffffffff168152602001908152602001600020600a016000019081612b699190614aa2565b50600260003373ffffffffffffffffffffffffffffffffffffffff1673ffffffffffffffffffffffffffffffffffffffff16815260200190815260200160002060008573ffffffffffffffffffffffffffffffffffffffff1673ffffffffffffffffffffffffffffffffffffffff168152602001908152602001600020600b0182908060018154018082558091505060019003906000526020600020016000909190919091509081612c1b9190614aa2565b50600260003373ffffffffffffffffffffffffffffffffffffffff1673ffffffffffffffffffffffffffffffffffffffff16815260200190815260200160002060008573ffffffffffffffffffffffffffffffffffffffff1673ffffffffffffffffffffffffffffffffffffffff168152602001908152602001600020600c0181908060018154018082558091505060019003906000526020600020016000909190919091509081612ccd9190614aa2565b50600160008573ffffffffffffffffffffffffffffffffffffffff1673ffffffffffffffffffffffffffffffffffffffff16815260200190815260200160002060030182908060018154018082558091505060019003906000526020600020016000909190919091509081612d429190614aa2565b50600160008573ffffffffffffffffffffffffffffffffffffffff1673ffffffffffffffffffffffffffffffffffffffff16815260200190815260200160002060040181908060018154018082558091505060019003906000526020600020016000909190919091509081612db79190614aa2565b5061332d600260003373ffffffffffffffffffffffffffffffffffffffff1673ffffffffffffffffffffffffffffffffffffffff16815260200190815260200160002060008673ffffffffffffffffffffffffffffffffffffffff1673ffffffffffffffffffffffffffffffffffffffff16815260200190815260200160002060050160000160009054906101000a900460ff16600260003373ffffffffffffffffffffffffffffffffffffffff1673ffffffffffffffffffffffffffffffffffffffff16815260200190815260200160002060008773ffffffffffffffffffffffffffffffffffffffff1673ffffffffffffffffffffffffffffffffffffffff16815260200190815260200160002060050160000160019054906101000a900473ffffffffffffffffffffffffffffffffffffffff16600260003373ffffffffffffffffffffffffffffffffffffffff1673ffffffffffffffffffffffffffffffffffffffff16815260200190815260200160002060008873ffffffffffffffffffffffffffffffffffffffff1673ffffffffffffffffffffffffffffffffffffffff1681526020019081526020016000206005016001018054612f7b9061461f565b80601f0160208091040260200160405190810160405280929190818152602001828054612fa79061461f565b8015612ff45780601f10612fc957610100808354040283529160200191612ff4565b820191906000526020600020905b815481529060010190602001808311612fd757829003601f168201915b5050505050600260003373ffffffffffffffffffffffffffffffffffffffff1673ffffffffffffffffffffffffffffffffffffffff16815260200190815260200160002060008973ffffffffffffffffffffffffffffffffffffffff1673ffffffffffffffffffffffffffffffffffffffff16815260200190815260200160002060050160020180546130869061461f565b80601f01602080910402602001604051908101604052809291908181526020018280546130b29061461f565b80156130ff5780601f106130d4576101008083540402835291602001916130ff565b820191906000526020600020905b8154815290600101906020018083116130e257829003601f168201915b5050505050600160008a73ffffffffffffffffffffffffffffffffffffffff1673ffffffffffffffffffffffffffffffffffffffff168152602001908152602001600020600301805480602002602001604051908101604052809291908181526020016000905b828210156132125783829060005260206000200180546131859061461f565b80601f01602080910402602001604051908101604052809291908181526020018280546131b19061461f565b80156131fe5780601f106131d3576101008083540402835291602001916131fe565b820191906000526020600020905b8154815290600101906020018083116131e157829003601f168201915b505050505081526020019060010190613166565b50505050600160008b73ffffffffffffffffffffffffffffffffffffffff1673ffffffffffffffffffffffffffffffffffffffff168152602001908152602001600020600401805480602002602001604051908101604052809291908181526020016000905b828210156133245783829060005260206000200180546132979061461f565b80601f01602080910402602001604051908101604052809291908181526020018280546132c39061461f565b80156133105780601f106132e557610100808354040283529160200191613310565b820191906000526020600020905b8154815290600101906020018083116132f357829003601f168201915b505050505081526020019060010190613278565b50505050610e5c565b7ffd09d3da0077a9ed9d4af05531b2f844c840c94c1e6535e3d2a09a6ae1aa9a52338560405161335e929190614b74565b60405180910390a15050505050565b60008060608060608060011515600160003373ffffffffffffffffffffffffffffffffffffffff1673ffffffffffffffffffffffffffffffffffffffff16815260200190815260200160002060000160009054906101000a900460ff161515148061345457506001600360008973ffffffffffffffffffffffffffffffffffffffff1673ffffffffffffffffffffffffffffffffffffffff16815260200190815260200160002060003373ffffffffffffffffffffffffffffffffffffffff1673ffffffffffffffffffffffffffffffffffffffff16815260200190815260200160002054145b613493576040517f08c379a000000000000000000000000000000000000000000000000000000000815260040161348a90614ce7565b60405180910390fd5b600160008873ffffffffffffffffffffffffffffffffffffffff1673ffffffffffffffffffffffffffffffffffffffff16815260200190815260200160002060000160009054906101000a900460ff169550600160008873ffffffffffffffffffffffffffffffffffffffff1673ffffffffffffffffffffffffffffffffffffffff16815260200190815260200160002060000160019054906101000a900473ffffffffffffffffffffffffffffffffffffffff169450600160008873ffffffffffffffffffffffffffffffffffffffff1673ffffffffffffffffffffffffffffffffffffffff16815260200190815260200160002060020180546135979061461f565b80601f01602080910402602001604051908101604052809291908181526020018280546135c39061461f565b80156136105780601f106135e557610100808354040283529160200191613610565b820191906000526020600020905b8154815290600101906020018083116135f357829003601f168201915b50505050509350600160008873ffffffffffffffffffffffffffffffffffffffff1673ffffffffffffffffffffffffffffffffffffffff16815260200190815260200160002060010180546136649061461f565b80601f01602080910402602001604051908101604052809291908181526020018280546136909061461f565b80156136dd5780601f106136b2576101008083540402835291602001916136dd565b820191906000526020600020905b8154815290600101906020018083116136c057829003601f168201915b50505050509250600160008873ffffffffffffffffffffffffffffffffffffffff1673ffffffffffffffffffffffffffffffffffffffff168152602001908152602001600020600301805480602002602001604051908101604052809291908181526020016000905b828210156137f25783829060005260206000200180546137659061461f565b80601f01602080910402602001604051908101604052809291908181526020018280546137919061461f565b80156137de5780601f106137b3576101008083540402835291602001916137de565b820191906000526020600020905b8154815290600101906020018083116137c157829003601f168201915b505050505081526020019060010190613746565b505050509150600160008673ffffffffffffffffffffffffffffffffffffffff1673ffffffffffffffffffffffffffffffffffffffff168152602001908152602001600020600401805480602002602001604051908101604052809291908181526020016000905b828210156139065783829060005260206000200180546138799061461f565b80601f01602080910402602001604051908101604052809291908181526020018280546138a59061461f565b80156138f25780601f106138c7576101008083540402835291602001916138f2565b820191906000526020600020905b8154815290600101906020018083116138d557829003601f168201915b50505050508152602001906001019061385a565b50505050905091939550919395565b82805482825590600052602060002090810192821561398e579160200282015b8281111561398d5782518260006101000a81548173ffffffffffffffffffffffffffffffffffffffff021916908373ffffffffffffffffffffffffffffffffffffffff16021790555091602001919060010190613935565b5b50905061399b91906139f8565b5090565b8280548282559060005260206000209081019282156139e7579160200282015b828111156139e65782518290816139d69190614aa2565b50916020019190600101906139bf565b5b5090506139f49190613a15565b5090565b5b80821115613a115760008160009055506001016139f9565b5090565b5b80821115613a355760008181613a2c9190613a39565b50600101613a16565b5090565b508054613a459061461f565b6000825580601f10613a575750613a76565b601f016020900490600052602060002090810190613a7591906139f8565b5b50565b6000604051905090565b600080fd5b600080fd5b600073ffffffffffffffffffffffffffffffffffffffff82169050919050565b6000613ab882613a8d565b9050919050565b613ac881613aad565b8114613ad357600080fd5b50565b600081359050613ae581613abf565b92915050565b600060208284031215613b0157613b00613a83565b5b6000613b0f84828501613ad6565b91505092915050565b60008115159050919050565b613b2d81613b18565b82525050565b613b3c81613aad565b82525050565b600081519050919050565b600082825260208201905092915050565b60005b83811015613b7c578082015181840152602081019050613b61565b60008484015250505050565b6000601f19601f8301169050919050565b6000613ba482613b42565b613bae8185613b4d565b9350613bbe818560208601613b5e565b613bc781613b88565b840191505092915050565b600060c082019050613be76000830189613b24565b613bf46020830188613b33565b8181036040830152613c068187613b99565b90508181036060830152613c1a8186613b99565b90508181036080830152613c2e8185613b99565b905081810360a0830152613c428184613b99565b9050979650505050505050565b6000819050919050565b613c6281613c4f565b8114613c6d57600080fd5b50565b600081359050613c7f81613c59565b92915050565b600060208284031215613c9b57613c9a613a83565b5b6000613ca984828501613c70565b91505092915050565b6000608082019050613cc76000830187613b24565b613cd46020830186613b33565b8181036040830152613ce68185613b99565b90508181036060830152613cfa8184613b99565b905095945050505050565b600080fd5b600080fd5b7f4e487b7100000000000000000000000000000000000000000000000000000000600052604160045260246000fd5b613d4782613b88565b810181811067ffffffffffffffff82111715613d6657613d65613d0f565b5b80604052505050565b6000613d79613a79565b9050613d858282613d3e565b919050565b600067ffffffffffffffff821115613da557613da4613d0f565b5b613dae82613b88565b9050602081019050919050565b82818337600083830152505050565b6000613ddd613dd884613d8a565b613d6f565b905082815260208101848484011115613df957613df8613d0a565b5b613e04848285613dbb565b509392505050565b600082601f830112613e2157613e20613d05565b5b8135613e31848260208601613dca565b91505092915050565b600060208284031215613e5057613e4f613a83565b5b600082013567ffffffffffffffff811115613e6e57613e6d613a88565b5b613e7a84828501613e0c565b91505092915050565b600081519050919050565b600082825260208201905092915050565b6000819050602082019050919050565b613eb881613aad565b82525050565b6000613eca8383613eaf565b60208301905092915050565b6000602082019050919050565b6000613eee82613e83565b613ef88185613e8e565b9350613f0383613e9f565b8060005b83811015613f34578151613f1b8882613ebe565b9750613f2683613ed6565b925050600181019050613f07565b5085935050505092915050565b600081519050919050565b600082825260208201905092915050565b6000819050602082019050919050565b600082825260208201905092915050565b6000613f8982613b42565b613f938185613f6d565b9350613fa3818560208601613b5e565b613fac81613b88565b840191505092915050565b6000613fc38383613f7e565b905092915050565b6000602082019050919050565b6000613fe382613f41565b613fed8185613f4c565b935083602082028501613fff85613f5d565b8060005b8581101561403b578484038952815161401c8582613fb7565b945061402783613fcb565b925060208a01995050600181019050614003565b50829750879550505050505092915050565b600060608201905081810360008301526140678186613ee3565b9050818103602083015261407b8185613fd8565b9050818103604083015261408f8184613fd8565b9050949350505050565b6140a281613b18565b81146140ad57600080fd5b50565b6000813590506140bf81614099565b92915050565b600067ffffffffffffffff8211156140e0576140df613d0f565b5b602082029050602081019050919050565b600080fd5b6000614109614104846140c5565b613d6f565b9050808382526020820190506020840283018581111561412c5761412b6140f1565b5b835b8181101561417357803567ffffffffffffffff81111561415157614150613d05565b5b80860161415e8982613e0c565b8552602085019450505060208101905061412e565b5050509392505050565b600082601f83011261419257614191613d05565b5b81356141a28482602086016140f6565b91505092915050565b60008060008060008060c087890312156141c8576141c7613a83565b5b60006141d689828a016140b0565b96505060206141e789828a01613ad6565b955050604087013567ffffffffffffffff81111561420857614207613a88565b5b61421489828a01613e0c565b945050606087013567ffffffffffffffff81111561423557614234613a88565b5b61424189828a01613e0c565b935050608087013567ffffffffffffffff81111561426257614261613a88565b5b61426e89828a0161417d565b92505060a087013567ffffffffffffffff81111561428f5761428e613a88565b5b61429b89828a0161417d565b9150509295509295509295565b600080604083850312156142bf576142be613a83565b5b60006142cd85828601613ad6565b92505060206142de85828601613c70565b9150509250929050565b600060408201905081810360008301526143028185613ee3565b905081810360208301526143168184613fd8565b90509392505050565b60008060008060008060c0878903121561433c5761433b613a83565b5b600061434a89828a016140b0565b965050602061435b89828a01613ad6565b955050604087013567ffffffffffffffff81111561437c5761437b613a88565b5b61438889828a01613e0c565b945050606087013567ffffffffffffffff8111156143a9576143a8613a88565b5b6143b589828a01613e0c565b935050608087013567ffffffffffffffff8111156143d6576143d5613a88565b5b6143e289828a01613e0c565b92505060a087013567ffffffffffffffff81111561440357614402613a88565b5b61440f89828a01613e0c565b9150509295509295509295565b600080600080600060a0868803121561443857614437613a83565b5b600086013567ffffffffffffffff81111561445657614455613a88565b5b61446288828901613e0c565b955050602061447388828901613ad6565b945050604086013567ffffffffffffffff81111561449457614493613a88565b5b6144a088828901613e0c565b935050606086013567ffffffffffffffff8111156144c1576144c0613a88565b5b6144cd88828901613e0c565b925050608086013567ffffffffffffffff8111156144ee576144ed613a88565b5b6144fa88828901613e0c565b9150509295509295909350565b600060c08201905061451c6000830189613b24565b6145296020830188613b33565b818103604083015261453b8187613b99565b9050818103606083015261454f8186613b99565b905081810360808301526145638185613fd8565b905081810360a08301526145778184613fd8565b9050979650505050505050565b7f5245474953544552454420444f43544f5253204f4e4c59000000000000000000600082015250565b60006145ba601783613b4d565b91506145c582614584565b602082019050919050565b600060208201905081810360008301526145e9816145ad565b9050919050565b7f4e487b7100000000000000000000000000000000000000000000000000000000600052602260045260246000fd5b6000600282049050600182168061463757607f821691505b60208210810361464a576146496145f0565b5b50919050565b7f4e487b7100000000000000000000000000000000000000000000000000000000600052603260045260246000fd5b600081905092915050565b60008190508160005260206000209050919050565b600081546146ac8161461f565b6146b6818661467f565b945060018216600081146146d157600181146146e657614719565b60ff1983168652811515820286019350614719565b6146ef8561468a565b60005b83811015614711578154818901526001820191506020810190506146f2565b838801955050505b50505092915050565b600061472e828461469f565b915081905092915050565b600061474482613b42565b61474e818561467f565b935061475e818560208601613b5e565b80840191505092915050565b60006147768284614739565b915081905092915050565b6000815490506147908161461f565b9050919050565b60008190508160005260206000209050919050565b60006020601f8301049050919050565b600082821b905092915050565b6000600883026147f97fffffffffffffffffffffffffffffffffffffffffffffffffffffffffffffffff826147bc565b61480386836147bc565b95508019841693508086168417925050509392505050565b6000819050919050565b600061484061483b61483684613c4f565b61481b565b613c4f565b9050919050565b6000819050919050565b61485a83614825565b61486e61486682614847565b8484546147c9565b825550505050565b600090565b614883614876565b61488e818484614851565b505050565b5b818110156148b2576148a760008261487b565b600181019050614894565b5050565b601f8211156148f7576148c88161468a565b6148d1846147ac565b810160208510156148e0578190505b6148f46148ec856147ac565b830182614893565b50505b505050565b600082821c905092915050565b600061491a600019846008026148fc565b1980831691505092915050565b60006149338383614909565b9150826002028217905092915050565b818103614951575050614a29565b61495a82614781565b67ffffffffffffffff81111561497357614972613d0f565b5b61497d825461461f565b6149888282856148b6565b6000601f8311600181146149b757600084156149a5578287015490505b6149af8582614927565b865550614a22565b601f1984166149c587614797565b96506149d08661468a565b60005b828110156149f8578489015482556001820191506001850194506020810190506149d3565b86831015614a155784890154614a11601f891682614909565b8355505b6001600288020188555050505b5050505050505b565b7f4e487b7100000000000000000000000000000000000000000000000000000000600052601160045260246000fd5b6000614a6582613c4f565b91507fffffffffffffffffffffffffffffffffffffffffffffffffffffffffffffffff8203614a9757614a96614a2b565b5b600182019050919050565b614aab82613b42565b67ffffffffffffffff811115614ac457614ac3613d0f565b5b614ace825461461f565b614ad98282856148b6565b600060209050601f831160018114614b0c5760008415614afa578287015190505b614b048582614927565b865550614b6c565b601f198416614b1a8661468a565b60005b82811015614b4257848901518255600182019150602085019450602081019050614b1d565b86831015614b5f5784890151614b5b601f891682614909565b8355505b6001600288020188555050505b505050505050565b6000604082019050614b896000830185613b33565b614b966020830184613b33565b9392505050565b7f524547495354455245442050415449454e5453204f4e4c590000000000000000600082015250565b6000614bd3601883613b4d565b9150614bde82614b9d565b602082019050919050565b60006020820190508181036000830152614c0281614bc6565b9050919050565b7f4f4e4c592041444d494e20495320414c4c4f5745440000000000000000000000600082015250565b6000614c3f601583613b4d565b9150614c4a82614c09565b602082019050919050565b60006020820190508181036000830152614c6e81614c32565b9050919050565b7f50415449454e5453204f52204143434553535f4752414e5445445f444f43544f60008201527f5253204f4e4c5900000000000000000000000000000000000000000000000000602082015250565b6000614cd1602783613b4d565b9150614cdc82614c75565b604082019050919050565b60006020820190508181036000830152614d0081614cc4565b905091905056fea2646970667358221220e700b717f0acb29c02ec7240ae575d1dc212668f78059b909c738134b69ac6a164736f6c63430008110033",
  "linkReferences": {},
  "deployedLinkReferences": {}
}